:04000000C8EF3FF016
:107F90000001D1EF3FF0016EACA2FED701C0ADFFF2
:107FA0001200240EAC6E800EAB6E080EB86E190E69
:107FB000AF6E480ECBEC3FF06F0ECBEC3FF06C0E8B
:107FC000CBEC3FF0610ECBEC3FF0200ECBEC3FF062
:107FD0006D0ECBEC3FF0750ECBEC3FF06E0ECBECA4
:107FE0003FF0640ECBEC3FF06F0ECBEC3FF0A30EF6
:107FF000026E550EE82EFED7022EFCD700F0D9D720
:020000040020DA
:08000000FFFFFFFFFFFFFFFF00
:020000040030CA
:0E00000000091F1EFF8385FF0FC00FE00F4099
:00000001FF
