:040000006FEF05F0A9
:10080000004552524F520000000E136E010E126E40
:10081000000E116E0FD012C001F013C002F0000ED6
:10082000046E0A0E036E4CEC05F001C012F002C01B
:1008300013F0112A12500D5C13500E58D8A084D01A
:10084000EAD70DC001F00EC002F0000E046E0A0ED1
:10085000036E17EC05F00150156E1550300F77EC54
:1008600005F01200000E046E640E036E0DC001F060
:100870000EC002F017EC05F001C006F002C007F050
:10088000000E096E0A0E086EEEEC04F00650146EAF
:100890000DC001F00EC002F0000E046E0A0E036ED1
:1008A00017EC05F00150156E1450300F77EC05F081
:1008B0001550300F77EC05F01200030E046EE80EB1
:1008C000036E0DC001F00EC002F017EC05F001C080
:1008D00006F002C007F0000E096E640E086EEEEC22
:1008E00004F006C00FF007C010F0000E046E640E96
:1008F000036E0DC001F00EC002F017EC05F001C050
:1009000006F002C007F0000E096E0A0E086EEEEC4B
:1009100004F00650146E0DC001F00EC002F0000E7F
:10092000046E0A0E036E17EC05F00150156E0F50A1
:10093000300F77EC05F01450300F77EC05F01550C0
:10094000300F77EC05F012001150010AD8B479D7B6
:10095000030AD8B487D7010AD8A41200AED7010E73
:10096000926E010E966E010EC26E070EC16E080EDB
:10097000C06E240EAC6E900EAB6E080EB86E190EE3
:10098000AF6E410E166EEE0EE82EFED7162EFCD779
:1009900000D07DEC05F0D00F1A6E080E1A600ED054
:1009A0001A505FEC05F0166E1650186E196A18C0D2
:1009B0000DF019C00EF004EC04F004D0010E026E2C
:1009C00038EC05F0020E176E450E166EAA0EE82ED4
:1009D000FED7162EFCD7172EFAD7DBD7000E0B6EDC
:1009E000000E0A6E08500910D8B41CD0010E0C6E0F
:1009F00004D0D890083609360C2A09AEFAD7D89018
:100A00000A360B360850065C09500758D8A005D0A6
:100A10000850065E0950075A0A80D89009320832F9
:100A20000C2EEDD70AC006F00BC007F012000350E1
:100A30000410D8B418D0010E056E04D0D890033637
:100A40000436052A04AEFAD70350015C045002585C
:100A5000D8A004D00350015E0450025AD89004324A
:100A60000332052EF1D701C001F002C002F01200DE
:100A700009D002C0F6FF080EF76E0800F55077ECBB
:100A800005F0022A02C0F6FF080EF76E0800F550C6
:100A90000009D8B41200EDD701500302F3CF05F0DE
:100AA000F4CF06F001500402F35006260250030270
:100AB000F350062605C001F006C002F01200026ED7
:100AC00002C001F0D8900136D8900136C250030B15
:100AD0000110C26EC282C2B2FED7C45012001A6A9E
:100AE000196A186A000EF86E0001AFEF04F0016E8B
:100AF000ACA2FED701C0ADFF12009EAAFED7AE5039
:020B00001200E1
:020000040020DA
:08000000FFFFFFFFFFFFFFFF00
:020000040030CA
:0E00000000091F1EFF8385FF0FC00FE00F4099
:00000001FF
