:0400000007EF00F016
:0A0008004A8293ED09F02DEF09F094
:100800000020677261646F732046616872656E686C
:100810006569740A0020677261646F732052616EAB
:100820006B696E650A0020677261646F73204365AF
:100830006C736975730A0020677261646F73204B73
:10084000656C76696E0A004D6963726F7320323091
:1008500032312D320050727565626100543D0000E6
:10086000D38AD388010EC26E0D0EC16E880EC06E83
:10087000240EAC6E900EAB6E080EB86ECF0EAF6E3F
:10088000000E936E000E8A6E000E956E000E8C6E3A
:1008900096809682850ED56E850ED76EEE0ED66E3C
:1008A000F294F28AF28EF28C060E306E130E2F6ED8
:1008B000AE0EE82EFED72F2EFCD7302EFAD7040E20
:1008C000A2EC09F0DAEC07F0470E066E6CEC09F0CA
:1008D000C00EB9EC09F0550E066E6CEC09F0150E61
:1008E000306E4B0E2F6EBE0EE82EFED72F2EFCD78D
:1008F000302EFAD700D0C4EC09F0000E476E000E7F
:1009000080EC09F00150F1082B6E0250D8A0E82AC3
:1009100001082C6E11EC09F02BC040F02CC041F006
:100920002DC042F0010E80EC09F00150FB082B6E47
:100930000250D8A0E82A01082C6E11EC09F02BC057
:100940003DF02CC03EF02DC03FF0020E80EC09F0CF
:1009500001C02BF002C02CF011EC09F02BC03AF0D2
:100960002CC03BF02DC03CF0000E0C6EA00E0D6EA6
:10097000400E0E6E40C009F041C00AF042C00BF0BC
:10098000BAEC05F009C018F00AC019F00BC01AF053
:10099000000E1B6E800E1C6E440E1D6E34EC06F0B5
:1009A00018C034F019C035F01AC036F0000E0C6EC5
:1009B000A00E0D6E400E0E6E3DC009F03EC00AF056
:1009C0003FC00BF0BAEC05F009C018F00AC019F0EE
:1009D0000BC01AF0000E1B6E800E1C6E440E1D6EB6
:1009E00034EC06F018C037F019C038F01AC039F0EE
:1009F000000E0C6EA00E0D6E400E0E6E3AC009F089
:100A00003BC00AF03CC00BF0BAEC05F009C018F08E
:100A10000AC019F00BC01AF0000E1B6E800E1C6E7F
:100A2000440E1D6E34EC06F018C031F019C032F0DF
:100A30001AC033F0C4EC09F0C4EC09F042BE17D080
:100A400040C018F041C019F042C01AF0800E1B6E71
:100A5000F80E1C6E430E1D6E34EC06F018C027F025
:100A600019C028F01AC029F028EC08F033D02D0E58
:100A7000AEEC09F040C018F041C019F042C01AF0C5
:100A80001AEC07F018C027F019C028F058EC09F04C
:100A900027C02BF028C02CF011EC09F02BC040F03F
:100AA0002CC041F02DC042F040C018F041C019F0F8
:100AB00042C01AF0400E1B6E030E1C6E440E1D6EDB
:100AC00034EC06F018C027F019C028F01AC029F03D
:100AD00028EC08F0C00EB9EC09F03FBE17D03DC0BD
:100AE00018F03EC019F03FC01AF0800E1B6EFD0ECC
:100AF0001C6E430E1D6E34EC06F018C027F019C0B2
:100B000028F01AC029F028EC08F0F9D62D0EAEEC2A
:100B100009F03DC018F03EC019F03FC01AF01AECC1
:100B200007F018C027F019C028F058EC09F027C0CA
:100B30002BF028C02CF011EC09F02BC03DF02CC09C
:100B40003EF02DC03FF03DC018F03EC019F03FC050
:100B50001AF0C00E1B6E000E1C6E440E1D6E34EC9F
:100B600006F018C027F019C028F01AC029F028ECA8
:100B700008F0C5D60BC00FF0106A116A0A340F36A0
:100B800001E310800F50126E1250D8A407D0000E4F
:100B9000096E000E0A6E000E0B6E12000EC00FF0F2
:100BA000106A116A0D340F3601E310800F50176E72
:100BB0001750D8A407D0000E096E000E0A6E000E62
:100BC0000B6E120017507B0F12260BC017F00E5041
:100BD000171A800E17160A8E0D8EFF0E0C16FF0EBA
:100BE0000D16000E0E16000E136E000E146E000E83
:100BF000156E070E166E09A006D00C5013260D5068
:100C000014220E501522D8900B320A320932D89095
:100C10000C360D360E36162EEED7090E166E09A0BE
:100C200006D00C5013260D5014220E501522D890C9
:100C30000B320A320932D890153214321332162E82
:100C4000EED713C001F014C002F015C003F012C0BB
:100C500004F017C005F083EC07F001C009F002C0F2
:100C60000AF003C00BF012001AC01EF01F6A206ABF
:100C700019341E3601E31F801E50256E2550D8A45E
:100C800007D0000E186E000E196E000E1A6E1200BC
:100C90001DC01EF01F6A206A1C341E3601E31F802F
:100CA0001E50266E2650D8A407D0000E186E000ED7
:100CB000196E000E1A6E1200000E226E000E236EC8
:100CC000000E246E2650890F255E1AC026F01D5096
:100CD000261A800E2616198EFF0E1816FF0E1916EC
:100CE000000E1A161C8EFF0E1B16FF0E1C16000E91
:100CF0001D16180E216ED8902236233624361B502E
:100D0000185C1C5019581D501A58D8A007D01B50F9
:100D1000185E1C50195A1D501A5A2280D890183645
:100D200019361A36212EE7D722C001F023C002F06F
:100D300024C003F025C004F026C005F083EC07F0C2
:100D400001C018F002C019F003C01AF012000D6EB5
:100D50008C8465D00A0E016E0D5043EC09F00C6EC8
:100D60000C50300FD1EC08F0CEEC09F0040E9EECE4
:100D700008F012000A0E056E640E016E0D5043EC71
:100D800009F0F4EC08F00B6E0A0E016E0D5043EC06
:100D900009F00C6E0B50300FD1EC08F0CEEC09F0DE
:100DA000040E9EEC08F00C50300FD1EC08F0CEECA5
:100DB00009F0040E9EEC08F01200640E056E0D5052
:100DC000F4EC08F00A6E0A0E056E640E016E0D500A
:100DD00043EC09F0F4EC08F00B6E0A0E016E0D50B6
:100DE00043EC09F00C6E0A50300FD1EC08F0CEEC59
:100DF00009F0040E9EEC08F00B50300FD1EC08F017
:100E0000CEEC09F0040E9EEC08F00C50300FD1EC43
:100E100008F0CEEC09F0040E9EEC08F01200095028
:100E2000010AD8B497D7030AD8B4A4D7010AD8A422
:100E30001200C3D71AC01CF01D6A1E6A19341C3672
:100E400001E31D801C50266E2650D8A409D0000E48
:100E5000186E000E196E000E1A6E000E1B6E120038
:100E6000170E1C6E18C01DF019C01EF01AC01FF01E
:100E70001C28206E04D0D8901F321E321D32202E26
:100E8000FAD71D50216E198EFF0E1816FF0E191677
:100E9000000E1A161850226E1950236E1A50246E26
:100EA000256A8E0E265E26AE0DD02650800A8F0F44
:100EB000D8A0CDD7D8902532243223322232263EF4
:100EC000F9D70DD0170E266407D0C1D7D890223697
:100ED00023362436253626062650D8A4F7D72150A7
:100EE000D8B408D0251E241E231E226C000E2322F7
:100EF0002422252222C018F023C019F024C01AF0A1
:100F000025C01BF012000450D8B405D001500210C7
:100F10000310D8A40CD0000E016E000E026E000E5D
:100F2000036E1200042AD890033202320132000EFE
:100F30000114066E000E0214076EFE0E0314086EF6
:100F4000065007100810D8B40CD0ECD7042A010EB4
:100F50000126000E0222000E0322D8900332023234
:100F60000132000E0114066E000E0214076EFF0E11
:100F70000314086E065007100810D8B406D0E6D740
:100F80000406D89001360236033602BE03D0020EA4
:100F90000460F6D704A0029ED890043204500312D5
:100FA0000550D8A4038E01C001F002C002F003C0B6
:100FB00003F012008C94040E4918D8A404D08C506D
:100FC0000F0B300901D03F0E8C6ECEEC09F0010EF4
:100FD0009EEC08F0040E4918D8A404D08C500F0BD6
:100FE000300901D03F0E8C6ECEEC09F0030E9EEC62
:100FF00008F0040E4918D8A404D08C500F0B300907
:1010000001D03F0E8C6ECEEC09F0040E9EEC08F081
:10101000040E4918D8A411D08C500F0B20098C6EE7
:10102000CEEC09F0040E9EEC08F02F0ED1EC08F087
:10103000CEEC09F0040E9EEC08F0C4EC09F00F0EA3
:10104000D1EC08F0CEEC09F0040E9EEC08F0120092
:1010500027C018F028C019F029C01AF01AEC07F0C0
:1010600018502D6E000E0C6EC80E0D6E420E0E6ED8
:1010700027C009F028C00AF029C00BF0BAEC05F02F
:1010800009C018F00AC019F00BC01AF01AEC07F0EA
:1010900018C02AF019C02BF02AC001F02BC002F0B2
:1010A000000E046E640E036E66EC08F001502C6EA8
:1010B000010E096E2D50A7EC06F02E0EAEEC09F0D5
:1010C000020E096E2C50A7EC06F01200000E066E00
:1010D00002AE06D0016C021ED8B0022A010E066EC6
:1010E00004AE04D0036C041ED8B0042A03500410CC
:1010F000D8B418D0010E056E04D0D890033604364B
:10110000052A04AEFAD70350015C04500258D8A057
:1011100004D00350015E0450025AD89004320332C6
:10112000052EF1D70650D8B404D0016C021ED8B0F9
:10113000022A01C001F002C002F01200026E23D0A8
:10114000270E016EF50EE82EFED7012EFCD700F01B
:101150001200030E016E980EE82EFED7012EFCD76A
:10116000B60E00D000D0E82EFCD700D000D000D0C2
:101170001200420EE82EFED700D012001A0EE82E02
:10118000FED700D012000250010AD8B4D9D7030A02
:10119000D8B4DFD7010AD8B4ECD7070AD8A4120014
:1011A000EDD7046E040E4918D8A417D004C003F07C
:1011B000F00E03168C500F0B03108C6ECEEC09F062
:1011C000010E9EEC08F004C003F0033AF00E031683
:1011D0008C500F0B03108C6E1200080E4918D8A407
:1011E000120004C08CFF1200066E000E086E05503F
:1011F000D8B415D0010E076E03D0D8900536072A53
:1012000005AEFBD7D89008360550065CD8A003D0B1
:101210000550065E0880D8900532072EF3D7085097
:101220001200000E2E6E2CAE06D02B6C2C1ED8B0E9
:101230002C2A010E2E6E2BC001F02CC002F0036A86
:101240008E0E046E2EC005F083EC07F001C02BF06B
:1012500002C02CF003C02DF01200AA0EF66E130E81
:10126000F76E000EF86E0900F5CF49F000EE31F090
:10127000180EEE6AE806FDE14A904A92000EF86EFA
:10128000000130EF04F0026E080E036E000E046ED3
:10129000D89002340434046ED89002360150045CB5
:1012A000D8A002D00150045E032EF2D704501200E1
:1012B00028AE0DD027C029F028C02AF0291E2A1EEA
:1012C000294A2A2A29C027F02AC028F0120027C05C
:1012D00027F028C028F0120009D006C0F6FF080E3B
:1012E000F76E0800F550AEEC09F0062A06C0F6FFCE
:1012F000080EF76E0800F5500009D8B41200EDD7BB
:10130000046E04C003F0D8900336D8900336C25060
:10131000030B0310C26EC282C2B2FED7C3CF01F06C
:10132000C4CF02F012000600F2A40AD0850ED76ED8
:10133000EE0ED66EF2948CB202D08C8201D08C92DA
:101340004A921100016E040E0118D8B404D0080EA0
:101350000118D8A4120001C049F01200056E8C8457
:101360000550D1EC08F0CEEC09F0040E9EEC08F02C
:101370001200056E8C940550D1EC08F0CEEC09F00B
:10138000040E9EEC08F012008C94010ED1EC08F0D3
:10139000CEEC09F0020E9EEC08F012008C861A0EBC
:0B13A000E82EFED700D08C961200084B
:020000040020DA
:08000000FFFFFFFFFFFFFFFF00
:020000040030CA
:0E00000000091F1EFF8381FF0FC00FE00F409D
:00000001FF
