:0400000007EF00F016
:100008001B825AED01F00EEF01F0D38AD388010E5E
:10001800C26E0C0EC16E880EC06E240EAC6E900EB1
:10002800AB6E080EB86ECF0EAF6E000E936E000E5C
:100038008A6E000E956E000E8C6E96809682850EE6
:10004800D56E850ED76EEE0ED66EF294F28AF28ECB
:10005800F28C020E35EC01F001C005F002C006F08A
:10006800000E086E050E076E22EC01F00A0E0E6EE9
:10007800D890063205320E2EFBD705C00BF006C00D
:100088000CF048EC01F00BC017F00CC018F00DC0D4
:1000980019F017C001F018C002F019C003F0000EE3
:1000A800046E000E056E3F0E066ED4EC00F0D8B05C
:1000B80010D0020E0F6E860E0E6E990EE82EFED729
:1000C8000E2EFCD70F2EFAD700F0630E69EC01F064
:1000D800C0D7020E0F6E860E0E6E990EE82EFED752
:1000E8000E2EFCD70F2EFAD700F0730E69EC01F034
:1000F800B0D70450D8B405D0015002100310D8A4CA
:100108000CD0000E016E000E026E000E036E12007F
:10011800042AD890033202320132000E0114066E0E
:10012800000E0214076EFE0E0314086E0650071028
:100138000810D8B40CD0ECD7042A010E0126000E02
:100148000222000E0322D890033202320132000E3E
:100158000114066E000E0214076EFF0E0314086EDB
:10016800065007100810D8B406D0E6D70406D89071
:1001780001360236033602BE03D0020E0460F6D7FB
:1001880004A0029ED8900432045003120550D8A44B
:10019800038E01C001F002C002F003C003F0120098
:1001A80003AE0FD0000E076E000E086E800E096EAB
:1001B8000150075C016E02500858026E035009583E
:1001C800036E06AE0FD0000E076E000E086E800E8E
:1001D800096E0450075C046E05500858056E0650F9
:1001E8000958066E000E011A000E021A800E031A34
:1001F800000E041A000E051A800E061A0450015C3F
:100208000550025806500358D8B002D0D8901200B2
:10021800D8801200DE0EF66E020EF76E000EF86E33
:100228000900F5CF1AF000EE10F0070EEE6AE806A6
:10023800FDE11B901B92000109EF00F00550070239
:10024800F3CF09F0F4CF0AF005500802F3500A265C
:1002580006500702F3500A2609C005F00AC006F046
:100268001200046E04C003F0D8900336D890033609
:10027800C250030B0310C26EC282C2B2FED7C3CFF4
:1002880001F0C4CF02F012000BC001F00CC002F064
:10029800036A8E0E046E000E056E7DEC00F001C040
:1002A8000BF002C00CF003C00DF012000600F2A41F
:1002B8000AD0850ED76EEE0ED66EF2948CB202D0AE
:1002C8008C8201D08C921B921100016EACA2FED7D9
:0702D80001C0ADFF12000898
:020000040020DA
:08000000FFFFFFFFFFFFFFFF00
:020000040030CA
:0E00000000091F1EFF8381FF0FC00FE00F409D
:00000001FF
