:0400000001EF3FF0DD
:107D9B00088C861A0EE82EFED700D08C9612008C1B
:107DAB0094010E0FEC3FF0CEEC3EF0020E32EC3FA6
:107DBB00F01200056E8C9405500FEC3FF0CEEC3EAC
:107DCB00F0040E32EC3FF01200056E8C8405500F60
:107DDB00EC3FF0CEEC3EF0040E32EC3FF012000123
:107DEB006E040E0118D8B404D0080E0118D8A412D2
:107DFB000001C008F012009B0EF66E7D0EF76E00B0
:107E0B000EF86E0900F5CF08F0000EF86E00016554
:107E1B00EF3FF0046E040E0818D8A417D004C0036B
:107E2B00F0F00E03168C500F0B03108C6ECEEC3E45
:107E3B00F0010E32EC3FF004C003F0033AF00E03F6
:107E4B00168C500F0B03108C6E1200080E0818D8EE
:107E5B00A4120004C08CFF1200026E23D0270E0167
:107E6B006EF50EE82EFED7012EFCD700F0120003A4
:107E7B000E016E980EE82EFED7012EFCD7B60E0023
:107E8B00D000D0E82EFCD700D000D000D01200429A
:107E9B000EE82EFED700D012001A0EE82EFED700E9
:107EAB00D012000250010AD8B4D9D7030AD8B4DFD4
:107EBB00D7010AD8B4ECD7070AD8A41200EDD7D350
:107ECB008AD388000E956E000E8C6E83900B0E0776
:107EDB006E260E066E5E0EE82EFED7062EFCD7071C
:107EEB002EFAD78382040EF5EC3EF0B2EC3FF00B8A
:107EFB000E076E260E066E5E0EE82EFED7062EFCC5
:107F0B00D7072EFAD78392480EEAEC3EF06F0EEAB3
:107F1B00EC3EF06C0EEAEC3EF0610EEAEC3EF0202B
:107F2B000EEAEC3EF06D0EEAEC3EF0750EEAEC3E1E
:107F3B00F06E0EEAEC3EF0640EEAEC3EF06F0EEAE9
:107F4B00EC3EF0C00EDFEC3EF0370EEAEC3EF03BC1
:107F5B000EEAEC3EF08382FED78C94040E0818D800
:107F6B00A404D08C500F0B300901D03F0E8C6ECE79
:107F7B00EC3EF0010E32EC3FF0040E0818D8A404CE
:107F8B00D08C500F0B300901D03F0E8C6ECEEC3ED7
:107F9B00F0030E32EC3FF0040E0818D8A404D08C7A
:107FAB00500F0B300901D03F0E8C6ECEEC3EF0041F
:107FBB000E32EC3FF0040E0818D8A411D08C500FE1
:107FCB000B20098C6ECEEC3EF0040E32EC3FF02F02
:107FDB000E0FEC3FF0CEEC3EF0040E32EC3FF0D542
:107FEB00EC3EF00F0E0FEC3FF0CEEC3EF0040E32F9
:057FFB00EC3FF0120054
:020000040020DA
:08000000FFFFFFFFFFFFFFFF00
:020000040030CA
:0E00000000091F1EFF8381FF0FC00FE00F409D
:00000001FF
