:0400000007EF00F016
:0A000800348279ED09F032EF0CF0BC
:100800000050726F796563746F20436172726F007C
:100810004D6963726F7320323032312D320053656F
:1008200020656E6369656E64650053652064657458
:1008300069656E650000000E0001606F000E616F5B
:10084000000E626F7AC063F07BC064F07CC065F01C
:1008500025EC0BF0D8B00FD07AC068F07BC069F0FF
:100860007CC06AF0800E6B6FFD0E6C6F430E6D6F77
:100870009DEC08F00ED07AC068F07BC069F07CC0B7
:100880006AF0C00E6B6F000E6C6F440E6D6F9DECC6
:1008900008F068C07AF069C07BF06AC07CF07AC06A
:1008A00060F07BC061F07CC062F0660E636F660E24
:1008B000646F3F0E656F25EC0BF0D8A006D0780E64
:1008C00000EC0DF0DEEC0CF012007AC060F07BC0A2
:1008D00061F07CC062F0000E636F000E646F3F0E2B
:1008E000656F25EC0BF0D8A004D0760E00EC0DF06F
:1008F0001200660E606F660E616FBF0E626F7AC087
:1009000063F07BC064F07CC065F025EC0BF0D8A0F0
:1009100004D0580E00EC0DF0D5D7000E606F000E1D
:10092000616FBF0E626F7AC063F07BC064F07CC001
:1009300065F025EC0BF0D8A004D0560E00EC0DF0BD
:10094000120079BFE0D077C068F078C069F079C054
:100950006AF0800E6B6FF80E6C6F430E6D6F9DEC3E
:1009600008F068C077F069C078F06AC079F077C0A5
:1009700060F078C061F079C062F0CD0E636FCC0E8C
:10098000646F3E0E656F25EC0BF0D8B004D0620E9C
:1009900000EC0DF0120077C060F078C061F079C013
:1009A00062F0850E636FEB0E646F3E0E656F25EC93
:1009B0000BF0D8B004D0630E00EC0DF0120077C03D
:1009C00060F078C061F079C062F01F0E636F050EB1
:1009D000646F3F0E656F25EC0BF0D8B004D0640E49
:1009E00000EC0DF0120077C060F078C061F079C0C3
:1009F00062F07B0E636F140E646F3F0E656F25EC23
:100A00000BF0D8B004D0650E00EC0DF0120077C0EA
:100A100060F078C061F079C062F0D70E636F230E8A
:100A2000646F3F0E656F25EC0BF0D8B004D0660EF6
:100A300000EC0DF0120077C060F078C061F079C072
:100A400062F0330E636F330E646F3F0E656F25ECFB
:100A50000BF0D8B004D0670E00EC0DF0120077C098
:100A600060F078C061F079C062F08F0E636F420E63
:100A7000646F3F0E656F25EC0BF0D8B004D0680EA4
:100A800000EC0DF0120077C060F078C061F079C022
:100A900062F0EC0E636F510E646F3F0E656F25ECD4
:100AA0000BF0D8B004D0690E00EC0DF0120077C046
:100AB00060F078C061F079C062F0480E636F610E3B
:100AC000646F3F0E656F25EC0BF0D8B004D06A0E52
:100AD00000EC0DF0120077C060F078C061F079C0D2
:100AE00062F0A40E636F700E646F3F0E656F25ECAD
:100AF0000BF0D8B004D06B0E00EC0DF012006D0EB0
:100B000000EC0DF0120077C068F078C069F079C091
:100B10006AF0400E6B6F030E6C6F440E6D6F9DECB0
:100B200008F068C077F069C078F06AC079F0CD0E3F
:100B3000606FCC0E616FBE0E626F77C063F078C0DD
:100B400064F079C065F025EC0BF0D8B004D0420E0B
:100B500000EC0DF01200850E606FEB0E616FBE0EA3
:100B6000626F77C063F078C064F079C065F025ECFF
:100B70000BF0D8B004D0430E00EC0DF012001F0EA5
:100B8000606F050E616FBF0E626F77C063F078C053
:100B900064F079C065F025EC0BF0D8B004D0440EB9
:100BA00000EC0DF012007B0E606F140E616FBF0E33
:100BB000626F77C063F078C064F079C065F025ECAF
:100BC0000BF0D8B004D0450E00EC0DF01200D70E9B
:100BD000606F230E616FBF0E626F77C063F078C0E5
:100BE00064F079C065F025EC0BF0D8B004D0460E67
:100BF00000EC0DF01200330E606F330E616FBF0E0C
:100C0000626F77C063F078C064F079C065F025EC5E
:100C10000BF0D8B004D0470E00EC0DF012008F0E90
:100C2000606F420E616FBF0E626F77C063F078C075
:100C300064F079C065F025EC0BF0D8B004D0480E14
:100C400000EC0DF01200EC0E606F510E616FBF0EE4
:100C5000626F77C063F078C064F079C065F025EC0E
:100C60000BF0D8B004D0490E00EC0DF01200480E85
:100C7000606F610E616FBF0E626F77C063F078C006
:100C800064F079C065F025EC0BF0D8B004D04A0EC2
:100C900000EC0DF01200A40E606F700E616FBF0EBD
:100CA000626F77C063F078C064F079C065F025ECBE
:100CB0000BF0D8B004D04B0E00EC0DF012004D0E2E
:100CC00000EC0DF01200D38AD388010EC26E0C0E18
:100CD000C16E880EC06E240EAC6E900EAB6E080E08
:100CE000B86ECF0EAF6E030ECA6E0C0EBD6E000E48
:100CF000CC6ECA847C0ECB6E000EBE6EF00E936E70
:100D0000000E8A6E000E956E000E8C6E9680968296
:100D1000929689969494850ED56E850ED76EEE0EBA
:100D2000D66EF294F28A9D8A9E9AF28EF28C060E0C
:100D300000017E6F130E7D6FAD0EE82EFED77D2F66
:100D4000FCD77E2FFAD700D0040EADEC0CF0D7EC18
:100D50000AF0100E0001656F4AEC0CF0C00EC7ECF3
:100D60000CF0010E0001656F4AEC0CF0150E00014D
:100D70007E6F4B0E7D6FBE0EE82EFED77D2FFCD70B
:100D80007E2FFAD700F0DEEC0CF0000E5FEC0CF0DA
:100D900060C068F061C069F088EC0CF068C085F054
:100DA00069C086F06AC087F085C077F086C078F0A9
:100DB00087C079F0C00E746F7F0E756F440E766F2A
:100DC00012EC0CF074C07FF075C080F076C081F03A
:100DD0007FC068F080C069F081C06AF0000E6B6F60
:100DE000010E6C6FC40E6D6F4FEC07F068C085F09C
:100DF00069C086F06AC087F0010E5FEC0CF060C03D
:100E000068F061C069F088EC0CF068C082F069C0DD
:100E100083F06AC084F082C077F083C078F084C029
:100E200079F0C00E746F7F0E756F440E766F12EC02
:100E30000CF074C07FF075C080F076C081F07FC088
:100E400068F080C069F081C06AF0800E6B6F030E9D
:100E50006C6FC40E6D6F4FEC07F068C082F069C014
:100E600083F06AC084F0020E00017E6FC70E7D6FB2
:100E7000880EE82EFED77D2FFCD77E2FFAD700F004
:100E800082C077F083C078F084C079F085C07AF0B2
:100E900086C07BF087C07CF01BEC04F076D76AC07C
:100EA0006EF06F6B706B69356E3701E36F816E5159
:100EB000736F6DC06EF06F6B706B6C356E3701E3E6
:100EC0006F816E51726F7351D8B40AD07251735DD5
:100ED000D8B00DD07351725D6E6F180E6E6507D06D
:100EE0006BC068F06CC069F06DC06AF0120072519E
:100EF000D8B40AD07351725DD8B00DD07251735D01
:100F00006E6F180E6E6507D068C068F069C069F032
:100F10006AC06AF01200060E716F6ABF718F6DBFF2
:100F2000718D698FFF0E6817FF0E6917000E6A1723
:100F30006C8FFF0E6B17FF0E6C17000E6D17725142
:100F4000735DD8B01BD0D8906B376C376D37720794
:100F500073517219D8B40DD0710771C06EF0070EBD
:100F60006E17D8B406D0EFD7D8906A336933683398
:100F7000732B72517319D8B41FD0F6D77351725DA9
:100F8000D8B01AD0D890683769376A377307735169
:100F90007219D8B40DD0710771C06EF0070E6E17BC
:100FA000D8B406D0EFD7D8906D336C336B33722B37
:100FB00072517319D8A4F7D771AF0CD0FF0E681B0C
:100FC000FF0E691BFF0E6A1B010E6827000E6923C6
:100FD000000E6A2371AD0CD0FF0E6B1BFF0E6C1B55
:100FE000FF0E6D1B010E6B27000E6C23000E6D2390
:100FF000000E716F68516B2769516C236A516D2324
:101000006DAF0ED0FF0E6B1BFF0E6C1BFF0E6D1B2A
:10101000010E6B27000E6C23000E6D23010E716F05
:101020006BC060F06CC061F06DC062F073C063F0C3
:1010300071C064F0D3EC09F060C068F061C069F081
:1010400062C06AF012000FC013F0146A156A0E3401
:10105000133601E314801350166E1650D8A407D02F
:10106000000E0D6E000E0E6E000E0F6E120012C0FE
:1010700013F0146A156A1134133601E31480135007
:101080001B6E1B50D8A407D0000E0D6E000E0E6E06
:10109000000E0F6E12001B507B0F16260FC01BF0A8
:1010A00012501B1A800E1B160E8E118EFF0E10167C
:1010B000FF0E1116000E1216000E176E000E186E9F
:1010C000000E196E070E1A6E0DA006D010501726CE
:1010D0001150182212501922D8900F320E320D32B0
:1010E000D8901036113612361A2EEED7090E1A6E17
:1010F0000DA006D010501726115018221250192298
:10110000D8900F320E320D32D89019321832173271
:101110001A2EEED717C001F018C002F019C003F064
:1011200016C004F01BC005F02AEC0AF001C00DF057
:1011300002C00EF003C00FF012006AC06EF06F6BB9
:10114000706B69356E3701E36F816E51756F755144
:10115000D8A407D0000E686F000E696F000E6A6F8A
:1011600012006DC06EF06F6B706B6C356E3701E303
:101170006F816E51766F7651D8A407D0000E686FDC
:10118000000E696F000E6A6F1200000E726F000E83
:10119000736F000E746F7651890F755F6AC076F0B9
:1011A0006D51761B800E7617698FFF0E6817FF0E44
:1011B0006917000E6A176C8FFF0E6B17FF0E6C1706
:1011C000000E6D17180E716FD89072377337743721
:1011D0006B51685D6C5169596D516A59D8A007D03F
:1011E0006B51685F6C51695B6D516A5B7281D8901D
:1011F000683769376A37712FE7D772C060F073C0FC
:1012000061F074C062F075C063F076C064F0D3EC36
:1012100009F060C068F061C069F062C06AF0120055
:101220001EC020F0216A226A1D34203601E321808D
:1012300020502A6E2A50D8A409D0000E1C6E000E31
:101240001D6E000E1E6E000E1F6E1200170E206E19
:101250001CC021F01DC022F01EC023F02028246EE7
:1012600004D0D890233222322132242EFAD72150B2
:10127000256E1D8EFF0E1C16FF0E1D16000E1E166F
:101280001C50266E1D50276E1E50286E296A8E0E29
:101290002A5E2AAE0DD02A50800A8F0FD8A0CDD753
:1012A000D89029322832273226322A3EF9D70DD05B
:1012B000170E2A6407D0C1D7D8902636273628368D
:1012C00029362A062A50D8A4F7D72550D8B408D0F2
:1012D000291E281E271E266C000E272228222922BE
:1012E00026C01CF027C01DF028C01EF029C01FF02A
:1012F00012000600F6CF2EF0F7CF2FF0F8CF30F027
:10130000F5CF31F09EAA07D00CEC0DF0326E3250C2
:1013100081EC0AF09E9AF2A035D081BE1ED0410E1B
:1013200006EC0DF0E8EC0CF01A0E2C6EF80EE82E20
:10133000FED72C2EFCD700D02A0E066E74EC0CF0D3
:10134000030E2D6E080E2C6E770EE82EFED72C2E77
:10135000FCD72D2EFAD700F014D081BC12D0610E2C
:1013600006EC0DF0E8EC0CF01A0E2C6EF80EE82EE0
:10137000FED72C2EFCD700D01E0E066E74EC0CF09F
:10138000DFD7F290F2A405D0850ED76EEE0ED66EA2
:10139000F29431C0F5FF30C0F8FF2FC0F7FF2EC028
:1013A000F6FF349211006351D8B405D06051611139
:1013B0006211D8A40CD0000E606F000E616F000E99
:1013C000626F1200632BD890623361336033000E7A
:1013D0006015656F000E6115666FFE0E6215676F12
:1013E000655166116711D8B40CD0ECD7632B010E90
:1013F0006027000E6123000E6223D89062336133B0
:101400006033000E6015656F000E6115666FFF0E8C
:101410006215676F655166116711D8B406D0E6D7BB
:101420006307D89060376137623761BF03D0020E1F
:101430006361F6D763A1619FD890633363516213F0
:101440006451D8A4628F60C060F061C061F062C076
:1014500062F012000450D8B405D0015002100310FD
:10146000D8A40CD0000E016E000E026E000E036EAA
:101470001200042AD890033202320132000E011405
:10148000066E000E0214076EFE0E0314086E065060
:1014900007100810D8B40CD0ECD7042A010E01268E
:1014A000000E0222000E0322D890033202320132D3
:1014B000000E0114066E000E0214076EFF0E0314D8
:1014C000086E065007100810D8B406D0E6D70406F8
:1014D000D89001360236033602BE03D0020E0460F5
:1014E000F6D704A0029ED89004320450031205508F
:1014F000D8A4038E01C001F002C002F003C003F0C3
:1015000012002B6E46D08C808C82CBCFBEFF120097
:101510008C908C92000EBE6E12008C808C92330EDA
:10152000106E330E116E3F0E126ECB509BEC0CF012
:1015300009C00DF00AC00EF00BC00FF023EC08F04C
:101540000DC01CF00EC01DF00FC01EF010EC09F015
:101550001C50BE6E12008C908C82330E106E330EB7
:10156000116E3F0E126ECB509BEC0CF009C00DF0CB
:101570000AC00EF00BC00FF023EC08F00DC01CF0F9
:101580000EC01DF00FC01EF010EC09F01C50BE6E16
:1015900012002B50520AD8B4BBD7010AD8B4DBD7FB
:1015A000210AD8B4B0D7010AD8A41200B6D78C94B7
:1015B000040E3318D8A404D08C500F0B300901D07E
:1015C0003F0E8C6EF2EC0CF0010E5FEC0BF0040E93
:1015D0003318D8A404D08C500F0B300901D03F0E23
:1015E0008C6EF2EC0CF0030E5FEC0BF0040E331873
:1015F000D8A404D08C500F0B300901D03F0E8C6E54
:10160000F2EC0CF0040E5FEC0BF0040E3318D8A4CF
:1016100011D08C500F0B20098C6EF2EC0CF0040EE4
:101620005FEC0BF02F0EC9EC0BF0F2EC0CF0040E9B
:101630005FEC0BF0DEEC0CF00F0EC9EC0BF0F2ECF3
:101640000CF0040E5FEC0BF0120062AF0FD0000E36
:10165000666F000E676F800E686F6051665D606F29
:1016600061516759616F62516859626F65AF0FD000
:10167000000E666F000E676F800E686F6351665DC7
:10168000636F64516759646F65516859656F000EE7
:10169000601B000E611B800E621B000E631B000EA0
:1016A000641B800E651B6351605D64516159655117
:1016B0006259D8B002D0D8901200D8801200000130
:1016C000616F25D0270E0001606FF50EE82EFED762
:1016D000602FFCD71200030E0001606F970EE82EFA
:1016E000FED7602FFCD700D0B60E00D000D0E82E79
:1016F000FCD700D000D000D01200420EE82EFED75A
:1017000000D012001A0EE82EFED700D01200000101
:101710006151010AD8B4D6D7030AD8B4DCD7010A7C
:10172000D8B4EBD7070AD8A41200ECD7026E23D0A6
:10173000270E016EF50EE82EFED7012EFCD700F025
:101740001200030E016E980EE82EFED7012EFCD774
:10175000B60E00D000D0E82EFCD700D000D000D0CC
:101760001200420EE82EFED700D012001A0EE82E0C
:10177000FED700D012000250010AD8B4D9D7030A0C
:10178000D8B4DFD7010AD8B4ECD7070AD8A412001E
:10179000EDD70001636F040E3318D8A419D063C0CD
:1017A00062F0F00E000162178C500F0B62118C6E0C
:1017B000F2EC0CF0010E5FEC0BF063C062F0000184
:1017C000623BF00E62178C500F0B62118C6E120090
:1017D000080E3318D8A4120063C08CFF1200046EE8
:1017E000040E3318D8A417D004C003F0F00E03166B
:1017F0008C500F0B03108C6EF9EC0CF0010E96EC74
:101800000BF004C003F0033AF00E03168C500F0BDC
:1018100003108C6E1200080E3318D8A4120004C0F6
:101820008CFF1200775178117911D8B406D0000ED0
:10183000771B000E781B800E791B74C068F075C092
:1018400069F076C06AF077C06BF078C06CF079C050
:101850006DF04FEC07F068C074F069C075F06AC0B5
:1018600076F01200200EF66E1A0EF76E000EF86E6D
:101870000900F5CF33F00001876B866B856B846BB5
:10188000836B826B326A34903492000EF86E0001E2
:1018900063EF06F00AD065C0F6FF080EF76E080089
:1018A000F550BBEC0CF00001652B65C0F6FF080E8F
:1018B000F76E0800F5500009D8B41200ECD700010B
:1018C000636F63C062F00001D8906237D8906237CE
:1018D000C250030B6211C26EC282C2B2FED7C3CF26
:1018E00060F0C4CF61F0120009D006C0F6FF080E08
:1018F000F76E0800F550D3EC0CF0062A06C0F6FF90
:10190000080EF76E0800F5500009D8B41200EDD7A4
:1019100068C060F069C061F00001626B8E0E636F99
:10192000000E646FD3EC09F060C068F061C069F02C
:1019300062C06AF012000C6E0C50016E026A036AFB
:101940008E0E046E000E056E2AEC0AF001C009F03E
:1019500002C00AF003C00BF012000001606F040E19
:1019600000016019D8B404D0080E6019D8A4120080
:1019700060C033F01200646F8C8400016451C9ECC4
:101980000BF0F2EC0CF0040E5FEC0BF01200646F45
:101990008C9400016451C9EC0BF0F2EC0CF0040ED5
:1019A0005FEC0BF01200056E8C840550EFEC0BF031
:1019B000F9EC0CF0040E96EC0BF012008C94010E76
:1019C000C9EC0BF0F2EC0CF0020E5FEC0BF0120025
:1019D0008C94010EEFEC0BF0F9EC0CF0020E96EC8F
:1019E0000BF012008C861A0EE82EFED700D08C96D3
:1019F00012008C861A0EE82EFED700D08C961200AC
:101A0000606FACA2FED760C0ADFF1200016EACA249
:101A1000FED701C0ADFF12009EAAFED7AE50120045
:011A200008BD
:020000040020DA
:08000000FFFFFFFFFFFFFFFF00
:020000040030CA
:0E00000000091F1EFF8381FF0FC00FE00F409D
:00000001FF
