:0400000007EF00F016
:0A00080035820AED0BF014EF0DF045
:10080000004D6963726F7320323032312D32000A2D
:100810005465726D696EF32E200A004C61622036B9
:1008200000001C6E4ED292C095F093C096F094C01A
:1008300097F0000E0001926F000E936F000E946F00
:10084000120092C095F093C096F094C097F0000EFD
:100850000001926F000E936F000E946F120092C011
:1008600095F093C096F094C097F0CD0E0001926F72
:10087000CC0E936F3D0E946F120092C095F093C012
:1008800096F094C097F0CD0E0001926FCC0E936F4E
:100890003D0E946F120092C095F093C096F094C0F4
:1008A00097F0CD0E0001926F4C0E936F3E0E946F39
:1008B000120092C095F093C096F094C097F0CD0EC0
:1008C0000001926F4C0E936F3E0E946F120092C017
:1008D00095F093C096F094C097F09A0E0001926F35
:1008E000990E936F3E0E946F120092C095F093C0D4
:1008F00096F094C097F09A0E0001926F990E936F44
:100900003E0E946F120092C095F093C096F094C082
:1009100097F0CD0E0001926FCC0E936F3E0E946F48
:10092000120092C095F093C096F094C097F0CD0E4F
:100930000001926FCC0E936F3E0E946F120092C026
:1009400095F093C096F094C097F0000E0001926F5E
:10095000000E936F3F0E946F120092C095F093C0FB
:1009600096F094C097F0000E0001926F000E936F06
:100970003F0E946F120092C095F093C096F094C011
:1009800097F09A0E0001926F190E936F3F0E946FBD
:10099000120092C095F093C096F094C097F09A0E12
:1009A0000001926F190E936F3F0E946F120092C068
:1009B00095F093C096F094C097F0330E0001926FBB
:1009C000330E936F3F0E946F120092C095F093C058
:1009D00096F094C097F0330E0001926F330E936F30
:1009E0003F0E946F120092C095F093C096F094C0A1
:1009F00097F0CD0E0001926F4C0E936F3F0E946FE7
:100A0000120092C095F093C096F094C097F0CD0E6E
:100A10000001926F4C0E936F3F0E946F120092C0C4
:100A200095F093C096F094C097F0660E0001926F17
:100A3000660E936F3F0E946F120092C095F093C0B4
:100A400096F094C097F0660E0001926F660E936F59
:100A50003F0E946F120092C095F093C096F094C030
:100A600097F0000E0001926F800E936F3F0E946F0F
:100A7000120092C095F093C096F094C097F0000ECB
:100A80000001926F800E936F3F0E946F120092C020
:100A90009AF093C09BF094C09CF0000E0001926FFE
:100AA000000E936F000E946F010EA06F120092C0A3
:100AB0009AF093C09BF094C09CF0000E0001926FDE
:100AC000000E936F000E946F010EA06F120095C080
:100AD0000DF096C00EF097C00FF0000E106E000ED5
:100AE000116E3F0E126E4AEC09F00DC092F00EC06E
:100AF00093F00FC094F0120095C00DF096C00EF068
:100B000097C00FF0000E106E000E116E3F0E126EA9
:100B10004AEC09F00DC092F00EC093F00FC094F0B3
:100B20001200000E016E000E026E3F0E036E95C0A5
:100B300004F096C005F097C006F067EC0CF0D8A062
:100B4000120095C00DF096C00EF097C00FF0000E89
:100B5000106E000E116E400E126E4AEC09F00DC0C0
:100B600092F00EC093F00FC094F01200000E016ED0
:100B7000000E026E3F0E036E95C004F096C005F0A5
:100B800097C006F067EC0CF0D8A0120095C00DF0ED
:100B900096C00EF097C00FF0000E106E000E116E92
:100BA000400E126E4AEC09F00DC092F00EC093F0A8
:100BB0000FC094F012008DA202D08DA012008DA261
:100BC0008DA017D00001925193119411D8B411D077
:100BD00092C09AF093C09BF094C09CF0000E926F6C
:100BE000000E936F000E946F010EA06F010EA16FA7
:100BF0001200020E8D6E12008DA202D08DA0120086
:100C00008DA28DA0F6D70001925193119411D8B402
:100C1000F0D792C09AF093C09BF094C09CF0000E65
:100C2000926F000E936F000E946F010EA06F010E75
:100C3000A16F12008DB202D08DB012008DB28DB0B6
:100C400017D00001925193119411D8B411D092C0D1
:100C50009AF093C09BF094C09CF0000E926F000E2F
:100C6000936F000E946F010EA06F010EA16F120022
:100C7000010E8D6E12008DB202D08DB012008DB2B9
:100C80008DB0F6D70001925193119411D8B4F0D7DA
:100C900092C09AF093C09BF094C09CF0000E926FAB
:100CA000000E936F000E946F010EA06F010EA16FE6
:100CB0001200040E0001986F12000A0E0001986FD6
:100CC00012001C50410AD8B4BCD5030AD8B4D5D5FB
:100CD000010AD8B4EED5070AD8B407D6010AD8B4A9
:100CE00020D6030AD8B439D6010AD8B452D60F0A8E
:100CF000D8B46BD6010AD8B484D6030AD8B49DD62A
:100D0000010AD8B4B6D6070AD8B4D1D6010AD8B4E5
:100D1000F3D6030AD8B42AD7190AD8B46DD70F0A64
:100D2000D8B4A9D7010AD8B4C4D7030AD8B4C5D750
:100D30003B0AD8B478D5030AD8B491D5010AD8B4FF
:100D4000AAD5070AD8B4C3D5010AD8B4DCD5030A9A
:100D5000D8B4F5D5010AD8B40ED60F0AD8B427D620
:100D6000010AD8B440D6030AD8B459D6010AD8B477
:100D700072D6070AD8B48BD6010AD8B4A8D6030A0B
:100D8000D8B4CFD6190AD8B416D70F0AD8B452D7C8
:100D9000010AD8B48ED7030AD8A412008ED7000E49
:100DA000956E000E8C6E9492949496909692000E8E
:100DB0008D6E0F0EC16EF90ECB6E000EBE6E000E64
:100DC000CA6E0C0EBD6E000ECC6ECA84240EAC6EC4
:100DD000900EAB6E080EB86E190EAF6EA10ECD6EF2
:100DE0000B0ECF6EDC0ECE6E9E909D809E9A9D9ACD
:100DF000F28EF28CF290F286000E316E000E00013F
:100E0000A36F000E926F000E936F000E946F000E92
:100E1000956F000E966F000E976F000E8F6F000E8D
:100E2000906F000E916F000EA06F000EA16F010E6B
:100E3000996F040E986FA30E0001896F550EE82E6E
:100E4000FED7892FFCD7040E97EC0DF019EC0CF0AF
:100E5000010E0001646F45EC0DF0C00E8BEC0DF03F
:100E60001B0E0001646F45EC0DF0030E00018A6F4C
:100E70008A0E896F550EE82EFED7892FFCD78A2F50
:100E8000FAD700D0AFEC0DF0ABD098519903F3CF67
:100E9000A3F095C077F096C078F097C079F092C033
:100EA00074F093C075F094C076F0F4EC0CF074C05C
:100EB0007AF075C07BF076C07CF0A3515AEC0DF04F
:100EC00068C07DF069C07EF06AC07FF0C4EC09F0B4
:100ED0007AC09DF07BC09EF07CC09FF0000EA26F98
:100EE0007BD0A251896F8A6BFF0E8B6FFF0E8C6FC8
:100EF000A3518D6F8E6B8B518D278C518E23895111
:100F00008D192CE18A518E19D8A428D092C08FF067
:100F100093C090F094C091F092C095F093C096F079
:100F200094C097F0A005D8A414D09AC092F09BC0AA
:100F300093F09CC094F0000EA06FA105D8A409D036
:100F40008DB28DB002D0010E01D0020E8D6E000E5A
:100F5000A16F0F0E606F30EC0DF014D08FC068F0F1
:100F600090C069F091C06AF09DC06BF09EC06CF0BB
:100F70009FC06DF0FCEC07F068C08FF069C090F086
:100F80006AC091F08FC06EF090C06FF091C070F0A9
:100F9000CB505AEC0DF068C06BF069C06CF06AC0C1
:100FA0006DF0D0EC08F06BC07AF06CC07BF06DC0D7
:100FB0007CF037EC0AF07A51BE6E020E00018A6FA7
:100FC000450E896FA90EE82EFED7892FFCD78A2FF0
:100FD000FAD700D00001A22BA351A25DD8A081D7DF
:100FE000000192518F1907E19351901904E1945136
:100FF0009119D8B4F5D749D76AC06EF06F6B706B92
:1010000069356E3701E36F816E51736F6DC06EF09D
:101010006F6B706B6C356E3701E36F816E51726F61
:101020007351D8B40AD07251735DD8B00DD07351DA
:10103000725D6E6F180E6E6507D06BC068F06CC085
:1010400069F06DC06AF012007251D8B40AD07351C1
:10105000725DD8B00DD07251735D6E6F180E6E65F3
:1010600007D068C068F069C069F06AC06AF0120011
:10107000060E716F6ABF718F6DBF718D698FFF0E24
:101080006817FF0E6917000E6A176C8FFF0E6B173B
:10109000FF0E6C17000E6D177251735DD8B01BD028
:1010A000D8906B376C376D37720773517219D8B49B
:1010B0000DD0710771C06EF0070E6E17D8B406D050
:1010C000EFD7D8906A3369336833732B7251731931
:1010D000D8B41FD0F6D77351725DD8B01AD0D8905B
:1010E000683769376A37730773517219D8B40DD0EE
:1010F000710771C06EF0070E6E17D8B406D0EFD727
:10110000D8906D336C336B33722B72517319D8A432
:10111000F7D771AF0CD0FF0E681BFF0E691BFF0ED7
:101120006A1B010E6827000E6923000E6A2371AD49
:101130000CD0FF0E6B1BFF0E6C1BFF0E6D1B010E08
:101140006B27000E6C23000E6D23000E716F68512B
:101150006B2769516C236A516D236DAF0ED0FF0E62
:101160006B1BFF0E6C1BFF0E6D1B010E6B27000E21
:101170006C23000E6D23010E716F6BC060F06CC0AC
:1011800061F06DC062F073C063F071C064F06BEC2D
:101190000BF060C068F061C069F062C06AF01200D4
:1011A0006DC071F0726B736B6C35713701E37281D6
:1011B0007151746F7451D8A407D0000E6B6F000E7C
:1011C0006C6F000E6D6F120070C071F0726B736BFC
:1011D0006F35713701E372817151796F7951D8A4FC
:1011E00007D0000E6B6F000E6C6F000E6D6F12005B
:1011F00079517B0F74276DC079F07051791B800E87
:1012000079176C8F6F8FFF0E6E17FF0E6F17000E22
:101210007017000E756F000E766F000E776F070E59
:10122000786F6BA106D06E5175276F517623705180
:101230007723D8906D336C336B33D8906E376F371C
:101240007037782FEED7090E786F6BA106D06E51EC
:1012500075276F51762370517723D8906D336C3397
:101260006B33D890773376337533782FEED775C0DC
:1012700060F076C061F077C062F074C063F079C04E
:1012800064F06BEC0BF060C06BF061C06CF062C09E
:101290006DF012000FC013F0146A156A0E34133685
:1012A00001E314801350166E1650D8A407D0000E18
:1012B0000D6E000E0E6E000E0F6E120012C013F0B7
:1012C000146A156A1134133601E3148013501B6E2F
:1012D0001B50D8A407D0000E0D6E000E0E6E000E2F
:1012E0000F6E12001B507B0F16260FC01BF0125002
:1012F0001B1A800E1B160E8E118EFF0E1016FF0E7F
:101300001116000E1216000E176E000E186E000E4B
:10131000196E070E1A6E0DA006D010501726115028
:10132000182212501922D8900F320E320D32D89056
:101330001036113612361A2EEED7090E1A6E0DA07F
:1013400006D0105017261150182212501922D8908A
:101350000F320E320D32D8901932183217321A2E3F
:10136000EED717C001F018C002F019C003F016C084
:1013700004F01BC005F0C2EC0BF001C00DF002C080
:101380000EF003C00FF012007CC080F0816B826B06
:101390007B35803701E381818051876F8751D8A4E5
:1013A00007D0000E7A6F000E7B6F000E7C6F12006C
:1013B0007FC080F0816B826B7E35803701E3818155
:1013C0008051886F8851D8A407D0000E7A6F000E24
:1013D0007B6F000E7C6F1200000E846F000E856F15
:1013E000000E866F8851890F875F7CC088F07F511F
:1013F000881B800E88177B8FFF0E7A17FF0E7B17D6
:10140000000E7C177E8FFF0E7D17FF0E7E17000EDD
:101410007F17180E836FD8908437853786377D51B4
:101420007A5D7E517B597F517C59D8A007D07D5180
:101430007A5F7E517B5B7F517C5B8481D8907A3769
:101440007B377C37832FE7D784C060F085C061F09D
:1014500086C062F087C063F088C064F06BEC0BF06C
:1014600060C07AF061C07BF062C07CF012007CC08A
:101470007EF07F6B806B7B357E3701E37F817E5111
:10148000886F8851D8A409D0000E7A6F000E7B6F48
:10149000000E7C6F000E7D6F1200170E7E6F7AC0FB
:1014A0007FF07BC080F07CC081F07E29826F04D009
:1014B000D890813380337F33822FFAD700017F5158
:1014C000836F7B8FFF0E7A17FF0E7B17000E7C1742
:1014D0007A51846F7B51856F7C51866F876B8E0E3E
:1014E000885F88AF0DD08851800A8F0FD8A0CCD7E5
:1014F000D8908733863385338433883FF9D70DD02E
:10150000170E886507D0C0D7D890843785378637BF
:10151000873788078851D8A4F7D78351D8B408D023
:10152000871F861F851F846D000E852386238723D2
:1015300084C07AF085C07BF086C07CF087C07DF0E7
:1015400012001EC020F0216A226A1D34203601E3F9
:10155000218020502A6E2A50D8A409D0000E1C6E7B
:10156000000E1D6E000E1E6E000E1F6E1200170E76
:10157000206E1CC021F01DC022F01EC023F02028C8
:10158000246E04D0D890233222322132242EFAD76E
:101590002150256E1D8EFF0E1C16FF0E1D16000E0F
:1015A0001E161C50266E1D50276E1E50286E296A6E
:1015B0008E0E2A5E2AAE0DD02A50800A8F0FD8A038
:1015C000CDD7D89029322832273226322A3EF9D771
:1015D0000DD0170E2A6407D0C1D7D89026362736EB
:1015E000283629362A062A50D8A4F7D72550D8B449
:1015F00008D0291E281E271E266C000E272228220E
:10160000292226C01CF027C01DF028C01EF029C0CA
:101610001FF0120006009EAA03D0A3EC0DF09E9AC4
:10162000F2A04BD081BE48D03104D8A406D09D9AF8
:10163000000E8D6E000E316E3FD09D8A010E316E10
:10164000020E8D6E000E0001956F000E966F000E5B
:10165000976F000E8F6F000E906F000E916F000E4F
:10166000926F000E936F000E946F000E9A6F000E33
:101670009B6F000E9C6F000EA06F000EA16F000EFE
:10168000A36F8FC010F090C011F091C012F0CB503A
:101690006DEC0DF009C00DF00AC00EF00BC00FF09C
:1016A0004AEC09F00DC01CF00EC01DF00FC01EF07A
:1016B000A1EC0AF01C50BE6EF2909EA00AD00B0E58
:1016C000CF6EDC0ECE6E9E908CB202D08C8201D09A
:1016D0008C92359211006351D8B405D060516111DC
:1016E0006211D8A40CD0000E606F000E616F000E66
:1016F000626F1200632BD890623361336033000E47
:101700006015656F000E6115666FFE0E6215676FDE
:10171000655166116711D8B40CD0ECD7632B010E5C
:101720006027000E6123000E6223D890623361337C
:101730006033000E6015656F000E6115666FFF0E59
:101740006215676F655166116711D8B406D0E6D788
:101750006307D89060376137623761BF03D0020EEC
:101760006361F6D763A1619FD890633363516213BD
:101770006451D8A4628F60C060F061C061F062C043
:1017800062F012000450D8B405D0015002100310CA
:10179000D8A40CD0000E016E000E026E000E036E77
:1017A0001200042AD890033202320132000E0114D2
:1017B000066E000E0214076EFE0E0314086E06502D
:1017C00007100810D8B40CD0ECD7042A010E01265B
:1017D000000E0222000E0322D890033202320132A0
:1017E000000E0114066E000E0214076EFF0E0314A5
:1017F000086E065007100810D8B406D0E6D70406C5
:10180000D89001360236033602BE03D0020E0460C1
:10181000F6D704A0029ED89004320450031205505B
:10182000D8A4038E01C001F002C002F003C003F08F
:1018300012008C94040E3418D8A404D08C500F0BD2
:10184000300901D03F0E8C6EB9EC0DF0010EA1EC09
:101850000CF0040E3418D8A404D08C500F0B3009AF
:1018600001D03F0E8C6EB9EC0DF0030EA1EC0CF024
:10187000040E3418D8A404D08C500F0B300901D0BA
:101880003F0E8C6EB9EC0DF0040EA1EC0CF0040EC2
:101890003418D8A411D08C500F0B20098C6EB9ECE1
:1018A0000DF0040EA1EC0CF02F0ECEEC0CF0B9EC08
:1018B0000DF0040EA1EC0CF0AFEC0DF00F0ECEEC21
:1018C0000CF0B9EC0DF0040EA1EC0CF0120003AE1C
:1018D0000FD0000E076E000E086E800E096E0150CC
:1018E000075C016E02500858026E03500958036EDF
:1018F00006AE0FD0000E076E000E086E800E096E49
:101900000450075C046E05500858056E06500958CF
:10191000066E000E011A000E021A800E031A000E47
:10192000041A000E051A800E061A0450015C0550B8
:10193000025806500358D8B002D0D8901200D88070
:1019400012000001606F1BD0050E2B6EDE0EE82E1C
:10195000FED72B2EFCD71200530EE82EFED700F038
:10196000350EE82EFED700F01200080EE82EFED746
:1019700000F01200030EE82EFED700F01200000166
:101980006051010AD8B4E0D7030AD8B4E5D7010AF8
:10199000D8B4EBD7070AD8A41200ECD70001626FC5
:1019A000040E3418D8A419D062C061F0F00E000102
:1019B00061178C500F0B61118C6EB9EC0DF0010E9C
:1019C000A1EC0CF062C061F00001613BF00E611708
:1019D0008C500F0B61118C6E1200080E3418D8A4B5
:1019E000120062C08CFF1200775178117911D8B4BF
:1019F00006D0000E771B000E781B800E791B74C07A
:101A000068F075C069F076C06AF077C06BF078C096
:101A10006CF079C06DF0FCEC07F068C074F069C040
:101A200075F06AC076F01200980EF66E1B0EF76E17
:101A3000000EF86E0900F5CF34F000EE9AF00A0EB1
:101A4000EE6AE806FDE100EE2CF0080EEE6AE8060C
:101A5000FDE135903592000EF86E0001CFEF06F0F3
:101A60000AD060C0F6FF080EF76E0800F550C0EC13
:101A70000DF00001602B60C0F6FF080EF76E080045
:101A8000F5500009D8B41200ECD70AD064C0F6FFB4
:101A9000080EF76E0800F5507FEC0DF00001642B86
:101AA00064C0F6FF080EF76E0800F5500009D8B4C0
:101AB0001200ECD72B6E2B500001606F616B626BD4
:101AC0008E0E636F000E646F6BEC0BF060C068F0FD
:101AD00061C069F062C06AF012000C6E0C50016EB9
:101AE000026A036A8E0E046E000E056EC2EC0BF0E5
:101AF00001C009F002C00AF003C00BF01200636FCE
:101B00008C8400016351CEEC0CF0B9EC0DF0040EA6
:101B1000A1EC0CF01200636F8C9400016351CEECC9
:101B20000CF0B9EC0DF0040EA1EC0CF012002B6ED1
:101B3000040E2B18D8B404D0080E2B18D8A4120009
:101B40002BC034F012009EAAFED7AE50C6EC0DF0AA
:101B50003104D8A41200AE5011EC04F012008C94A1
:101B6000010ECEEC0CF0B9EC0DF0020EA1EC0CF075
:101B700012008C86030EE82EFED700F08C96120021
:101B80002B6EACA2FED72BC0ADFF1200016EACA233
:091B9000FED701C0ADFF120008F0
:020000040020DA
:08000000FFFFFFFFFFFFFFFF00
:020000040030CA
:0E00000000091F1EFF8381FF0FC00FE00F409D
:00000001FF
