:0400000007EF00F016
:0A0008002282DAED06F077EF06F031
:10080000004E6920646574656374612063616D6284
:10081000696F005369206465746563746120636166
:100820006D62696F004D6963726F732032303231CF
:0B0830002D32005072756562610000FF
:10083C00D38AD388010EC26E0C0EC16E880EC06EA8
:10084C00240EAC6E900EAB6E080EB86ECF0EAF6E63
:10085C00000E936E000E8A6E000E956E000E8C6E5E
:10086C009680968292968996850ED56E850ED76E59
:10087C00EE0ED66EF294F28AF28EF28C060E196E91
:10088C00130E186EAE0EE82EFED7182EFCD7192EAE
:10089C00FAD7040EEBEC06F0B7EC05F0250E066E5D
:1008AC00A1EC06F0C00E02EC07F0330E066EA1ECC4
:1008BC0006F0150E196E4B0E186EBE0EE82EFED7F6
:1008CC00182EFCD7192EFAD700D00DEC07F01EEC21
:1008DC0007F0206E630E2018D8A406D08986130E5C
:1008EC00066EA1EC06F005D08996010E066EA1EC01
:1008FC0006F0020E196E860E186E990EE82EFED7B3
:10090C00182EFCD7192EFAD700F0000EB5EC06F015
:10091C000150F108096E0250D8A0E82A01080A6EAD
:10092C00C8EC06F009C01DF00AC01EF00BC01FF089
:10093C00010EB5EC06F00150FB08096E0250D8A070
:10094C00E82A01080A6EC8EC06F009C01AF00AC0C1
:10095C001BF00BC01CF00DEC07F00DEC07F01FAEFC
:10096C001DD02D0EF7EC06F01DC001F01EC002F0DC
:10097C001FC003F0F7EC04F001C010F002C011F03E
:10098C008DEC06F010C014F011C015F05BEC06F005
:10099C0014C01DF015C01EF016C01FF0C00E02ECE6
:1009AC0007F01CAE94D72D0EF7EC06F01AC001F030
:1009BC001BC002F01CC003F0F7EC04F001C010F0F7
:1009CC0002C011F08DEC06F010C014F011C015F03F
:1009DC005BEC06F014C01AF015C01BF016C01CF02E
:1009EC0076D703C005F0066A076A0234053601E3C0
:1009FC00068005500F6E0F50D8A409D0000E016E62
:100A0C00000E026E000E036E000E046E1200170E26
:100A1C00056E01C006F002C007F003C008F00528FF
:100A2C00096E04D0D890083207320632092EFAD754
:100A3C0006500A6E028EFF0E0116FF0E0216000EF5
:100A4C00031601500B6E02500C6E03500D6E0E6AA5
:100A5C008E0E0F5E0FAE0DD00F50800A8F0FD8A0E8
:100A6C00CDD7D8900E320D320C320B320F3EF9D757
:100A7C000DD0170E0F6407D0C1D7D8900B360C369B
:100A8C000D360E360F060F50D8A4F7D70A50D8B42F
:100A9C0008D00E1E0D1E0C1E0B6C000E0C220D220F
:100AAC000E220BC001F00CC002F00DC003F00EC002
:100ABC0004F012000450D8B405D0015002100310F9
:100ACC00D8A40CD0000E016E000E026E000E036E48
:100ADC001200042AD890033202320132000E0114A3
:100AEC00066E000E0214076EFE0E0314086E0650FE
:100AFC0007100810D8B40CD0ECD7042A010E01262C
:100B0C00000E0222000E0322D89003320232013270
:100B1C00000E0114066E000E0214076EFF0E031475
:100B2C00086E065007100810D8B406D0E6D7040695
:100B3C00D89001360236033602BE03D0020E046092
:100B4C00F6D704A0029ED89004320450031205502C
:100B5C00D8A4038E01C001F002C002F003C003F060
:100B6C0012008C94040E2118D8A404D08C500F0BB6
:100B7C00300901D03F0E8C6E17EC07F0010E05EC1E
:100B8C0006F0040E2118D8A404D08C500F0B300999
:100B9C0001D03F0E8C6E17EC07F0030E05EC06F03F
:100BAC00040E2118D8A404D08C500F0B300901D09E
:100BBC003F0E8C6E17EC07F0040E05EC06F0040EDD
:100BCC002118D8A411D08C500F0B20098C6E17EC67
:100BDC0007F0040E05EC06F02F0E38EC06F017ECBF
:100BEC0007F0040E05EC06F00DEC07F00F0E38ECD8
:100BFC0006F017EC07F0040E05EC06F01200026E7E
:100C0C0023D0270E016EF50EE82EFED7012EFCD751
:100C1C0000F01200030E016E980EE82EFED7012E86
:100C2C00FCD7B60E00D000D0E82EFCD700D000D0F8
:100C3C0000D01200420EE82EFED700D012001A0E81
:100C4C00E82EFED700D012000250010AD8B4D9D732
:100C5C00030AD8B4DFD7010AD8B4ECD7070AD8A452
:100C6C001200EDD7046E040E2118D8A417D004C0BE
:100C7C0003F0F00E03168C500F0B03108C6E17EC58
:100C8C0007F0010E05EC06F004C003F0033AF00E79
:100C9C0003168C500F0B03108C6E1200080E2118CB
:100CAC00D8A4120004C08CFF1200000E176E15AEF3
:100CBC0006D0146C151ED8B0152A010E176E14C070
:100CCC0001F015C002F0036A8E0E046E17C005F019
:100CDC0060EC05F001C014F002C015F003C016F072
:100CEC001200440EF66E0E0EF76E000EF86E090032
:100CFC00F5CF21F000EE1AF0070EEE6AE806FDE1E2
:100D0C0022902292000EF86E00011EEF04F011AE3C
:100D1C000DD010C012F011C013F0121E131E124A87
:100D2C00132A12C010F013C011F0120010C010F0F2
:100D3C0011C011F0120009D006C0F6FF080EF76EB4
:100D4C000800F550F7EC06F0062A06C0F6FF080E70
:100D5C00F76E0800F5500009D8B41200EDD7046EF8
:100D6C0004C003F0D8900336D8900336C250030B5E
:100D7C000310C26EC282C2B2FED7C3CF01F0C4CF81
:100D8C0002F0120009C001F00AC002F0036A8E0ED4
:100D9C00046E000E056E60EC05F001C009F002C097
:100DAC000AF003C00BF0120006009EBA9E9AF2A441
:100DBC000AD0850ED76EEE0ED66EF2948CB202D09F
:100DCC008C8201D08C9222921100016E040E0118BB
:100DDC00D8B404D0080E0118D8A4120001C021F018
:100DEC001200056E8C84055038EC06F017EC07F0F9
:100DFC00040E05EC06F01200056E8C94055038ECD0
:100E0C0006F017EC07F0040E05EC06F012008C94BB
:100E1C00010E38EC06F017EC07F0020E05EC06F0AC
:100E2C0012008C861A0EE82EFED700D08C9612007B
:090E3C009EAAFED7AE5012000878
:020000040020DA
:08000000FFFFFFFFFFFFFFFF00
:020000040030CA
:0E00000000091F1EFF8381FF0FC00FE00F409D
:00000001FF
