:0400000007EF00F016
:100008003C8282ED0AF057EF0AF02B6E3A04D8B41E
:1000180048EF07F0610E2B18D8A4120048EF07F03C
:10002800000E2C6E000E2D6E000E2E6E2CC010F0E1
:100038002DC011F02EC012F0CB50BCEC0AF009C054
:100048000DF00AC00EF00BC00FF08CEC08F00DC0DC
:100058001CF00EC01DF00FC01EF006EC09F01C507D
:10006800BE6E2CC010F02DC011F02EC012F0CB5077
:10007800BCEC0AF009C00DF00AC00EF00BC00FF07E
:100088008CEC08F00DC01CF00EC01DF00FC01EF067
:1000980006EC09F01C50BB6EA10E8C6E010E3A6E78
:1000A8001200000E2C6E000E2D6E000E2E6E2CC04F
:1000B80010F02DC011F02EC012F0CB50BCEC0AF09D
:1000C80009C00DF00AC00EF00BC00FF08CEC08F060
:1000D8000DC01CF00EC01DF00FC01EF006EC09F09C
:1000E8001C50BE6E2CC010F02DC011F02EC012F0A6
:1000F800CB50BCEC0AF009C00DF00AC00EF00BC0E2
:100108000FF08CEC08F00DC01CF00EC01DF00FC0F5
:100118001EF006EC09F01C50BB6E020E8C6E000E31
:100128003A6E1200000E2C6E000E2D6E000E2E6E12
:100138002CC010F02DC011F02EC012F0CB50BCEC2A
:100148000AF009C00DF00AC00EF00BC00FF08CECDD
:1001580008F00DC01CF00EC01DF00FC01EF006EC1C
:1001680009F01C50BE6E2CC010F02DC011F02EC02E
:1001780012F0CB50BCEC0AF009C00DF00AC00EF02A
:100188000BC00FF08CEC08F00DC01CF00EC01DF079
:100198000FC01EF006EC09F01C50BB6EA10E8C6E51
:1001A8001200000E2C6E000E2D6E000E2E6E2CC04E
:1001B80010F02DC011F02EC012F0CB50BCEC0AF09C
:1001C80009C00DF00AC00EF00BC00FF08CEC08F05F
:1001D8000DC01CF00EC01DF00FC01EF006EC09F09B
:1001E8001C50BE6E2CC010F02DC011F02EC012F0A5
:1001F800CB50BCEC0AF009C00DF00AC00EF00BC0E1
:100208000FF08CEC08F00DC01CF00EC01DF00FC0F4
:100218001EF006EC09F01C50BB6E510E8C6E1200DD
:10022800CD0E2C6ECC0E2D6E3E0E2E6E2CC010F008
:100238002DC011F02EC012F0CB50BCEC0AF009C052
:100248000DF00AC00EF00BC00FF08CEC08F00DC0DA
:100258001CF00EC01DF00FC01EF006EC09F01C507B
:10026800BE6E2CC010F02DC011F02EC012F0CB5075
:10027800BCEC0AF009C00DF00AC00EF00BC00FF07C
:100288008CEC08F00DC01CF00EC01DF00FC01EF065
:1002980006EC09F01C50BB6EA10E8C6E1200CD0E40
:1002A8002C6ECC0E2D6E3E0E2E6E2CC010F02DC076
:1002B80011F02EC012F0CB50BCEC0AF009C00DF0C2
:1002C8000AC00EF00BC00FF08CEC08F00DC01CF04B
:1002D8000EC01DF00FC01EF006EC09F01C50BE6EDB
:1002E8002CC010F02DC011F02EC012F0CB50BCEC79
:1002F8000AF009C00DF00AC00EF00BC00FF08CEC2C
:1003080008F00DC01CF00EC01DF00FC01EF006EC6A
:1003180009F01C50BB6E510E8C6E1200850E2C6EAF
:10032800EB0E2D6E3E0E2E6E2CC010F02DC011F06F
:100338002EC012F0CB50BCEC0AF009C00DF00AC078
:100348000EF00BC00FF08CEC08F00DC01CF00EC0C6
:100358001DF00FC01EF006EC09F01C50BE6E2CC03C
:1003680010F02DC011F02EC012F0CB50BCEC0AF0EA
:1003780009C00DF00AC00EF00BC00FF08CEC08F0AD
:100388000DC01CF00EC01DF00FC01EF006EC09F0E9
:100398001C50BB6EA10E8C6E1200850E2C6EEB0EDF
:1003A8002D6E3E0E2E6E2CC010F02DC011F02EC0FA
:1003B80012F0CB50BCEC0AF009C00DF00AC00EF0E8
:1003C8000BC00FF08CEC08F00DC01CF00EC01DF037
:1003D8000FC01EF006EC09F01C50BE6E2CC010F0C9
:1003E8002DC011F02EC012F0CB50BCEC0AF009C0A1
:1003F8000DF00AC00EF00BC00FF08CEC08F00DC029
:100408001CF00EC01DF00FC01EF006EC09F01C50C9
:10041800BB6E510E8C6E12001F0E2C6E050E2D6ECB
:100428003F0E2E6E2CC010F02DC011F02EC012F011
:10043800CB50BCEC0AF009C00DF00AC00EF00BC09E
:100448000FF08CEC08F00DC01CF00EC01DF00FC0B2
:100458001EF006EC09F01C50BE6E2CC010F02DC02A
:1004680011F02EC012F0CB50BCEC0AF009C00DF010
:100478000AC00EF00BC00FF08CEC08F00DC01CF099
:100488000EC01DF00FC01EF006EC09F01C50BB6E2C
:10049800A10E8C6E12001F0E2C6E050E2D6E3F0ED7
:1004A8002E6E2CC010F02DC011F02EC012F0CB50C3
:1004B800BCEC0AF009C00DF00AC00EF00BC00FF03A
:1004C8008CEC08F00DC01CF00EC01DF00FC01EF023
:1004D80006EC09F01C50BE6E2CC010F02DC011F0B7
:1004E8002EC012F0CB50BCEC0AF009C00DF00AC0C7
:1004F8000EF00BC00FF08CEC08F00DC01CF00EC015
:100508001DF00FC01EF006EC09F01C50BB6E510E1A
:100518008C6E12007B0E2C6E140E2D6E3F0E2E6EFE
:100528002CC010F02DC011F02EC012F0CB50BCEC36
:100538000AF009C00DF00AC00EF00BC00FF08CECE9
:1005480008F00DC01CF00EC01DF00FC01EF006EC28
:1005580009F01C50BE6E2CC010F02DC011F02EC03A
:1005680012F0CB50BCEC0AF009C00DF00AC00EF036
:100578000BC00FF08CEC08F00DC01CF00EC01DF085
:100588000FC01EF006EC09F01C50BB6EA10E8C6E5D
:1005980012007B0E2C6E140E2D6E3F0E2E6E2CC08C
:1005A80010F02DC011F02EC012F0CB50BCEC0AF0A8
:1005B80009C00DF00AC00EF00BC00FF08CEC08F06B
:1005C8000DC01CF00EC01DF00FC01EF006EC09F0A7
:1005D8001C50BE6E2CC010F02DC011F02EC012F0B1
:1005E800CB50BCEC0AF009C00DF00AC00EF00BC0ED
:1005F8000FF08CEC08F00DC01CF00EC01DF00FC001
:100608001EF006EC09F01C50BB6E510E8C6E1200E9
:10061800D70E2C6E230E2D6E3F0E2E6E2CC010F0B2
:100628002DC011F02EC012F0CB50BCEC0AF009C05E
:100638000DF00AC00EF00BC00FF08CEC08F00DC0E6
:100648001CF00EC01DF00FC01EF006EC09F01C5087
:10065800BE6E2CC010F02DC011F02EC012F0CB5081
:10066800BCEC0AF009C00DF00AC00EF00BC00FF088
:100678008CEC08F00DC01CF00EC01DF00FC01EF071
:1006880006EC09F01C50BB6EA10E8C6E1200D70E42
:100698002C6E230E2D6E3F0E2E6E2CC010F02DC02A
:1006A80011F02EC012F0CB50BCEC0AF009C00DF0CE
:1006B8000AC00EF00BC00FF08CEC08F00DC01CF057
:1006C8000EC01DF00FC01EF006EC09F01C50BE6EE7
:1006D8002CC010F02DC011F02EC012F0CB50BCEC85
:1006E8000AF009C00DF00AC00EF00BC00FF08CEC38
:1006F80008F00DC01CF00EC01DF00FC01EF006EC77
:1007080009F01C50BB6E510E8C6E1200330E2C6E0D
:10071800330E2D6E3F0E2E6E2CC010F02DC011F032
:100728002EC012F0CB50BCEC0AF009C00DF00AC084
:100738000EF00BC00FF08CEC08F00DC01CF00EC0D2
:100748001DF00FC01EF006EC09F01C50BE6E2CC048
:1007580010F02DC011F02EC012F0CB50BCEC0AF0F6
:1007680009C00DF00AC00EF00BC00FF08CEC08F0B9
:100778000DC01CF00EC01DF00FC01EF006EC09F0F5
:100788001C50BB6EA10E8C6E1200330E2C6E330EF5
:100798002D6E3F0E2E6E2CC010F02DC011F02EC005
:1007A80012F0CB50BCEC0AF009C00DF00AC00EF0F4
:1007B8000BC00FF08CEC08F00DC01CF00EC01DF043
:1007C8000FC01EF006EC09F01C50BE6E2CC010F0D5
:1007D8002DC011F02EC012F0CB50BCEC0AF009C0AD
:1007E8000DF00AC00EF00BC00FF08CEC08F00DC035
:1007F8001CF00EC01DF00FC01EF006EC09F01C50D6
:10080800BB6E510E8C6E12008F0E2C6E420E2D6E2A
:100818003F0E2E6E2CC010F02DC011F02EC012F01D
:10082800CB50BCEC0AF009C00DF00AC00EF00BC0AA
:100838000FF08CEC08F00DC01CF00EC01DF00FC0BE
:100848001EF006EC09F01C50BE6E2CC010F02DC036
:1008580011F02EC012F0CB50BCEC0AF009C00DF01C
:100868000AC00EF00BC00FF08CEC08F00DC01CF0A5
:100878000EC01DF00FC01EF006EC09F01C50BB6E38
:10088800A10E8C6E12008F0E2C6E420E2D6E3F0E36
:100898002E6E2CC010F02DC011F02EC012F0CB50CF
:1008A800BCEC0AF009C00DF00AC00EF00BC00FF046
:1008B8008CEC08F00DC01CF00EC01DF00FC01EF02F
:1008C80006EC09F01C50BE6E2CC010F02DC011F0C3
:1008D8002EC012F0CB50BCEC0AF009C00DF00AC0D3
:1008E8000EF00BC00FF08CEC08F00DC01CF00EC021
:1008F8001DF00FC01EF006EC09F01C50BB6E510E27
:100908008C6E1200EC0E2C6E510E2D6E3F0E2E6E5C
:100918002CC010F02DC011F02EC012F0CB50BCEC42
:100928000AF009C00DF00AC00EF00BC00FF08CECF5
:1009380008F00DC01CF00EC01DF00FC01EF006EC34
:1009480009F01C50BE6E2CC010F02DC011F02EC046
:1009580012F0CB50BCEC0AF009C00DF00AC00EF042
:100968000BC00FF08CEC08F00DC01CF00EC01DF091
:100978000FC01EF006EC09F01C50BB6EA10E8C6E69
:100988001200EC0E2C6E510E2D6E3F0E2E6E2CC0EA
:1009980010F02DC011F02EC012F0CB50BCEC0AF0B4
:1009A80009C00DF00AC00EF00BC00FF08CEC08F077
:1009B8000DC01CF00EC01DF00FC01EF006EC09F0B3
:1009C8001C50BE6E2CC010F02DC011F02EC012F0BD
:1009D800CB50BCEC0AF009C00DF00AC00EF00BC0F9
:1009E8000FF08CEC08F00DC01CF00EC01DF00FC00D
:1009F8001EF006EC09F01C50BB6E510E8C6E1200F6
:100A0800480E2C6E610E2D6E3F0E2E6E2CC010F00F
:100A18002DC011F02EC012F0CB50BCEC0AF009C06A
:100A28000DF00AC00EF00BC00FF08CEC08F00DC0F2
:100A38001CF00EC01DF00FC01EF006EC09F01C5093
:100A4800BE6E2CC010F02DC011F02EC012F0CB508D
:100A5800BCEC0AF009C00DF00AC00EF00BC00FF094
:100A68008CEC08F00DC01CF00EC01DF00FC01EF07D
:100A780006EC09F01C50BB6EA10E8C6E1200480EDD
:100A88002C6E610E2D6E3F0E2E6E2CC010F02DC0F8
:100A980011F02EC012F0CB50BCEC0AF009C00DF0DA
:100AA8000AC00EF00BC00FF08CEC08F00DC01CF063
:100AB8000EC01DF00FC01EF006EC09F01C50BE6EF3
:100AC8002CC010F02DC011F02EC012F0CB50BCEC91
:100AD8000AF009C00DF00AC00EF00BC00FF08CEC44
:100AE80008F00DC01CF00EC01DF00FC01EF006EC83
:100AF80009F01C50BB6E510E8C6E1200A40E2C6EA9
:100B0800700E2D6E3F0E2E6E2CC010F02DC011F001
:100B18002EC012F0CB50BCEC0AF009C00DF00AC090
:100B28000EF00BC00FF08CEC08F00DC01CF00EC0DE
:100B38001DF00FC01EF006EC09F01C50BE6E2CC054
:100B480010F02DC011F02EC012F0CB50BCEC0AF002
:100B580009C00DF00AC00EF00BC00FF08CEC08F0C5
:100B68000DC01CF00EC01DF00FC01EF006EC09F001
:100B78001C50BB6EA10E8C6E1200A40E2C6E700E53
:100B88002D6E3F0E2E6E2CC010F02DC011F02EC011
:100B980012F0CB50BCEC0AF009C00DF00AC00EF000
:100BA8000BC00FF08CEC08F00DC01CF00EC01DF04F
:100BB8000FC01EF006EC09F01C50BE6E2CC010F0E1
:100BC8002DC011F02EC012F0CB50BCEC0AF009C0B9
:100BD8000DF00AC00EF00BC00FF08CEC08F00DC041
:100BE8001CF00EC01DF00FC01EF006EC09F01C50E2
:100BF800BB6E510E8C6E1200000E2C6E800E2D6E88
:100C08003F0E2E6E2CC010F02DC011F02EC012F029
:100C1800CB50BCEC0AF009C00DF00AC00EF00BC0B6
:100C28000FF08CEC08F00DC01CF00EC01DF00FC0CA
:100C38001EF006EC09F01C50BE6E2CC010F02DC042
:100C480011F02EC012F0CB50BCEC0AF009C00DF028
:100C58000AC00EF00BC00FF08CEC08F00DC01CF0B1
:100C68000EC01DF00FC01EF006EC09F01C50BB6E44
:100C7800A10E8C6E1200000E2C6E800E2D6E3F0E93
:100C88002E6E2CC010F02DC011F02EC012F0CB50DB
:100C9800BCEC0AF009C00DF00AC00EF00BC00FF052
:100CA8008CEC08F00DC01CF00EC01DF00FC01EF03B
:100CB80006EC09F01C50BE6E2CC010F02DC011F0CF
:100CC8002EC012F0CB50BCEC0AF009C00DF00AC0DF
:100CD8000EF00BC00FF08CEC08F00DC01CF00EC02D
:100CE8001DF00FC01EF006EC09F01C50BB6E510E33
:100CF8008C6E1200000E2C6E800E2D6E3F0E2E6E26
:100D08002CC010F02DC011F02EC012F0CB50BCEC4E
:100D18000AF009C00DF00AC00EF00BC00FF08CEC01
:100D280008F00DC01CF00EC01DF00FC01EF006EC40
:100D380009F01C50BE6E2CC010F02DC011F02EC052
:100D480012F0CB50BCEC0AF009C00DF00AC00EF04E
:100D58000BC00FF08CEC08F00DC01CF00EC01DF09D
:100D68000FC01EF006EC09F01C50BB6E910E8C6E85
:100D78001200000E2C6E800E2D6E3F0E2E6E2CC0B3
:100D880010F02DC011F02EC012F0CB50BCEC0AF0C0
:100D980009C00DF00AC00EF00BC00FF08CEC08F083
:100DA8000DC01CF00EC01DF00FC01EF006EC09F0BF
:100DB8001C50BE6E2CC010F02DC011F02EC012F0C9
:100DC800CB50BCEC0AF009C00DF00AC00EF00BC005
:100DD8000FF08CEC08F00DC01CF00EC01DF00FC019
:100DE8001EF006EC09F01C50BB6E610E8C6E1200F2
:100DF800000E2C6E800E2D6E3F0E2E6E2CC010F045
:100E08002DC011F02EC012F0CB50BCEC0AF009C076
:100E18000DF00AC00EF00BC00FF08CEC08F00DC0FE
:100E28001CF00EC01DF00FC01EF006EC09F01C509F
:100E3800BE6E000EBB6E910E8C6E1200000E2C6EF4
:100E4800800E2D6E3F0E2E6E000EBE6E2CC010F062
:100E58002DC011F02EC012F0CB50BCEC0AF009C026
:100E68000DF00AC00EF00BC00FF08CEC08F00DC0AE
:100E78001CF00EC01DF00FC01EF006EC09F01C504F
:100E8800BB6E610E8C6E12002B50410AD8B455EF20
:100E980000F0030AD8B4D5EF00F0010AD8B453EF34
:100EA80001F0070AD8B4D1EF01F0010AD8B44FEF26
:100EB80002F0030AD8B4CDEF02F0010AD8B44BEF20
:100EC80003F00F0AD8B461D4010AD8B4DCD4030AF9
:100ED800D8B457D5010AD8B4D2D5070AD8B44DD654
:100EE800010AD8B4C8D61B0AD8B4A8D70E0AD8B4F1
:100EF80040D7390AD8B414EF00F0030AD8B496EFF3
:100F080000F0010AD8B414EF01F0070AD8B492EF40
:100F180001F0010AD8B410EF02F0030AD8B48EEF3A
:100F280002F0010AD8B40CEF03F00F0AD8B48AEF24
:100F380003F0010AD8B468D4030AD8B4E3D4010A88
:100F4800D8B45ED5070AD8B4D9D5010AD8B454D6CE
:100F58001B0AD8B44DD70E0AD8A41200CBD6D38A10
:100F6800D388010EC26E0C0EC16E880EC06E240EA0
:100F7800AC6E900EAB6E080EB86ECF0EAF6E030E51
:100F8800CA6E0C0EBD6E0C0EBA6E000ECC6ECA8404
:100F98007C0ECB6E000EBE6E000EBB6E000E956E04
:100FA800510E8C6E000E936E000E8A6E968096829D
:100FB800850ED56E850ED76EEE0ED66EF294F28A39
:100FC8009D8A9E9A94929494F28EF28C010E3A6EB7
:100FD800000E6DEC0AF060C064F061C065F0000EB0
:100FE8000001676F050E666F97EC0AF00A0E6D6FC9
:100FF800D890653364336D2FFBD764C06AF065C041
:101008006BF0AAEC0AF06AC037F06BC038F06CC01D
:1010180039F0010E6DEC0AF060C064F061C065F053
:10102800000E0001676F050E666F97EC0AF00A0E56
:101038006D6FD890653364336D2FFBD764C06AF049
:1010480065C06BF0AAEC0AF06AC034F06BC035F0EA
:101058006CC036F0020E00016E6FC70E6D6F880E01
:10106800E82EFED76D2FFCD76E2FFAD700F037C0C9
:1010780060F038C061F039C062F0000E0001636FA3
:10108800000E646F3F0E656F1DEC0AF0D8B014D0E7
:1010980034C060F035C061F036C062F0000E636F96
:1010A800000E646F3F0E656F1DEC0AF0D8B004D0D7
:1010B800720ECEEC0AF08CD737C060F038C061F001
:1010C80039C062F0000E636F000E646F3F0E656FEB
:1010D8001DEC0AF0D8B004D0730ECEEC0AF078D725
:1010E80034C060F035C061F036C062F0000E636F46
:1010F800000E646F3F0E656F1DEC0AF0D8B004D087
:10110800530ECEEC0AF064D7520ECEEC0AF060D73C
:101118000FC013F0146A156A0E34133601E31480F5
:101128001350166E1650D8A407D0000E0D6E000E80
:101138000E6E000E0F6E120012C013F0146A156ABC
:101148001134133601E3148013501B6E1B50D8A4BE
:1011580007D0000E0D6E000E0E6E000E0F6E120000
:101168001B507B0F16260FC01BF012501B1A800E47
:101178001B160E8E118EFF0E1016FF0E1116000E86
:101188001216000E176E000E186E000E196E070E5E
:101198001A6E0DA006D010501726115018221250A2
:1011A8001922D8900F320E320D32D89010361136DF
:1011B80012361A2EEED7090E1A6E0DA006D0105050
:1011C80017261150182212501922D8900F320E32B9
:1011D8000D32D8901932183217321A2EEED717C09E
:1011E80001F018C002F019C003F016C004F01BC0CB
:1011F80005F0C6EC09F001C00DF002C00EF003C006
:101208000FF012001EC020F0216A226A1D34203619
:1012180001E3218020502A6E2A50D8A409D0000E5C
:101228001C6E000E1D6E000E1E6E000E1F6E12004C
:10123800170E206E1CC021F01DC022F01EC023F026
:101248002028246E04D0D890233222322132242E32
:10125800FAD72150256E1D8EFF0E1C16FF0E1D1687
:10126800000E1E161C50266E1D50276E1E50286E2E
:10127800296A8E0E2A5E2AAE0DD02A50800A8F0F58
:10128800D8A0CDD7D89029322832273226322A3E04
:10129800F9D70DD0170E2A6407D0C1D7D8902636B3
:1012A8002736283629362A062A50D8A4F7D72550B3
:1012B800D8B408D0291E281E271E266C000E272207
:1012C8002822292226C01CF027C01DF028C01EF0A5
:1012D80029C01FF012006351D8B405D060516111C4
:1012E8006211D8A40CD0000E606F000E616F000E62
:1012F800626F1200632BD890623361336033000E43
:101308006015656F000E6115666FFE0E6215676FDA
:10131800655166116711D8B40CD0ECD7632B010E58
:101328006027000E6123000E6223D8906233613378
:101338006033000E6015656F000E6115666FFF0E55
:101348006215676F655166116711D8B406D0E6D784
:101358006307D89060376137623761BF03D0020EE8
:101368006361F6D763A1619FD890633363516213B9
:101378006451D8A4628F60C060F061C061F062C03F
:1013880062F012000450D8B405D0015002100310C6
:10139800D8A40CD0000E016E000E026E000E036E73
:1013A8001200042AD890033202320132000E0114CE
:1013B800066E000E0214076EFE0E0314086E065029
:1013C80007100810D8B40CD0ECD7042A010E012657
:1013D800000E0222000E0322D8900332023201329C
:1013E800000E0114066E000E0214076EFF0E0314A1
:1013F800086E065007100810D8B406D0E6D70406C1
:10140800D89001360236033602BE03D0020E0460BD
:10141800F6D704A0029ED890043204500312055057
:10142800D8A4038E01C001F002C002F003C003F08B
:10143800120062AF0FD0000E666F000E676F800E4D
:10144800686F6051665D606F61516759616F625185
:101458006859626F65AF0FD0000E666F000E676F38
:10146800800E686F6351665D636F64516759646F7E
:1014780065516859656F000E601B000E611B800E78
:10148800621B000E631B000E641B800E651B6351FC
:10149800605D6451615965516259D8B002D0D890E5
:1014A8001200D8801200B00EF66E150EF76E000E00
:1014B800F86E0900F5CF3BF000EE2CF0080EEE6A4E
:1014C800E806FDE13C903C92000EF86E0001B3EF97
:1014D80007F00001636F63C062F00001D8906237C3
:1014E800D8906237C250030B6211C26EC282C2B278
:1014F800FED7C3CF60F0C4CF61F0120006009EAAE9
:1015080007D0D4EC0AF0326E325009EC00F09E9A03
:10151800F2B0F290F2A405D0850ED76EEE0ED66E1C
:10152800F2943C92110064516603F3CF68F0F4CF53
:1015380069F064516703F350692765516603F350F6
:10154800692768C064F069C065F012006AC060F07D
:101558006BC061F0626B8E0E636F000E646F6FEC90
:1015680009F060C06AF061C06BF062C06CF01200F4
:101578000C6E0C50016E026A036A8E0E046E000E29
:10158800056EC6EC09F001C009F002C00AF003C0FC
:101598000BF01200606FACA2FED760C0ADFF120066
:0915A8009EAAFED7AE5012000805
:020000040020DA
:08000000FFFFFFFFFFFFFFFF00
:020000040030CA
:0E00000000091F1EFF8381FF0FC00FE00F409D
:00000001FF
