:0400000007EF00F016
:0A0008005F82F5ED14F08AEF13F0AB
:100800000020677261646F732046616872656E686C
:100810006569740A0020677261646F732052616EAB
:100820006B696E650A0020677261646F73204365AF
:100830006C736975730A0020677261646F73204B73
:10084000656C76696E0A004D6963726F7320323091
:1008500032312D32004C6162203500543D0020566B
:1008600000008C8471EF0BF017C001F018C002F08B
:1008700019C003F01AC004F00A0E056E000E066ED1
:10088000000E076E000E086E2AEC13F00150356E54
:100890003550300F1BEC15F01200640E056E000E83
:1008A000066E000E076E000E086E17C001F018C02D
:1008B00002F019C003F01AC004F02AEC13F001C0D2
:1008C0000AF002C00BF003C00CF004C00DF00A0ED9
:1008D0000E6E000E0F6E000E106E000E116E39ECD3
:1008E00012F00A50346E17C001F018C002F019C09F
:1008F00003F01AC004F00A0E056E000E066E000E1C
:10090000076E000E086E2AEC13F00150356E34505D
:10091000300F1BEC15F03550300F1BEC15F01200AA
:10092000E80E056E030E066E000E076E000E086ED2
:1009300017C001F018C002F019C003F01AC004F08B
:100940002AEC13F001C00AF002C00BF003C00CF057
:1009500004C00DF0640E0E6E000E0F6E000E106ED1
:10096000000E116E39EC12F00AC032F00BC033F0F9
:10097000640E056E000E066E000E076E000E086E09
:1009800017C001F018C002F019C003F01AC004F03B
:100990002AEC13F001C00AF002C00BF003C00CF007
:1009A00004C00DF00A0E0E6E000E0F6E000E106EDB
:1009B000000E116E39EC12F00A50346E17C001F0BF
:1009C00018C002F019C003F01AC004F00A0E056E38
:1009D000000E066E000E076E000E086E2AEC13F075
:1009E0000150356E3250300F1BEC15F03450300F83
:1009F0001BEC15F03550300F1BEC15F01200100EEB
:100A0000056E270E066E000E076E000E086E17C0EC
:100A100001F018C002F019C003F01AC004F02AEC6B
:100A200013F001C00AF002C00BF003C00CF004C0C8
:100A30000DF0E80E0E6E030E0F6E000E106E000E1F
:100A4000116E39EC12F00AC030F00BC031F0E80E34
:100A5000056E030E066E000E076E000E086E17C0C0
:100A600001F018C002F019C003F01AC004F02AEC1B
:100A700013F001C00AF002C00BF003C00CF004C078
:100A80000DF0640E0E6E000E0F6E000E106E000E56
:100A9000116E39EC12F00AC032F00BC033F0640E64
:100AA000056E000E066E000E076E000E086E17C073
:100AB00001F018C002F019C003F01AC004F02AECCB
:100AC00013F001C00AF002C00BF003C00CF004C028
:100AD0000DF00A0E0E6E000E0F6E000E106E000E60
:100AE000116E39EC12F00A50346E17C001F018C0C4
:100AF00002F019C003F01AC004F00A0E056E000ED1
:100B0000066E000E076E000E086E2AEC13F0015000
:100B1000356E3050300F1BEC15F03250300F1BEC9F
:100B200015F03450300F1BEC15F03550300F1BEC26
:100B300015F01200A00E056E860E066E010E076EF1
:100B4000000E086E17C001F018C002F019C003F0C3
:100B50001AC004F02AEC13F001C00AF002C00BF036
:100B600003C00CF004C00DF0100E0E6E270E0F6EB9
:100B7000000E106E000E116E39EC12F00AC02CF04F
:100B80000BC02DF00CC02EF00DC02FF0100E056E16
:100B9000270E066E000E076E000E086E17C001F0DD
:100BA00018C002F019C003F01AC004F02AEC13F0C8
:100BB00001C00AF002C00BF003C00CF004C00DF03D
:100BC000E80E0E6E030E0F6E000E106E000E116E0C
:100BD00039EC12F00AC030F00BC031F0E80E056EAF
:100BE000030E066E000E076E000E086E17C001F0B1
:100BF00018C002F019C003F01AC004F02AEC13F078
:100C000001C00AF002C00BF003C00CF004C00DF0EC
:100C1000640E0E6E000E0F6E000E106E000E116E42
:100C200039EC12F00AC032F00BC033F0640E056EDE
:100C3000000E066E000E076E000E086E17C001F063
:100C400018C002F019C003F01AC004F02AEC13F027
:100C500001C00AF002C00BF003C00CF004C00DF09C
:100C60000A0E0E6E000E0F6E000E106E000E116E4C
:100C700039EC12F00A50346E17C001F018C002F0BF
:100C800019C003F01AC004F00A0E056E000E066EBD
:100C9000000E076E000E086E2AEC13F00150356E40
:100CA0002C50300F1BEC15F03050300F1BEC15F0B2
:100CB0003250300F1BEC15F03450300F1BEC15F098
:100CC0003550300F1BEC15F01200400E056E420E31
:100CD000066E0F0E076E000E086E17C001F018C0EA
:100CE00002F019C003F01AC004F02AEC13F001C09E
:100CF0000AF002C00BF003C00CF004C00DF0A00E0F
:100D00000E6E860E0F6E010E106E000E116E39EC17
:100D100012F00AC028F00BC029F00CC02AF00DC058
:100D20002BF0A00E056E860E066E010E076E000EED
:100D3000086E17C001F018C002F019C003F01AC005
:100D400004F02AEC13F001C00AF002C00BF003C05B
:100D50000CF004C00DF0100E0E6E270E0F6E000E7C
:100D6000106E000E116E39EC12F00AC02CF00BC0A0
:100D70002DF00CC02EF00DC02FF0100E056E270EBA
:100D8000066E000E076E000E086E17C001F018C048
:100D900002F019C003F01AC004F02AEC13F001C0ED
:100DA0000AF002C00BF003C00CF004C00DF0E80E16
:100DB0000E6E030E0F6E000E106E000E116E39ECEB
:100DC00012F00AC030F00BC031F0E80E056E030ED1
:100DD000066E000E076E000E086E17C001F018C0F8
:100DE00002F019C003F01AC004F02AEC13F001C09D
:100DF0000AF002C00BF003C00CF004C00DF0640E4A
:100E00000E6E000E0F6E000E106E000E116E39EC9D
:100E100012F00AC032F00BC033F0640E056E000E03
:100E2000066E000E076E000E086E17C001F018C0A7
:100E300002F019C003F01AC004F02AEC13F001C04C
:100E40000AF002C00BF003C00CF004C00DF00A0E53
:100E50000E6E000E0F6E000E106E000E116E39EC4D
:100E600012F00A50346E17C001F018C002F019C019
:100E700003F01AC004F00A0E056E000E066E000E96
:100E8000076E000E086E2AEC13F00150356E2850E4
:100E9000300F1BEC15F02C50300F1BEC15F03050C0
:100EA000300F1BEC15F03250300F1BEC15F03450A6
:100EB000300F1BEC15F03550300F1BEC15F0120005
:100EC000800E056E960E066E980E076E000E086E6A
:100ED00017C001F018C002F019C003F01AC004F0E6
:100EE0002AEC13F001C00AF002C00BF003C00CF0B2
:100EF00004C00DF0400E0E6E420E0F6E0F0E106EFF
:100F0000000E116E39EC12F00AC024F00BC025F06F
:100F10000CC026F00DC027F0400E056E420E066E86
:100F20000F0E076E000E086E17C001F018C002F019
:100F300019C003F01AC004F02AEC13F001C00AF043
:100F400002C00BF003C00CF004C00DF0A00E0E6E3A
:100F5000860E0F6E010E106E000E116E39EC12F03F
:100F60000AC028F00BC029F00CC02AF00DC02BF0ED
:100F7000A00E056E860E066E010E076E000E086E40
:100F800017C001F018C002F019C003F01AC004F035
:100F90002AEC13F001C00AF002C00BF003C00CF001
:100FA00004C00DF0100E0E6E270E0F6E000E106EA8
:100FB000000E116E39EC12F00AC02CF00BC02DF0AF
:100FC0000CC02EF00DC02FF0100E056E270E066E11
:100FD000000E076E000E086E17C001F018C002F078
:100FE00019C003F01AC004F02AEC13F001C00AF093
:100FF00002C00BF003C00CF004C00DF0E80E0E6E42
:10100000030E0F6E000E106E000E116E39EC12F012
:101010000AC030F00BC031F0E80E056E030E066E0C
:10102000000E076E000E086E17C001F018C002F027
:1010300019C003F01AC004F02AEC13F001C00AF042
:1010400002C00BF003C00CF004C00DF0640E0E6E75
:10105000000E0F6E000E106E000E116E39EC12F0C5
:101060000AC032F00BC033F0640E056E000E066E3F
:10107000000E076E000E086E17C001F018C002F0D7
:1010800019C003F01AC004F02AEC13F001C00AF0F2
:1010900002C00BF003C00CF004C00DF00A0E0E6E7F
:1010A000000E0F6E000E106E000E116E39EC12F075
:1010B0000A50346E17C001F018C002F019C003F0D6
:1010C0001AC004F00A0E056E000E066E000E076EC2
:1010D000000E086E2AEC13F00150356E2450300FCC
:1010E0001BEC15F02850300F1BEC15F02C50300F76
:1010F0001BEC15F03050300F1BEC15F03250300F58
:101100001BEC15F03450300F1BEC15F03550300F40
:101110001BEC15F01200000E056EE10E066EF50ECA
:10112000076E050E086E17C001F018C002F019C056
:1011300003F01AC004F02AEC13F001C00AF002C058
:101140000BF003C00CF004C00DF0800E0E6E960E76
:101150000F6E980E106E000E116E39EC12F00AC070
:1011600020F00BC021F00CC022F00DC023F0800E47
:10117000056E960E066E980E076E000E086E17C06E
:1011800001F018C002F019C003F01AC004F02AECF4
:1011900013F001C00AF002C00BF003C00CF004C051
:1011A0000DF0400E0E6E420E0F6E0F0E106E000E02
:1011B000116E39EC12F00AC024F00BC025F00CC0FF
:1011C00026F00DC027F0400E056E420E066E0F0E83
:1011D000076E000E086E17C001F018C002F019C0AB
:1011E00003F01AC004F02AEC13F001C00AF002C0A8
:1011F0000BF003C00CF004C00DF0A00E0E6E860EB6
:101200000F6E010E106E000E116E39EC12F00AC056
:1012100028F00BC029F00CC02AF00DC02BF0A00E56
:10122000056E860E066E010E076E000E086E17C064
:1012300001F018C002F019C003F01AC004F02AEC43
:1012400013F001C00AF002C00BF003C00CF004C0A0
:101250000DF0100E0E6E270E0F6E000E106E000EAB
:10126000116E39EC12F00AC02CF00BC02DF00CC03E
:101270002EF00DC02FF0100E056E270E066E000E1C
:10128000076E000E086E17C001F018C002F019C0FA
:1012900003F01AC004F02AEC13F001C00AF002C0F7
:1012A0000BF003C00CF004C00DF0E80E0E6E030E40
:1012B0000F6E000E106E000E116E39EC12F00AC0A7
:1012C00030F00BC031F0E80E056E030E066E000E16
:1012D000076E000E086E17C001F018C002F019C0AA
:1012E00003F01AC004F02AEC13F001C00AF002C0A7
:1012F0000BF003C00CF004C00DF0640E0E6E000E77
:101300000F6E000E106E000E116E39EC12F00AC056
:1013100032F00BC033F0640E056E000E066E000E48
:10132000076E000E086E17C001F018C002F019C059
:1013300003F01AC004F02AEC13F001C00AF002C056
:101340000BF003C00CF004C00DF00A0E0E6E000E80
:101350000F6E000E106E000E116E39EC12F00A5076
:10136000346E17C001F018C002F019C003F01AC0A3
:1013700004F00A0E056E000E066E000E076E000EDB
:10138000086E2AEC13F00150356E2050300F1BEC24
:1013900015F02450300F1BEC15F02850300F1BECCB
:1013A00015F02C50300F1BEC15F03050300F1BECAB
:1013B00015F03250300F1BEC15F03450300F1BEC91
:1013C00015F03550300F1BEC15F01200000E056EB5
:1013D000CA0E066E9A0E076E3B0E086E17C001F01D
:1013E00018C002F019C003F01AC004F02AEC13F080
:1013F00001C00AF002C00BF003C00CF004C00DF0F5
:10140000000E0E6EE10E0F6EF50E106E050E116ED3
:1014100039EC12F00AC01CF00BC01DF00CC01EF01D
:101420000DC01FF0000E056EE10E066EF50E076E84
:10143000050E086E17C001F018C002F019C003F0C5
:101440001AC004F02AEC13F001C00AF002C00BF03D
:1014500003C00CF004C00DF0800E0E6E960E0F6EE1
:10146000980E106E000E116E39EC12F00AC020F0CA
:101470000BC021F00CC022F00DC023F0800E056ED1
:10148000960E066E980E076E000E086E17C001F0DD
:1014900018C002F019C003F01AC004F02AEC13F0CF
:1014A00001C00AF002C00BF003C00CF004C00DF044
:1014B000400E0E6E420E0F6E0F0E106E000E116E6D
:1014C00039EC12F00AC024F00BC025F00CC026F055
:1014D0000DC027F0400E056E420E066E0F0E076E11
:1014E000000E086E17C001F018C002F019C003F01A
:1014F0001AC004F02AEC13F001C00AF002C00BF08D
:1015000003C00CF004C00DF0A00E0E6E860E0F6E20
:10151000010E106E000E116E39EC12F00AC028F0A8
:101520000BC029F00CC02AF00DC02BF0A00E056EE8
:10153000860E066E010E076E000E086E17C001F0D3
:1015400018C002F019C003F01AC004F02AEC13F01E
:1015500001C00AF002C00BF003C00CF004C00DF093
:10156000100E0E6E270E0F6E000E106E000E116E16
:1015700039EC12F00AC02CF00BC02DF00CC02EF08C
:101580000DC02FF0100E056E270E066E000E076EB2
:10159000000E086E17C001F018C002F019C003F069
:1015A0001AC004F02AEC13F001C00AF002C00BF0DC
:1015B00003C00CF004C00DF0E80E0E6E030E0F6EAB
:1015C000000E106E000E116E39EC12F00AC030F0F1
:1015D0000BC031F0E80E056E030E066E000E076EAE
:1015E000000E086E17C001F018C002F019C003F019
:1015F0001AC004F02AEC13F001C00AF002C00BF08C
:1016000003C00CF004C00DF0640E0E6E000E0F6EE1
:10161000000E106E000E116E39EC12F00AC032F09E
:101620000BC033F0640E056E000E066E000E076EE2
:10163000000E086E17C001F018C002F019C003F0C8
:101640001AC004F02AEC13F001C00AF002C00BF03B
:1016500003C00CF004C00DF00A0E0E6E000E0F6EEB
:10166000000E106E000E116E39EC12F00A50346E3E
:1016700017C001F018C002F019C003F01AC004F03E
:101680000A0E056E000E066E000E076E000E086E46
:101690002AEC13F00150356E1C50300F1BEC15F086
:1016A0002050300F1BEC15F02450300F1BEC15F0C0
:1016B0002850300F1BEC15F02C50300F1BEC15F0A0
:1016C0003050300F1BEC15F03250300F1BEC15F082
:1016D0003450300F1BEC15F03550300F1BEC15F06B
:1016E00012001B50010AD8B434EF04F0030AD8B436
:1016F0004DEF04F0010AD8B490EF04F0070AD8B413
:10170000FFEF04F0010AD8B49AEF05F0030AD8B449
:1017100065EF06F0010AD8B460EF07F00F0AD8B4FD
:10172000FAD4010AD8A4120051D6010EC26E0D0ED1
:10173000C16E880EC06E240EAC6E800EAB6E080EAD
:10174000B86E190EAF6E000E936E000E8A6E000E0C
:10175000956E000E8C6E96809682A10ECD6E0B0E4D
:10176000CF6EDC0ECE6E9E909D80F28EF28CA30E1C
:10177000536E550EE82EFED7532EFCD700F0040E04
:1017800004EC15F0EBEC11F0600E066E400E6BEC05
:1017900014F0470E066E95EC14F0C00E10EC15F028
:1017A000550E066E95EC14F0030E546E8A0E536EB1
:1017B000560EE82EFED7532EFCD7542EFAD726EC21
:1017C00015F0000ED0EC14F001C009F002C00AF0D0
:1017D000E3EC14F009C058F00AC059F00BC05AF0FD
:1017E000010ED0EC14F001C009F002C00AF0E3ECE5
:1017F00014F009C068F00AC069F00BC06AF0000E6E
:101800000C6EA00E0D6E400E0E6E68C009F069C021
:101810000AF06AC00BF067EC0FF009C018F00AC0BC
:1018200019F00BC01AF0000E1B6E800E1C6E440ED9
:101830001D6EE1EC0FF018C055F019C056F01AC03B
:1018400057F055C001F056C002F057C003F0000E2B
:10185000046E200E056E400E066EB8EC12F0D8A095
:1018600002D08C8001D08C90000E2A6EA00E2B6EC0
:10187000410E2C6E000E1B6E000E1C6E440E1D6E73
:10188000000E0C6EC80E0D6E410E0E6E58C009F0A3
:1018900059C00AF05AC00BF067EC0FF009C018F0FD
:1018A0000AC019F00BC01AF0E1EC0FF018C027F0D5
:1018B00019C028F01AC029F0C5EC0CF027C03DF083
:1018C00028C03EF029C03FF0C7EC10F03DC06BF0DF
:1018D0003EC06CF0000E84B0010E020DF35084B2D5
:1018E000010F5D6E5DC036F058C033F059C034F062
:1018F0005AC035F044EC0EF033C03DF034C03EF039
:1019000035C03FF0C7EC10F03DC05BF03EC05CF06E
:101910005BC016F05CC017F05DC018F05DEC13F012
:101920006BC009F06CC00AF0E3EC14F009C00CF0D5
:101930000AC00DF00BC00EF0DFEC0EF026EC15F037
:101940005BC036F05CC037F0386A396A5DC03AF087
:1019500030EC11F0C00E10EC15F055C04CF056C034
:101960004DF057C04EF07AEC12F05E0E066E95EC1C
:1019700014F0020E546E450E536EAA0EE82EFED7DA
:10198000532EFCD7542EFAD71CD729C02DF02E6A1F
:101990002F6A28342D3601E32E802D50326E2CC054
:1019A0002DF02E6A2F6A2B342D3601E32E802D5018
:1019B000316E3250D8B40AD03150325CD8B00DD02C
:1019C0003250315C2D6E180E2D6407D02AC027F0DE
:1019D0002BC028F02CC029F012003150D8B40AD006
:1019E0003250315CD8B00DD03150325C2D6E180EB3
:1019F0002D6407D027C027F028C028F029C029F07F
:101A00001200060E306E29BE308E2CBE308C288E11
:101A1000FF0E2716FF0E2816000E29162B8EFF0E1E
:101A20002A16FF0E2B16000E2C163150325CD8B041
:101A30001BD0D8902A362B362C363106325031182E
:101A4000D8B40DD0300630C02DF0070E2D16D8B406
:101A500006D0EFD7D890293228322732322A315097
:101A60003218D8B41FD0F6D73250315CD8B01AD063
:101A7000D890273628362936320632503118D8B455
:101A80000DD0300630C02DF0070E2D16D8B406D07C
:101A9000EFD7D8902C322B322A32312A31503218DB
:101AA000D8A4F7D730AE0CD0FF0E271AFF0E281A95
:101AB000FF0E291A010E2726000E2822000E2922C9
:101AC00030AC0CD0FF0E2A1AFF0E2B1AFF0E2C1A68
:101AD000010E2A26000E2B22000E2C22000E306E44
:101AE00027502A2628502B2229502C222CAE0ED0EB
:101AF000FF0E2A1AFF0E2B1AFF0E2C1A010E2A2691
:101B0000000E2B22000E2C22010E306E2AC001F096
:101B10002BC002F02CC003F032C004F030C005F03E
:101B200094EC11F001C027F002C028F003C029F0A6
:101B30001200000E136E010E126E000E116E0FD009
:101B400012C001F013C002F0000E046E0A0E036E04
:101B5000BDEC14F001C012F002C013F0112A1250B3
:101B60000D5C13500E58D8A084D0EAD70DC001F0F8
:101B70000EC002F0000E046E0A0E036E2DEC14F07F
:101B80000150156E1550300F37EC15F01200000E95
:101B9000046E640E036E0DC001F00EC002F02DEC59
:101BA00014F001C006F002C007F0000E096E0A0E24
:101BB000086EE1EC13F00650146E0DC001F00EC07B
:101BC00002F0000E046E0A0E036E2DEC14F00150AC
:101BD000156E1450300F37EC15F01550300F37ECF0
:101BE00015F01200030E046EE80E036E0DC001F036
:101BF0000EC002F02DEC14F001C006F002C007F098
:101C0000000E096E640E086EE1EC13F006C00FF0D2
:101C100007C010F0000E046E640E036E0DC001F0DC
:101C20000EC002F02DEC14F001C006F002C007F067
:101C3000000E096E0A0E086EE1EC13F00650146EE9
:101C40000DC001F00EC002F0000E046E0A0E036E0D
:101C50002DEC14F00150156E0F50300F37EC15F0CD
:101C60001450300F37EC15F01550300F37EC15F0DD
:101C700012001150010AD8B479D7030AD8B487D713
:101C8000010AD8A41200AED7000E1B6E000E1C6E07
:101C9000440E1D6E000E0C6E700E0D6E410E0E6E1B
:101CA00033C009F034C00AF035C00BF067EC0FF018
:101CB00009C018F00AC019F00BC01AF0E1EC0FF0DF
:101CC00018C027F019C028F01AC029F0000E2A6E9B
:101CD000A00E2B6E410E2C6EC5EC0CF027C03AF016
:101CE00028C03BF029C03CF056D03AC037F03BC08A
:101CF00038F03CC039F05CD03AC027F03BC028F047
:101D00003CC029F0930E2A6E880E2B6E430E2C6E6B
:101D1000C5EC0CF039D0000E0C6E800E0D6E3F0E2F
:101D20000E6E3AC009F03BC00AF03CC00BF067EC05
:101D30000FF009C027F00AC028F00BC029F0D60E1A
:101D40002A6EF50E2B6E430E2C6EC5EC0CF01CD0DB
:101D5000000E0C6E800E0D6E3F0E0E6E3AC009F036
:101D60003BC00AF03CC00BF067EC0FF009C027F055
:101D70000AC028F00BC029F0000E2A6E000E2B6E50
:101D8000420E2C6EC5EC0CF027C037F028C038F09E
:101D900029C039F00DD03650000AD8B4A6D7010AB0
:101DA000D8B4AAD7030AD8B4B6D7010AD8B4D0D7C2
:101DB00037C033F038C034F039C035F012000CC0F1
:101DC00001F00DC002F00EC003F0000E046EA00E74
:101DD000056E410E066EB8EC12F0D8B003D0000EBE
:101DE0008A6E12000CC001F00DC002F00EC003F0AC
:101DF000000E046EB80E056E410E066EB8EC12F0C1
:101E0000D8B003D0050E8A6E12000CC001F00DC0D0
:101E100002F00EC003F0000E046ED00E056E410EEF
:101E2000066EB8EC12F0D8B003D0010E8A6E120024
:101E30000CC001F00DC002F00EC003F0000E046EE5
:101E4000E80E056E410E066EB8EC12F0D8B003D065
:101E5000030E8A6E12000CC001F00DC002F00EC01D
:101E600003F0000E046E000E056E420E066EB8EC16
:101E700012F0D8B003D0020E8A6E12000CC001F02E
:101E80000DC002F00EC003F0000E046E0C0E056EC5
:101E9000420E066EB8EC12F0D8B003D0060E8A6E71
:101EA00012000CC001F00DC002F00EC003F0000ED5
:101EB000046E180E056E420E066EB8EC12F0D8B025
:101EC00003D0040E8A6E1200070E8A6E12000BC039
:101ED0000FF0106A116A0A340F3601E310800F50B8
:101EE000126E1250D8A407D0000E096E000E0A6EB2
:101EF000000E0B6E12000EC00FF0106A116A0D3446
:101F00000F3601E310800F50176E1750D8A407D07A
:101F1000000E096E000E0A6E000E0B6E12001750B6
:101F20007B0F12260BC017F00E50171A800E1716D3
:101F30000A8E0D8EFF0E0C16FF0E0D16000E0E16DD
:101F4000000E136E000E146E000E156E070E166E48
:101F500009A006D00C5013260D5014220E50152245
:101F6000D8900B320A320932D8900C360D360E3624
:101F7000162EEED7090E166E09A006D00C501326A9
:101F80000D5014220E501522D8900B320A3209320D
:101F9000D890153214321332162EEED713C001F03A
:101FA00014C002F015C003F012C004F017C005F011
:101FB00094EC11F001C009F002C00AF003C00BF06C
:101FC00012001AC01EF01F6A206A19341E3601E37F
:101FD0001F801E50256E2550D8A407D0000E186E05
:101FE000000E196E000E1A6E12001DC01EF01F6A40
:101FF000206A1C341E3601E31F801E50266E2650B8
:10200000D8A407D0000E186E000E196E000E1A6EBE
:102010001200000E226E000E236E000E246E26505B
:10202000890F255E1AC026F01D50261A800E26162E
:10203000198EFF0E1816FF0E1916000E1A161C8E9A
:10204000FF0E1B16FF0E1C16000E1D16180E216E1D
:10205000D8902236233624361B50185C1C50195851
:102060001D501A58D8A007D01B50185E1C50195A82
:102070001D501A5A2280D890183619361A36212E39
:10208000E7D722C001F023C002F024C003F025C02E
:1020900004F026C005F094EC11F001C018F002C065
:1020A00019F003C01AF012000D6E8C8465D00A0E70
:1020B000016E0D5080EC14F00C6E0C50300F0AECD9
:1020C00014F030EC15F0040EB6EC13F012000A0E0A
:1020D000056E640E016E0D5080EC14F04EEC14F0A1
:1020E0000B6E0A0E016E0D5080EC14F00C6E0B504E
:1020F000300F0AEC14F030EC15F0040EB6EC13F0CF
:102100000C50300F0AEC14F030EC15F0040EB6EC65
:1021100013F01200640E056E0D504EEC14F00A6EB2
:102120000A0E056E640E016E0D5080EC14F04EEC3C
:1021300014F00B6E0A0E016E0D5080EC14F00C6E54
:102140000A50300F0AEC14F030EC15F0040EB6EC27
:1021500013F00B50300F0AEC14F030EC15F0040EB5
:10216000B6EC13F00C50300F0AEC14F030EC15F014
:10217000040EB6EC13F012000950010AD8B497D738
:10218000030AD8B4A4D7010AD8A41200C3D73FC009
:1021900041F0426A436A3E34413601E34280415095
:1021A0004B6E4B50D8A409D0000E3D6E000E3E6E13
:1021B000000E3F6E000E406E1200170E416E3DC0C5
:1021C00042F03EC043F03FC044F04128456E04D089
:1021D000D890443243324232452EFAD74250466EAE
:1021E0003E8EFF0E3D16FF0E3E16000E3F163D5072
:1021F000476E3E50486E3F50496E4A6A8E0E4B5EA7
:102200004BAE0DD04B50800A8F0FD8A0CDD7D890B1
:102210004A324932483247324B3EF9D70DD0170E79
:102220004B6407D0C1D7D8904736483649364A362E
:102230004B064B50D8A4F7D74650D8B408D04A1E06
:10224000491E481E476C000E482249224A2247C0B8
:102250003DF048C03EF049C03FF04AC040F0120097
:102260005B0E066E95EC14F039BE08D0395038106C
:1022700037100AE10A0E365CD8B006D0010E096E9E
:10228000365054EC10F042D039BE08D039503810D6
:1022900037100AE1640E365CD8B006D0020E096E23
:1022A000365054EC10F032D036C017F037C018F06A
:1022B00038C019F039C01AF0030E1B6E31EC04F06F
:1022C00025D0200E1BEC15F0000E1BEC15F0430E74
:1022D0001BEC15F01200200E1BEC15F04B0E1BEC46
:1022E00015F01200200E1BEC15F0000E1BEC15F083
:1022F000520E1BEC15F01200200E1BEC15F0000E18
:102300001BEC15F0460E1BEC15F012003A50000ABB
:10231000D8B4D7D7010AD8B4DED7030AD8B4E2D7E5
:10232000010AD8A41200E8D70450D8B405D001504F
:1023300002100310D8A40CD0000E016E000E026E25
:10234000000E036E1200042AD890033202320132CA
:10235000000E0114066E000E0214076EFE0E03142A
:10236000086E065007100810D8B40CD0ECD7042A19
:10237000010E0126000E0222000E0322D890033225
:1023800002320132000E0114066E000E0214076EB6
:10239000FF0E0314086E065007100810D8B406D0BC
:1023A000E6D70406D89001360236033602BE03D0C3
:1023B000020E0460F6D704A0029ED89004320450A6
:1023C00003120550D8A4038E01C001F002C002F030
:1023D00003C003F012008C94040E5E18D8A404D03D
:1023E0008C500F0B300901D03F0E8C6E30EC15F085
:1023F000010EB6EC13F0040E5E18D8A404D08C5075
:102400000F0B300901D03F0E8C6E30EC15F0030E2F
:10241000B6EC13F0040E5E18D8A404D08C500F0B49
:10242000300901D03F0E8C6E30EC15F0040EB6EC86
:1024300013F0040E5E18D8A411D08C500F0B200995
:102440008C6E30EC15F0040EB6EC13F02F0E0AEC87
:1024500014F030EC15F0040EB6EC13F026EC15F089
:102460000F0E0AEC14F030EC15F0040EB6EC13F07D
:102470001200000E126E000E136E000E146E000E8F
:10248000156E0E500F1010101110D8B42AD0010E76
:10249000166E06D0D8900E360F3610361136162A24
:1024A00011AEF8D7D89012361336143615360E50B2
:1024B0000A5C0F500B5810500C5811500D58D8A0F2
:1024C00009D00E500A5E0F500B5A10500C5A115082
:1024D0000D5A1280D890113210320F320E32162E51
:1024E000E1D712C00AF013C00BF014C00CF015C0F5
:1024F0000DF012004CC03DF04DC03EF04EC03FF01C
:10250000C7EC10F03D50526E000E0C6EC80E0D6EF2
:10251000420E0E6E4CC009F04DC00AF04EC00BF0DA
:1025200067EC0FF009C03DF00AC03EF00BC03FF071
:10253000C7EC10F03DC04FF03EC050F04FC001F06E
:1025400050C002F0000E046E640E036EF2EC12F046
:102550000150516E010E096E525054EC10F02E0EC7
:102560001BEC15F0020E096E515054EC10F01200E5
:1025700003AE0FD0000E076E000E086E800E096EBF
:102580000150075C016E02500858026E0350095852
:10259000036E06AE0FD0000E076E000E086E800EA2
:1025A000096E0450075C046E05500858056E06500D
:1025B0000958066E000E011A000E021A800E031A48
:1025C000000E041A000E051A800E061A0450015C53
:1025D0000550025806500358D8B002D0D8901200C7
:1025E000D8801200000E066E02AE06D0016C021EEC
:1025F000D8B0022A010E066E04AE04D0036C041E8D
:10260000D8B0042A03500410D8B418D0010E056EB7
:1026100004D0D89003360436052A04AEFAD7035006
:10262000015C04500258D8A004D00350015E04504D
:10263000025AD89004320332052EF1D70650D8B48E
:1026400004D0016C021ED8B0022A01C001F002C001
:1026500002F012000550061007100810D8B424D05C
:10266000010E096E06D0D8900536063607360836B4
:10267000092A08AEF8D70550015C065002580750E9
:10268000035808500458D8A008D00550015E0650E1
:10269000025A0750035A0850045AD8900832073299
:1026A00006320532092EE7D701C001F002C002F060
:1026B00003C003F004C004F012005B0E026EA9EC2C
:1026C00014F016C00DF017C00EF099EC0DF014D0F8
:1026D000260E026EA9EC14F01200370E026EA9EC61
:1026E00014F01200150E026EA9EC14F01200010E87
:1026F000026EA9EC14F012001850000AD8B4E8D702
:10270000010AD8B4EAD7030AD8B4ECD7010AD8A48E
:102710001200EDD77A0EF66E2A0EF76E000EF86EE6
:1027200000EE60F010EE08F00900F5CFEEFFE55086
:10273000E150FAE1820EF66E2A0EF76E000EF86E88
:102740000900F5CF5EF000016C6B6B6B6A6B696B17
:10275000686B00EE55F0090EEE6AE806FDE15F9049
:102760005F92000EF86E000195EF0BF0026E1BD029
:10277000050E016EDE0EE82EFED7012EFCD71200EC
:10278000530EE82EFED700F0350EE82EFED700F0EF
:102790001200080EE82EFED700F01200030EE82EFD
:1027A000FED700F012000250010AD8B4E1D7030AA4
:1027B000D8B4E6D7010AD8B4ECD7070AD8A41200D7
:1027C000EDD7000E0B6E000E0A6E08500910D8B43B
:1027D0001CD0010E0C6E04D0D890083609360C2A95
:1027E00009AEFAD7D8900A360B360850065C095065
:1027F0000758D8A005D00850065E0950075A0A802D
:10280000D890093208320C2EEDD70AC006F00BC062
:1028100007F01200046E040E5E18D8A417D004C08E
:1028200003F0F00E03168C500F0B03108C6E30EC7F
:1028300015F0010EB6EC13F004C003F0033AF00EED
:1028400003168C500F0B03108C6E1200080E5E18CE
:10285000D8A4120004C08CFF120003500410D8B496
:1028600018D0010E056E04D0D89003360436052A20
:1028700004AEFAD70350015C04500258D8A004D02B
:102880000350015E0450025AD89004320332052EE0
:10289000F1D701C001F002C002F01200066E000E76
:1028A000086E0550D8B415D0010E076E03D0D8902D
:1028B0000536072A05AEFBD7D89008360550065CCA
:1028C000D8A003D00550065E0880D8900532072EA8
:1028D000F3D708501200076E075010EC15F0000EE9
:1028E000086E06500824D96EDA6ADF501BEC15F02A
:1028F000082A070E0864F5D7800E10EC15F01200B8
:10290000026E080E036E000E046ED890023404347A
:10291000046ED89002360150045CD8A002D0015059
:10292000045E032EF2D70450120009D006C0F6FF51
:10293000080EF76E0800F5501BEC15F0062A06C0CD
:10294000F6FF080EF76E0800F5500009D8B4120023
:10295000EDD709D002C0F6FF080EF76E0800F5505B
:1029600037EC15F0022A02C0F6FF080EF76E0800D9
:10297000F5500009D8B41200EDD701500302F3CF8F
:1029800005F0F4CF06F001500402F3500626025081
:102990000302F350062605C001F006C002F0120043
:1029A000046E04C003F0D8900336D8900336C250AA
:1029B000030B0310C26EC282C2B2FED7C3CF01F0B6
:1029C000C4CF02F0120009C001F00AC002F0036A8D
:1029D0008E0E046E000E056E94EC11F001C009F02D
:1029E00002C00AF003C00BF0120006009EA00AD03D
:1029F0000B0ECF6EDC0ECE6E9E908CB202D08C820F
:102A000001D08C925F921100016E040E0118D8B4AF
:102A100004D0080E0118D8A4120001C05EF0120004
:102A2000056E8C9405500AEC14F030EC15F0040E91
:102A3000B6EC13F01200056E8C8405500AEC14F00D
:102A400030EC15F0040EB6EC13F012008C94010E6D
:102A50000AEC14F030EC15F0020EB6EC13F0120094
:102A60008C86030EE82EFED700F08C961200016EC5
:102A7000ACA2FED701C0ADFF120008140800000090
:032A80000000084B
:020000040020DA
:08000000FFFFFFFFFFFFFFFF00
:020000040030CA
:0E00000000091F1EFF8381FF0FC00FE00F409D
:00000001FF
