:0400000007EF00F016
:0A00080051823BED0BF082EF0AF08D
:1008000000526576697365206C6120636F6E657850
:10081000696F6E20612000202020202020202020D1
:1008200020202020202020202020200041637469E7
:10083000766520656C2070756C7361646F7200451D
:10084000737065726520756E206D6F6D656E746F67
:10085000005072656E6469656E646F204D6F746FD1
:10086000720053656C656363696F6E6520756E20F9
:1008700025004D6F746F72207072656E6469646FCD
:10088000007061726120616A75737461726C6F00CF
:100890006465206F7065726163696F6E3A00436FC3
:1008A000727461646F726120554E006C6F73206DBD
:1008B0006F746F726573004F7065726163696F6EFC
:1008C0003A004D6F746F72204F464600323032331B
:1008D0002D3100554E414C00436F0000D38CD38A1C
:1008E000D398010EC26E0D0EC16E880EC06E000E42
:1008F000956E000E8C6E93680C0EBD6E0C0EBA6E6B
:10090000F90ECB6E000EBE6E000EBB6E000ECA6EF0
:10091000000ECC6ECA8494929494F292F288F09075
:10092000F086F092F088F18E9D8A9E9AF28EF28C7B
:1009300081B002D0010E01D0000E506E040ED6EC34
:100940000BF044EC09F0030E2C6E8A0E2B6E560E43
:10095000E82EFED72B2EFCD72C2EFAD7D80E0D6EF4
:100960003F0E0E6ED30E0F6ECC0E106EFFEC0AF023
:100970001A0E2C6E5E0E2B6E6E0EE82EFED72B2EF0
:10098000FCD72C2EFAD700D081B002D0010E01D0B6
:10099000000E506E000EB1EC0BF001C009F002C069
:1009A0000AF0C4EC0BF009C032F00AC033F00BC0FF
:1009B00034F0000E106EC80E116E420E126E32C070
:1009C0000DF033C00EF034C00FF024EC07F00DC072
:1009D0001CF00EC01DF00FC01EF0000E1F6E800E2A
:1009E000206E440E216E11EC08F01CC02FF01DC0CB
:1009F00030F01EC031F01CD1000E8C6E9E0E0D6EBC
:100A00003F0E0E6ED30E0F6ECC0E106EFFEC0AF082
:100A1000010E4A6E000EBE6E0B0E2C6E260E2B6E55
:100A20005E0EE82EFED72B2EFCD72C2EFAD7ACD795
:100A300083808382000EBE6E000E476E49504A18B6
:100A4000D8B40AD02A0E0D6E010E0E6EAB0E0F6ECC
:100A5000290E106EFFEC0AF0010E496E5050D8A41A
:100A600002D0010EE3D0020EE1D083908392010EFA
:100A7000486E000E476E000EBE6E49504A18D8B43C
:100A80000AD0C20E0D6E290E0E6E2C0E0F6E810E48
:100A9000106EFFEC0AF0020E496E5050D8B4E1D748
:100AA0004604D8A4E0D7030E4A6E000E486E000E2E
:100AB000446E6AD74804D8A405D0020E4A6E000ED0
:100AC000486E62D783808382000E466E000EBE6E33
:100AD0005050D8B4C6D749504A18D8B40AD0620E7C
:100AE0000D6E900E0E6E2A0E0F6E270E106EFFEC1E
:100AF0000AF02FC01CF030C01DF031C01EF084EC95
:100B000008F01C50456E45504418D8A4D4EC09F0A8
:100B100045C044F0030E496E4704D8A435D7040EEF
:100B20004A6E000E476E30D75050D8B49AD748045A
:100B3000D8B4C3D72FC01CF030C01DF031C01EF098
:100B4000000E1F6EC80E206E420E216E11EC08F0D2
:100B50001CC03BF01DC03CF01EC03DF049504A187F
:100B6000D8B460D0290E0D6E510E0E6E2A0E0F6E87
:100B70003F0E106EFFEC0AF0000E2E6E000E2D6E72
:100B800037D04804D8B43CD05050D8B439D03BC04A
:100B900010F03CC011F03DC012F0D8902D34D96E49
:100BA0002E34DA6E0A0ED926060EDA22DECF09F0CE
:100BB000DDCF0AF058EC0BF009C00DF00AC00EF0C2
:100BC0000BC00FF024EC07F00DC01CF00EC01DF0A0
:100BD0000FC01EF084EC08F01C50BE6E1A0E2B6E77
:100BE000F80EE82EFED72B2EFCD700D02D4A2E2A49
:100BF0002EBEC7D72E5004E1FB0E2D5CD8A0C1D766
:100C00005050D8B42ED74804D8B457D7720E0D6EB2
:100C1000B70E0E6E2A0E0F6E270E106EFFEC0AF046
:100C2000D4EC09F0040E496EAFD6000E4A6EACD675
:100C30004A50000AD8B4E0D6010AD8B4F9D6030A5B
:100C4000D8B413D7010AD8B435D7070AD8B46CD7AB
:100C5000ECD70000000000000000000000000000D1
:100C60000000000000000000000000000000000084
:100C7000000001000100010001000100010001006D
:100C8000020002000200020003000300030004004F
:100C9000040004000500050005000600060007002A
:100CA00007000800080009000A000A000B000C00F9
:100CB0000C000D000E000E000F00100011001200BD
:100CC0001300130014001500160017001800190077
:100CD0001A001B001C001E001F0020002100220023
:100CE000230025002600270029002A002B002D00C4
:100CF0002E002F003100320034003500370038005C
:100D00003A003B003D003E004000420043004500E9
:100D1000470048004A004C004D004F00510053006E
:100D20005400560058005A005B005D005F006100EF
:100D300063006400660068006A006C006E006F006B
:100D4000710073007500770079007B007C007E00E5
:100D5000800082008400860088008A008B008D005D
:100D60008F00910093009500960098009A009C00D7
:100D70009E009F00A100A300A500A600A800AA0055
:100D8000AC00AD00AF00B100B200B400B600B700D7
:100D9000B900BB00BC00BE00BF00C100C200C4005F
:100DA000C500C700C800CA00CB00CC00CE00CF00F1
:100DB000D000D200D300D400D600D700D800D9008C
:100DC000DA00DB00DD00DE00DF00E000E100E20031
:100DD000E300E400E500E600E600E700E800E900E3
:100DE000EA00EB00EB00EC00ED00ED00EE00EF00A0
:100DF000EF00F000F100F100F200F200F300F30068
:100E0000F400F400F400F500F500F500F600F6003B
:100E1000F600F700F700F700F700F800F800F80018
:100E2000F800F800F800F800F900F900F900F900FE
:100E3000F900F900F900F900F900F900F900F900EA
:100E4000F900F900F900F9000FC013F0146A156AEF
:100E50000E34133601E314801350166E1650D8A4C6
:100E600007D0000E0D6E000E0E6E000E0F6E1200FB
:100E700012C013F0146A156A1134133601E314809A
:100E800013501B6E1B50D8A407D0000E0D6E000E21
:100E90000E6E000E0F6E12001B507B0F16260FC039
:100EA0001BF012501B1A800E1B160E8E118EFF0E99
:100EB0001016FF0E1116000E1216000E176E000E01
:100EC000186E000E196E070E1A6E0DA006D0105087
:100ED00017261150182212501922D8900F320E32B4
:100EE0000D32D8901036113612361A2EEED7090E62
:100EF0001A6E0DA006D0105017261150182212504D
:100F00001922D8900F320E320D32D8901932183281
:100F100017321A2EEED717C001F018C002F019C010
:100F200003F016C004F01BC005F0EDEC08F001C0A2
:100F30000DF002C00EF003C00FF012000D6E8C8495
:100F400065D00A0E016E0D5074EC0BF00C6E0C5057
:100F5000300FDCEC0AF002EC0CF0040EB1EC0AF0FD
:100F600012000A0E056E640E016E0D5074EC0BF04B
:100F70001EEC0BF00B6E0A0E016E0D5074EC0BF0B4
:100F80000C6E0B50300FDCEC0AF002EC0CF0040E8F
:100F9000B1EC0AF00C50300FDCEC0AF002EC0CF073
:100FA000040EB1EC0AF01200640E056E0D501EEC3A
:100FB0000BF00A6E0A0E056E640E016E0D5074EC95
:100FC0000BF01EEC0BF00B6E0A0E016E0D5074EC64
:100FD0000BF00C6E0A50300FDCEC0AF002EC0CF057
:100FE000040EB1EC0AF00B50300FDCEC0AF002EC0E
:100FF0000CF0040EB1EC0AF00C50300FDCEC0AF0EF
:1010000002EC0CF0040EB1EC0AF012000950010AD7
:10101000D8B497D7030AD8B4A4D7010AD8A4120029
:10102000C3D71EC022F0236A246A1D34223601E38E
:1010300023802250296E2950D8A407D0000E1C6EA0
:10104000000E1D6E000E1E6E120021C022F0236ADB
:10105000246A2034223601E3238022502A6E2A504B
:10106000D8A407D0000E1C6E000E1D6E000E1E6E62
:101070001200000E266E000E276E000E286E2A50FB
:10108000890F295E1EC02AF021502A1A800E2A16C6
:101090001D8EFF0E1C16FF0E1D16000E1E16208E36
:1010A000FF0E1F16FF0E2016000E2116180E256EBD
:1010B000D8902636273628361F501C5C20501D58E5
:1010C00021501E58D8A007D01F501C5E20501D5A1A
:1010D00021501E5A2680D8901C361D361E36252ECD
:1010E000E7D726C001F027C002F028C003F029C0CE
:1010F00004F02AC005F0EDEC08F001C01CF002C0BD
:101100001DF003C01EF012001EC020F0216A226AEA
:101110001D34203601E3218020502A6E2A50D8A4A5
:1011200009D0000E1C6E000E1D6E000E1E6E000E0D
:101130001F6E1200170E206E1CC021F01DC022F081
:101140001EC023F02028246E04D0D89023322232EF
:101150002132242EFAD72150256E1D8EFF0E1C162B
:10116000FF0E1D16000E1E161C50266E1D50276EFB
:101170001E50286E296A8E0E2A5E2AAE0DD02A5085
:10118000800A8F0FD8A0CDD7D890293228322732A5
:1011900026322A3EF9D70DD0170E2A6407D0C1D7C0
:1011A000D89026362736283629362A062A50D8A43B
:1011B000F7D72550D8B408D0291E281E271E266C24
:1011C000000E27222822292226C01CF027C01DF04D
:1011D00028C01EF029C01FF012000450D8B405D05A
:1011E000015002100310D8A40CD0000E016E000EA6
:1011F000026E000E036E1200042AD89003320232EF
:101200000132000E0114066E000E0214076EFE0E6F
:101210000314086E065007100810D8B40CD0ECD791
:10122000042A010E0126000E0222000E0322D8908D
:10123000033202320132000E0114066E000E021457
:10124000076EFF0E0314086E065007100810D8B47E
:1012500006D0E6D70406D89001360236033602BE21
:1012600003D0020E0460F6D704A0029ED890043288
:10127000045003120550D8A4038E01C001F002C02F
:1012800002F003C003F012008C94040E4F18D8A48F
:1012900004D08C500F0B300901D03F0E8C6E02EC45
:1012A0000CF0010EB1EC0AF0040E4F18D8A404D0D3
:1012B0008C500F0B300901D03F0E8C6E02EC0CF0FD
:1012C000030EB1EC0AF0040E4F18D8A404D08C50D1
:1012D0000F0B300901D03F0E8C6E02EC0CF0040EA7
:1012E000B1EC0AF0040E4F18D8A411D08C500F0B9B
:1012F00020098C6E02EC0CF0040EB1EC0AF02F0EFB
:10130000DCEC0AF002EC0CF0040EB1EC0AF0F8ECA4
:101310000BF00F0EDCEC0AF002EC0CF0040EB1EC5A
:101320000AF01200000E066E04AE06D0036C041E16
:10133000D8B0042A010E066E02AE06D0016C021E61
:10134000D8B0022A010E061A000E086E000E076EB3
:1013500003500410D8B41CD0010E056E04D0D890F0
:1013600003360436052A04AEFAD7D8900736083675
:101370000350015C04500258D8A005D00350015E10
:101380000450025A0780D89004320332052EEDD75C
:101390000650D8B404D0076C081ED8B0082A07C07D
:1013A00001F008C002F01200C40EEDEC0BF0270EA5
:1013B000066E89EC0BF0C40EEDEC0BF0000E016E26
:1013C000C60E026E420E036E2FC004F030C005F050
:1013D00031C006F013EC0AF0D8B006D0030E096E47
:1013E000640E9EEC07F01BD0000E016E200E026E04
:1013F000410E036E2FC004F030C005F031C006F07E
:1014000013EC0AF0D8A006D0010E096E45509EECF0
:1014100007F005D0020E096E45509EEC07F0250E30
:10142000E2EC0BF0120003AE0FD0000E076E000EC0
:10143000086E800E096E0150075C016E025008585C
:10144000026E03500958036E06AE0FD0000E076EF1
:10145000000E086E800E096E0450075C046E055085
:101460000858056E06500958066E000E011A000E47
:10147000021A800E031A000E041A000E051A800EBE
:10148000061A0450015C0550025806500358D8B0A3
:1014900002D0D8901200D880120009C001F09DEC53
:1014A0000BF001500A6E0A501408016E000ED8A00D
:1014B000E82A0008026E000E046E020E036E92EC23
:1014C00009F001500B6E000E0C6E04D0200EE2EC01
:1014D0000BF00C2A0B500C5CD8B00AD0F7D709C01F
:1014E000F6FF080EF76E0800F550E2EC0BF0092A43
:1014F00009C0F6FF080EF76E0800F5500009D8B4D1
:101500001200EDD7520EF66E0C0EF76E000EF86E4E
:1015100006EE0AF011EEF6F00900F5CFEEFFE55009
:10152000E150FAE1E250F8E1120EF66E180EF76E95
:10153000000EF86E00EE4BF010EE05F00900F5CF4E
:10154000EEFFE550E150FAE100EE2FF01C0EEE6ADE
:10155000E806FDE151905192000EF86E00016EEF29
:1015600004F0026E1BD0140E016E7A0EE82EFED728
:10157000012EFCD71200C80E00D0E82EFDD7D50EE4
:10158000E82EFED700F01200210EE82EFED700F064
:1015900012000D0EE82EFED700F012000250010AD4
:1015A000D8B4E1D7030AD8B4E6D7010AD8B4ECD747
:1015B000070AD8A41200EDD7046E040E4F18D8A461
:1015C00017D004C003F0F00E03168C500F0B03105D
:1015D0008C6E02EC0CF0010EB1EC0AF004C003F0CA
:1015E000033AF00E03168C500F0B03108C6E120092
:1015F000080E4F18D8A4120004C08CFF1200F8EC9B
:101600000BF0000EEDEC0BF00DC009F04DEC0AF004
:10161000C00EEDEC0BF00EC009F04DEC0AF0940E8C
:10162000EDEC0BF00FC009F04DEC0AF0D40EEDEC30
:101630000BF010C009F04DEC0AF01200066E000E1F
:10164000086E0550D8B415D0010E076E03D0D8909F
:101650000536072A05AEFBD7D89008360550065C3C
:10166000D8A003D00550065E0880D8900532072E1A
:10167000F3D7085012000600F2A203D0000E506EFD
:10168000F292F0A003D0010E486EF090F0A20ED0BE
:10169000020E4A18D8A403D0010E466E06D0030EDF
:1016A0004A18D8A402D0010E476EF0925192110050
:1016B000000E0C6E0AAE06D0096C0A1ED8B00A2ABB
:1016C000010E0C6E09C001F00AC002F0036A8E0E12
:1016D000046E0CC005F0EDEC08F001C009F002C08A
:1016E0000AF003C00BF01200026E080E036E000E2B
:1016F000046ED89002340434046ED890023601503F
:10170000045CD8A002D00150045E032EF2D704502E
:10171000120009D006C0F6FF080EF76E0800F5505B
:10172000E2EC0BF0062A06C0F6FF080EF76E080082
:10173000F5500009D8B41200EDD701C003F001D074
:10174000032A03C0F6FF080EF76E0800F5500009E3
:10175000D8A4F6D70150035C016E026A01BE0206EE
:101760001200046E04C003F0D8900336D8900336FC
:10177000C250030B0310C26EC282C2B2FED7C3CFE7
:1017800001F0C4CF02F0120009C001F00AC002F05B
:10179000036A8E0E046E000E056EEDEC08F001C0BB
:1017A00009F002C00AF003C00BF01200016E040E33
:1017B0000118D8B404D0080E0118D8A4120001C032
:1017C0004FF01200056E8C840550DCEC0AF002EC40
:1017D0000CF0040EB1EC0AF01200056E8C9405506A
:1017E000DCEC0AF002EC0CF0040EB1EC0AF0120092
:1017F0008C94010EDCEC0AF002EC0CF0020EB1EC61
:101800000AF012008C860D0EE82EFED700F08C96A2
:0718100012001400FB0008A8
:020000040020DA
:08000000FFFFFFFFFFFFFFFF00
:020000040030CA
:0E00000000091F1EFF8381FF0FC00FE00F409D
:00000001FF
