:0400000007EF00F016
:100008004582F7ED05F088EF05F0000000000000DC
:1000180000000000000000000000000000000000D8
:1000280000000000000000000000010001000100C5
:1000380001000100010001000200020002000200AC
:100048000300030003000400040004000500050089
:100058000500060006000700070008000800090060
:100068000A000A000B000C000C000D000E000E0028
:100078000F001000110012001300130014001500E7
:1000880016001700180019001A001B001C001E009B
:100098001F00200021002200230025002600270041
:1000A80029002A002B002D002E002F0031003200DD
:1000B80034003500370038003A003B003D003E0070
:1000C8004000420043004500470048004A004C00F9
:1000D8004D004F00510053005400560058005A007C
:1000E8005B005D005F0061006300640066006800FB
:1000F8006A006C006E006F00710073007500770075
:1001080079007B007C007E008000820084008600ED
:1001180088008A008B008D008F0091009300950065
:10012800960098009A009C009E009F00A100A300E2
:10013800A500A600A800AA00AC00AD00AF00B10061
:10014800B200B400B600B700B900BB00BC00BE00E6
:10015800BF00C100C200C400C500C700C800CA0073
:10016800CB00CC00CE00CF00D000D200D300D4000A
:10017800D600D700D800D900DA00DB00DD00DE00A9
:10018800DF00E000E100E200E300E400E500E60053
:10019800E600E700E800E900EA00EB00EB00EC000D
:1001A800ED00ED00EE00EF00EF00F000F100F100CF
:1001B800F200F200F300F300F400F400F400F5009C
:1001C800F500F500F600F600F600F700F700F70076
:1001D800F700F800F800F800F800F800F800F80058
:1001E800F900F900F900F900F900F900F900F9003F
:1001F800F900F900F900F900F900F900F900F9002F
:10020800D38CD38AD398010EC26E0D0EC16E880EA0
:10021800C06E000E956E000E8C6E93680C0EBD6E4F
:100228000C0EBA6EF90ECB6E000EBE6E000EBB6ED3
:10023800000ECA6E000ECC6ECA8494929494F29208
:10024800F288F090F086F092F088F18E9D8A9E9A5E
:10025800F28EF28C81B002D0010E01D0000E446EF5
:10026800040EA8EC06F0BBEC03F0020E2C6E450E53
:100278002B6EAA0EE82EFED72B2EFCD72C2EFAD7E3
:10028800000E356E000E366E3F0E376E9A0E356EC6
:10029800190E366E3F0E376E83808382030E2C6EE6
:1002A8008A0E2B6E560EE82EFED72B2EFCD72C2E40
:1002B800FAD7000E2E6E000E2D6E30D035C010F01D
:1002C80036C011F037C012F0D8902D34D96E2E34C4
:1002D800DA6E0A0ED926060EDA22DECF09F0DDCF55
:1002E8000AF014EC06F009C00DF00AC00EF00BC0BD
:1002F8000FF09BEC01F00DC01CF00EC01DF00FC0FC
:100308001EF0FBEC02F01C50BE6E340E2B6EF20E8B
:10031800E82EFED72B2EFCD72D4A2E2A2EBECED75E
:100328002E5004E1FB0E2D5CD8A0C8D7FFD70FC014
:1003380013F0146A156A0E34133601E3148013504F
:10034800166E1650D8A407D0000E0D6E000E0E6E55
:10035800000E0F6E120012C013F0146A156A1134E1
:10036800133601E3148013501B6E1B50D8A407D01A
:10037800000E0D6E000E0E6E000E0F6E12001B505A
:100388007B0F16260FC01BF012501B1A800E1B166F
:100398000E8E118EFF0E1016FF0E1116000E12167D
:1003A800000E176E000E186E000E196E070E1A6EEC
:1003B8000DA006D0105017261150182212501922DD
:1003C800D8900F320E320D32D890103611361236C0
:1003D8001A2EEED7090E1A6E0DA006D01050172649
:1003E8001150182212501922D8900F320E320D32A5
:1003F800D8901932183217321A2EEED717C001F0DA
:1004080018C002F019C003F016C004F01BC005F0B4
:1004180064EC03F001C00DF002C00EF003C00FF051
:1004280012000D6E8C8465D00A0E016E0D505CECC6
:1004380006F00C6E0C50300FB7EC05F0C9EC06F066
:10044800040E55EC04F012000A0E056E640E016EDF
:100458000D505CEC06F0DAEC05F00B6E0A0E016E3E
:100468000D505CEC06F00C6E0B50300FB7EC05F03D
:10047800C9EC06F0040E55EC04F00C50300FB7EC44
:1004880005F0C9EC06F0040E55EC04F01200640EF9
:10049800056E0D50DAEC05F00A6E0A0E056E640E54
:1004A800016E0D505CEC06F0DAEC05F00B6E0A0EEE
:1004B800016E0D505CEC06F00C6E0A50300FB7EC74
:1004C80005F0C9EC06F0040E55EC04F00B50300FA3
:1004D800B7EC05F0C9EC06F0040E55EC04F00C502E
:1004E800300FB7EC05F0C9EC06F0040E55EC04F03B
:1004F80012000950010AD8B497D7030AD8B4A4D770
:10050800010AD8A41200C3D71EC022F0236A246AA5
:100518001D34223601E323802250296E2950D8A4A5
:1005280007D0000E1C6E000E1D6E000E1E6E12000F
:1005380021C022F0236A246A2034223601E3238072
:1005480022502A6E2A50D8A407D0000E1C6E000E26
:100558001D6E000E1E6E1200000E266E000E276E17
:10056800000E286E2A50890F295E1EC02AF02150DD
:100578002A1A800E2A161D8EFF0E1C16FF0E1D1637
:10058800000E1E16208EFF0E1F16FF0E2016000EE0
:100598002116180E256ED8902636273628361F5075
:1005A8001C5C20501D5821501E58D8A007D01F5041
:1005B8001C5E20501D5A21501E5A2680D8901C3689
:1005C8001D361E36252EE7D726C001F027C002F0BB
:1005D80028C003F029C004F02AC005F064EC03F039
:1005E80001C01CF002C01DF003C01EF012001EC0A6
:1005F80020F0216A226A1D34203601E32180205030
:100608002A6E2A50D8A409D0000E1C6E000E1D6E4A
:10061800000E1E6E000E1F6E1200170E206E1CC0FC
:1006280021F01DC022F01EC023F02028246E04D023
:10063800D890233222322132242EFAD72150256E27
:100648001D8EFF0E1C16FF0E1D16000E1E161C50CA
:10065800266E1D50276E1E50286E296A8E0E2A5E41
:100668002AAE0DD02A50800A8F0FD8A0CDD7D890A7
:1006780029322832273226322A3EF9D70DD0170ED2
:100688002A6407D0C1D7D890263627362836293687
:100698002A062A50D8A4F7D72550D8B408D0291E3E
:1006A800281E271E266C000E27222822292226C053
:1006B8001CF027C01DF028C01EF029C01FF0120032
:1006C8000450D8B405D0015002100310D8A40CD09F
:1006D800000E016E000E026E000E036E1200042A58
:1006E800D890033202320132000E0114066E000E59
:1006F8000214076EFE0E0314086E06500710081049
:10070800D8B40CD0ECD7042A010E0126000E022220
:10071800000E0322D890033202320132000E011477
:10072800066E000E0214076EFF0E0314086E0650C4
:1007380007100810D8B406D0E6D70406D8900136BA
:100748000236033602BE03D0020E0460F6D704A0B8
:10075800029ED8900432045003120550D8A4038E88
:1007680001C001F002C002F003C003F012008C9433
:10077800040E4318D8A404D08C500F0B300901D0B4
:100788003F0E8C6EC9EC06F0010E55EC04F0040E19
:100798004318D8A404D08C500F0B300901D03F0E59
:1007A8008C6EC9EC06F0030E55EC04F0040E4318E9
:1007B800D8A404D08C500F0B300901D03F0E8C6E9A
:1007C800C9EC06F0040E55EC04F0040E4318D8A446
:1007D80011D08C500F0B20098C6EC9EC06F0040E5A
:1007E80055EC04F02F0EB7EC05F0C9EC06F0040E3A
:1007F80055EC04F0BFEC06F00F0EB7EC05F0C9ECB1
:1008080006F0040E55EC04F01200CF0EB4EC06F01E
:10081800D30E066E7E0E076E47EC06F0CF0EB4ECD4
:1008280006F0000E016EC60E026E420E036E2FC059
:1008380004F030C005F031C006F01BEC05F0D8B06C
:1008480006D0030E096E640E15EC02F01BD0000EE4
:10085800016E200E026E410E036E2FC004F030C0F0
:1008680005F031C006F01BEC05F0D8A006D0010E4B
:10087800096E395015EC02F005D0020E096E395098
:1008880015EC02F0250E96EC06F0020E0F6E450EE2
:100898000E6EAA0EE82EFED70E2EFCD70F2EFAD714
:1008A8001200026E2DD0140E016E7A0EE82EFED7BD
:1008B800012EFCD71200C80E00D0E82EFDD7D50EA9
:1008C800E82EFED700F01200210EE82EFED700F029
:1008D80012000D0EE82EFED700F01200270E016E52
:1008E800F50EE82EFED7012EFCD700F01200410EBF
:1008F800016EEE0EE82EFED7012EFCD700D01200B6
:100908000250010AD8B4CFD7030AD8B4D4D7010A01
:10091800D8B4DAD7070AD8B4DCD7010AD8B4DED7F6
:10092800030AD8A41200E3D7000E066E04AE06D060
:10093800036C041ED8B0042A010E066E02AE06D05F
:10094800016C021ED8B0022A010E061A000E086EAB
:10095800000E076E03500410D8B41CD0010E056EAB
:1009680004D0D89003360436052A04AEFAD7D890B6
:10097800073608360350015C04500258D8A005D049
:100988000350015E0450025A0780D89004320332A3
:10099800052EEDD70650D8B404D0076C081ED8B081
:1009A800082A07C001F008C002F0120009C001F0CF
:1009B8000AC002F030EC06F001500B6E0B50140820
:1009C800016E000ED8A0E82A0008026E000E046E20
:1009D800020E036E98EC04F001500C6E000E0D6EC2
:1009E80007D0200E96EC06F0040E55EC04F00D2A04
:1009F8000C500D5CD8A0F5D7040E55EC04F00DD0C2
:100A080009C0F6FF0AC0F7FF0800F55096EC06F09B
:100A1800094A0A2A040E55EC04F009C0F6FF0AC078
:100A2800F7FF0800F5500009D8B41200E9D703AE63
:100A38000FD0000E076E000E086E800E096E015072
:100A4800075C016E02500858026E03500958036E85
:100A580006AE0FD0000E076E000E086E800E096EEF
:100A68000450075C046E05500858056E0650095876
:100A7800066E000E011A000E021A800E031A000EEE
:100A8800041A000E051A800E061A0450015C05505F
:100A9800025806500358D8B002D0D8901200D88017
:100AA8001200BFEC06F0000EB4EC06F00EC009F020
:100AB8000FC00AF0DAEC04F0050E55EC04F0C00E95
:100AC800B4EC06F010C009F011C00AF0DAEC04F03A
:100AD800050E55EC04F0940EB4EC06F012C009F0C3
:100AE80013C00AF0DAEC04F0050E55EC04F0D40E4D
:100AF800B4EC06F014C009F015C00AF0DAEC04F002
:100B0800050E55EC04F01200120EF66E000EF76E8C
:100B1800000EF86E06EE0AF011EEF6F00900F5CFB9
:100B2800EEFFE550E150FAE1E250F8E1A00EF66E72
:100B38000D0EF76E000EF86E00EE3FF010EE05F0A9
:100B48000900F5CFEEFFE550E150FAE100EE2FF095
:100B5800100EEE6AE806FDE145904592000EF86E2B
:100B6800000104EF01F0046E040E4318D8A417D056
:100B780004C003F0F00E03168C500F0B03108C6E9C
:100B8800C9EC06F0010E55EC04F004C003F0033A7A
:100B9800F00E03168C500F0B03108C6E1200080E0B
:100BA8004318D8A4120004C08CFF1200066E000E71
:100BB800086E0550D8B415D0010E076E03D0D89032
:100BC8000536072A05AEFBD7D89008360550065CCF
:100BD800D8A003D00550065E0880D8900532072EAD
:100BE800F3D7085012000600F2A203D0000E446E9C
:100BF800F292F0A003D0010E3C6EF090F0A20ED05D
:100C0800020E3E18D8A403D0010E3A6E06D0030E89
:100C18003E18D8A402D0010E3B6EF0924592110006
:100C2800000E0C6E0AAE06D0096C0A1ED8B00A2A4D
:100C3800010E0C6E09C001F00AC002F0036A8E0EA4
:100C4800046E0CC005F064EC03F001C009F002C0AA
:100C58000AF003C00BF0120001C003F002C004F058
:100C680002D0034A042A03C0F6FF04C0F7FF0800B5
:100C7800F5500009D8A4F5D70150035C016E025065
:100C88000458026E12000AD006C0F6FF07C0F7FF2C
:100C98000800F55096EC06F0064A072A06C0F6FF4B
:100CA80007C0F7FF0800F5500009D8B41200ECD7C8
:100CB800026E080E036E000E046ED89002340434DF
:100CC800046ED89002360150045CD8A002D00150BE
:100CD800045E032EF2D704501200046E04C003F021
:100CE800D8900336D8900336C250030B0310C26E57
:100CF800C282C2B2FED7C3CF01F0C4CF02F0120045
:100D080009C001F00AC002F0036A8E0E046E000EDC
:100D1800056E64EC03F001C009F002C00AF003C0DC
:100D28000BF01200056E8C840550B7EC05F0C9EC89
:100D380006F0040E55EC04F0040E55EC04F0210EF8
:100D4800E82EFED700F01200016E040E0118D8B488
:100D580004D0080E0118D8A4120001C043F01200F4
:100D6800056E8C940550B7EC05F0C9EC06F0040E3E
:100D780055EC04F012008C94010EB7EC05F0C9ECA8
:100D880006F0020E55EC04F012008C86100EE82EC8
:0D0D9800FED700D08C9612002800FB00084A
:107EAC0000526576697365206C6120636F6E65782E
:107EBC00696F6E20612000202020202020202020AF
:107ECC002020202020202020202020005379737493
:107EDC00656D7320536F6C7574696F6E73205341AD
:107EEC00006C6F73206D6F746F72657320792070E6
:107EFC0061726164610020616D6172696C6C6F20EC
:107F0C007061726120706172617200507265736988
:107F1C006F6E6520656C2070756C7361646F720098
:107F2C006465206F7065726163696F6E3A20202002
:107F3C002020200045737065726520756E206D6F72
:107F4C006D656E746F2E007665726465207061725B
:107F5C006120656D70657A6172004D6F746F72652A
:107F6C007320626C6F71756561646F73004573701B
:107F7C0065726520756E206D6F6D656E746F004F48
:107F8C007065726163696F6E3A202020202020009A
:107F9C005072656E6469656E646F204D6F746F729C
:107FAC000053656C656363696F6E6520756E202583
:107FBC0000646520656D657267656E636961006359
:107FCC006F6E666967757261726C6F00766572644C
:107FDC00652070617261004D4F544F52204F4646E0
:107FEC0000554E20434F525445004D4F544F522094
:047FFC004F4E0000E4
:020000040020DA
:08000000FFFFFFFFFFFFFFFF00
:020000040030CA
:0E00000000091F1EFF8381FF0FC00FE00F409D
:00000001FF
