:0400000007EF00F016
:0A000800438216ED08F0DAEF07F06E
:1008000000526576697365206C6120636F6E657850
:10081000696F6E2061200041637469766520656CA4
:100820002070756C7361646F7200457370657265DA
:1008300020756E206D6F6D656E746F0053656C650D
:100840006363696F6E6520756E2025004D6F746F50
:1008500072207072656E6469646F007061726120ED
:10086000616A75737461726C6F006465206F706586
:10087000726163696F6E3A00436F727461646F7284
:100880006120554E006C6F73206D6F746F726573CD
:10089000004F7065726163696F6E3A004D6F746FDF
:1008A00072204F464600323032332D3100554E41D2
:0908B0004C00202000302500005E
:1008BA000F0EC16E000E956E000E8C6E93680C0EB4
:1008CA00BD6E0C0EBA6EF90ECB6E000EBE6E000E29
:1008DA00BB6E000ECA6E000ECC6ECA8494929494BB
:1008EA00F292F288F090F086F092F088F18EF28E11
:1008FA00F28C81B002D0010E01D0000E416E81B699
:10090A0002D0010E01D0000E406E040E28EC08F051
:10091A00A8EC06F0A30E2B6E550EE82EFED72B2E52
:10092A00FCD700F081B002D0010E01D0000E416E5A
:10093A0081B602D0010E01D0000E406EB9D0000E71
:10094A008C6E780E0D6E2A0E0E6EAD0E0F6EA60E02
:10095A00106EBBEC07F0010E3F6E030E2C6E8A0E72
:10096A002B6E560EE82EFED72B2EFCD72C2EFAD73E
:10097A00D9D783908392000EBE6E000E3C6E3E5015
:10098A003F18D8B40AD0B30E0D6E010E0E6E850E46
:10099A000F6EB20E106EBBEC07F0010E3E6E4150A8
:1009AA00D8A402D0010E82D0020E80D08380839216
:1009BA00010E3D6E000E3C6E000EBE6E3E503F189C
:1009CA00D8B40AD09C0E0D6EB20E0E6E170E0F6EB4
:1009DA005B0E106EBBEC07F0020E3E6E4150D8B4AF
:1009EA00E1D74004D8A4E0D7030E20D08392000EAA
:1009FA00336E800E346E3F0E356E000EBE6E415061
:100A0A00D8B4D0D73E503F18D8B40AD03C0E0D6E99
:100A1A006A0E0E6EB30E0F6EB50E106EBBEC07F0BB
:100A2A00030E3E6E3D04D8A405D0020E3F6E000EA2
:100A3A003D6E78D73C04D8A475D7040E3F6E000EDD
:100A4A003C6E70D7838233C010F034C011F035C0C9
:100A5A0012F0CB5004EC08F009C00DF00AC00EF0F9
:100A6A000BC00FF06EEC05F00DC01CF00EC01DF0AF
:100A7A000FC01EF0E8EC05F01C50BE6E3E503F1849
:100A8A00D8B40AD04C0E0D6E910E0E6EB30E0F6EC8
:100A9A00B50E106EBBEC07F0040E3E6E4150D8B492
:100AAA0081D73D04D8B4C1D73DD7000E3F6E3AD79F
:100ABA003F50000AD8B443D7010AD8B45AD7030A18
:100ACA00D8B474D7010AD8B491D7070AD8B4BAD718
:100ADA00ECD70FC013F0146A156A0E34133601E30B
:100AEA0014801350166E1650D8A407D0000E0D6E3F
:100AFA00000E0E6E000E0F6E120012C013F0146A72
:100B0A00156A1134133601E3148013501B6E1B50FF
:100B1A00D8A407D0000E0D6E000E0E6E000E0F6EDA
:100B2A0012001B507B0F16260FC01BF012501B1A07
:100B3A00800E1B160E8E118EFF0E1016FF0E11164A
:100B4A00000E1216000E176E000E186E000E196EA9
:100B5A00070E1A6E0DA006D0105017261150182233
:100B6A0012501922D8900F320E320D32D890103608
:100B7A00113612361A2EEED7090E1A6E0DA006D0AD
:100B8A00105017261150182212501922D8900F32DD
:100B9A000E320D32D8901932183217321A2EEED779
:100BAA0017C001F018C002F019C003F016C004F013
:100BBA001BC005F051EC06F001C00DF002C00EF0AA
:100BCA0003C00FF012001EC020F0216A226A1D34F1
:100BDA00203601E3218020502A6E2A50D8A409D059
:100BEA00000E1C6E000E1D6E000E1E6E000E1F6E95
:100BFA001200170E206E1CC021F01DC022F01EC06C
:100C0A0023F02028246E04D0D890233222322132B5
:100C1A00242EFAD72150256E1D8EFF0E1C16FF0EAC
:100C2A001D16000E1E161C50266E1D50276E1E50D5
:100C3A00286E296A8E0E2A5E2AAE0DD02A50800AA4
:100C4A008F0FD8A0CDD7D890293228322732263212
:100C5A002A3EF9D70DD0170E2A6407D0C1D7D890EB
:100C6A0026362736283629362A062A50D8A4F7D710
:100C7A002550D8B408D0291E281E271E266C000E1F
:100C8A0027222822292226C01CF027C01DF028C0AE
:100C9A001EF029C01FF012000450D8B405D001502C
:100CAA0002100310D8A40CD0000E016E000E026EC2
:100CBA00000E036E1200042AD89003320232013267
:100CCA00000E0114066E000E0214076EFE0E0314C7
:100CDA00086E065007100810D8B40CD0ECD7042AB6
:100CEA00010E0126000E0222000E0322D8900332C2
:100CFA0002320132000E0114066E000E0214076E53
:100D0A00FF0E0314086E065007100810D8B406D058
:100D1A00E6D70406D89001360236033602BE03D05F
:100D2A00020E0460F6D704A0029ED8900432045042
:100D3A0003120550D8A4038E01C001F002C002F0CC
:100D4A0003C003F012008C94040E4218D8A404D0F5
:100D5A008C500F0B300901D03F0E8C6E54EC08F00A
:100D6A00010E6DEC07F0040E4218D8A404D08C5082
:100D7A000F0B300901D03F0E8C6E54EC08F0030EB5
:100D8A006DEC07F0040E4218D8A404D08C500F0B57
:100D9A00300901D03F0E8C6E54EC08F0040E6DEC55
:100DAA0007F0040E4218D8A411D08C500F0B20095A
:100DBA008C6E54EC08F0040E6DEC07F02F0E98ECD4
:100DCA0007F054EC08F0040E6DEC07F04AEC08F05A
:100DDA000F0E98EC07F054EC08F0040E6DEC07F0D7
:100DEA001200000E066E04AE06D0036C041ED8B0C4
:100DFA00042A010E066E02AE06D0016C021ED8B09D
:100E0A00022A010E061A000E086E000E076E035023
:100E1A000410D8B41CD0010E056E04D0D890033645
:100E2A000436052A04AEFAD7D89007360836035096
:100E3A00015C04500258D8A005D00350015E04504A
:100E4A00025A0780D89004320332052EEDD7065095
:100E5A00D8B404D0076C081ED8B0082A07C001F01D
:100E6A0008C002F0120009C001F0F0EC07F00150CE
:100E7A000A6E0A501408016E000ED8A0E82A00086B
:100E8A00026E000E046E020E036EF6EC06F00150BE
:100E9A000B6E000E0C6E04D0200E34EC08F00C2AF7
:100EAA000B500C5CD8B00AD0F7D709C0F6FF080E71
:100EBA00F76E0800F55034EC08F0092A09C0F6FF6D
:100ECA00080EF76E0800F5500009D8B41200EDD7E5
:100EDA00026E1BD0050E016EDE0EE82EFED7012E25
:100EEA00FCD71200530EE82EFED700F0350EE82E7E
:100EFA00FED700F01200080EE82EFED700F012000E
:100F0A00030EE82EFED700F012000250010AD8B4F0
:100F1A00E1D7030AD8B4E6D7010AD8B4ECD7070A4E
:100F2A00D8A41200EDD7046E040E4218D8A417D024
:100F3A0004C003F0F00E03168C500F0B03108C6ED6
:100F4A0054EC08F0010E6DEC07F004C003F0033A0C
:100F5A00F00E03168C500F0B03108C6E1200080E45
:100F6A004218D8A4120004C08CFF12004AEC08F000
:100F7A00000E3FEC08F00DC009F038EC07F0C00E87
:100F8A003FEC08F00EC009F038EC07F0940E3FEC85
:100F9A0008F00FC009F038EC07F0D40E3FEC08F067
:100FAA0010C009F038EC07F01200B60EF66E100EFB
:100FBA00F76E000EF86E0900F5CF42F000EE2DF044
:100FCA00130EEE6AE806FDE143904392000EF86EB6
:100FDA0000015DEF04F001C003F001D0032A03C051
:100FEA00F6FF080EF76E0800F5500009D8A4F6D7E8
:100FFA000150035C016E026A01BE020612000C6E09
:10100A000C50016E026A036A8E0E046E000E056EA3
:10101A0051EC06F001C009F002C00AF003C00BF05F
:10102A0012000600F2A203D0000E416EF292F0A066
:10103A0003D0010E3D6EF090F0A203D0010E3C6E7B
:10104A00F09243921100016E040E0118D8B404D034
:10105A00080E0118D8A4120001C042F01200056E51
:10106A008C84055098EC07F054EC08F0040E6DECF3
:10107A0007F01200056E8C94055098EC07F054ECBA
:10108A0008F0040E6DEC07F012008C94010E98EC37
:10109A0007F054EC08F0020E6DEC07F012008C8693
:0D10AA00030EE82EFED700F08C9612000811
:020000040020DA
:08000000FFFFFFFFFFFFFFFF00
:020000040030CA
:0E00000000091F1EFF8385FF0FC00FE00F4099
:00000001FF
