:0400000007EF00F016
:0A0008001982AEED06F06AEF06F073
:1008000000526576697365206C6120636F6E657850
:10081000696F6E2061200041637469766520656CA4
:100820002070756C7361646F7200457370657265DA
:1008300020756E206D6F6D656E746F0053656C650D
:100840006363696F6E6520756E2025004D6F746F50
:1008500072207072656E6469646F007061726120ED
:10086000616A75737461726C6F006465206F706586
:10087000726163696F6E3A00436F727461646F7284
:100880006120554E006C6F73206D6F746F726573CD
:10089000004F7065726163696F6E3A004D6F746FDF
:1008A00072204F464600323032332D3100554E41D2
:0908B0004C00202000302500005E
:1008BA000F0EC16E000E956E000E8C6E93680C0EB4
:1008CA00BD6E0C0EBA6E7C0ECB6E000EBE6E000EA6
:1008DA00BB6E94929494F28EF28C81B002D0010E87
:1008EA0001D0000E166E81B202D0010E01D0000EA8
:1008FA00156E81B402D0010E01D0000E146E81B6BD
:10090A0002D0010E01D0000E136E040E7BEC06F02D
:10091A0024EC05F0A30E116E550EE82EFED7112E0B
:10092A00FCD700F081B002D0010E01D0000E166E85
:10093A0081B202D0010E01D0000E156E000E81B4F4
:10094A00010E146E81B602D0010E01D0000E136E94
:10095A0065D0780E0D6E2A0E0E6EAD0E0F6EA60EB7
:10096A00106E37EC06F0000E8C6E030E126E8A0EB5
:10097A00116E560EE82EFED7112EFCD7122EFAD77C
:10098A00010E4AD0B30E0D6E010E0E6E850E0F6E5D
:10099A00B20E106E37EC06F083901650D8B4F0D72A
:1009AA00020E3AD09C0E0D6EB20E0E6E170E0F6E20
:1009BA005B0E106E37EC06F083801650D8B4E0D781
:1009CA001304D8A4EDD7030E27D03C0E0D6E6A0E81
:1009DA000E6EB30E0F6EB50E106E37EC06F0165093
:1009EA00D8B4CED71504D8B4DBD71404D8A49AD770
:1009FA00040E12D04C0E0D6E910E0E6EB30E0F6ECB
:100A0A00B50E106E37EC06F01650D8B4B9D71504E7
:100A1A00D8B4C6D787D7000E176E84D71750000AE6
:100A2A00D8B497D7010AD8B4ADD7030AD8B4BAD77D
:100A3A00010AD8B4CAD7070AD8B4DCD7ECD78C9441
:100A4A00040E1818D8A404D08C500F0B300901D00A
:100A5A003F0E8C6EA7EC06F0010EE9EC05F0040ED1
:100A6A001818D8A404D08C500F0B300901D03F0EAF
:100A7A008C6EA7EC06F0030EE9EC05F0040E1818CC
:100A8A00D8A404D08C500F0B300901D03F0E8C6EC5
:100A9A00A7EC06F0040EE9EC05F0040E1818D8A429
:100AAA0011D08C500F0B20098C6EA7EC06F0040EA7
:100ABA00E9EC05F02F0E14EC06F0A7EC06F0040E94
:100ACA00E9EC05F09DEC06F00F0E14EC06F0A7EC2D
:100ADA0006F0040EE9EC05F01200000E066E04AEF4
:100AEA0006D0036C041ED8B0042A010E066E02AEAC
:100AFA0006D0016C021ED8B0022A010E061A000E98
:100B0A00086E000E076E03500410D8B41CD0010EF4
:100B1A00056E04D0D89003360436052A04AEFAD7F7
:100B2A00D890073608360350015C04500258D8A002
:100B3A0005D00350015E0450025A0780D89004324F
:100B4A000332052EEDD70650D8B404D0076C081E20
:100B5A00D8B0082A07C001F008C002F0120009C084
:100B6A0001F056EC06F001500A6E0A501408016EA4
:100B7A00000ED8A0E82A0008026E000E046E020ECB
:100B8A00036E72EC05F001500B6E000E0C6E04D071
:100B9A00200E87EC06F00C2A0B500C5CD8B00AD059
:100BAA00F7D709C0F6FF080EF76E0800F55087EC74
:100BBA0006F0092A09C0F6FF080EF76E0800F5507C
:100BCA000009D8B41200EDD7026E1BD0050E016ED3
:100BDA00DE0EE82EFED7012EFCD71200530EE82EA9
:100BEA00FED700F0350EE82EFED700F01200080EF0
:100BFA00E82EFED700F01200030EE82EFED700F012
:100C0A0012000250010AD8B4E1D7030AD8B4E6D7D1
:100C1A00010AD8B4ECD7070AD8A41200EDD7046E9B
:100C2A00040E1818D8A417D004C003F0F00E031647
:100C3A008C500F0B03108C6EA7EC06F0010EE9EC3A
:100C4A0005F004C003F0033AF00E03168C500F0BA4
:100C5A0003108C6E1200080E1818D8A4120004C0D3
:100C6A008CFF12009DEC06F0000E92EC06F00DC00F
:100C7A0009F0B4EC05F0C00E92EC06F00EC009F0D3
:100C8A00B4EC05F0940E92EC06F00FC009F0B4EC47
:100C9A0005F0D40E92EC06F010C009F0B4EC05F0A1
:100CAA00120001C003F001D0032A03C0F6FF080EA8
:100CBA00F76E0800F5500009D8A4F6D70150035C76
:100CCA00016E026A01BE02061200620EF66E0D0E77
:100CDA00F76E000EF86E0900F5CF18F0176A199032
:100CEA001992000EF86E00015DEF04F0016E040E19
:100CFA000118D8B404D0080E0118D8A4120001C0F3
:100D0A0018F01200056E8C84055014EC06F0A7EC5E
:100D1A0006F0040EE9EC05F01200056E8C940550FD
:100D2A0014EC06F0A7EC06F0040EE9EC05F012004C
:100D3A008C94010E14EC06F0A7EC06F0020EE9EC16
:100D4A0005F012008C86030EE82EFED700F08C9672
:090D5A00120006001992110008B4
:020000040020DA
:08000000FFFFFFFFFFFFFFFF00
:020000040030CA
:0E00000000091F1EFF8385FF0FC00FE00F4099
:00000001FF
