:0400000007EF00F016
:0A0008005A82B4ED0EF03DEF13F044
:1008000000496E64657465726D696E61646F005253
:1008100065736574204D434C524500526573657491
:0F08200020504F5200496E66696E69746F000078
:100830008C8458EF0BF01CC006F01DC007F01EC0E2
:1008400008F01FC009F00A0E0A6E000E0B6E000EB3
:100850000C6E000E0D6ED8EC12F006503A6E3A5047
:10086000300FC3EC14F01200640E0A6E000E0B6E13
:10087000000E0C6E000E0D6E1CC006F01DC007F0C1
:100880001EC008F01FC009F0D8EC12F006C00FF02F
:1008900007C010F008C011F009C012F00A0E136E64
:1008A000000E146E000E156E000E166EE7EC11F0C1
:1008B0000F50396E1CC006F01DC007F01EC008F0B6
:1008C0001FC009F00A0E0A6E000E0B6E000E0C6EB1
:1008D000000E0D6ED8EC12F006503A6E3950300F03
:1008E000C3EC14F03A50300FC3EC14F01200E80ED1
:1008F0000A6E030E0B6E000E0C6E000E0D6E1CC009
:1009000006F01DC007F01EC008F01FC009F0D8ECAB
:1009100012F006C00FF007C010F008C011F009C0B7
:1009200012F0640E136E000E146E000E156E000EA3
:10093000166EE7EC11F00FC037F010C038F0640EFF
:100940000A6E000E0B6E000E0C6E000E0D6E1CC0BB
:1009500006F01DC007F01EC008F01FC009F0D8EC5B
:1009600012F006C00FF007C010F008C011F009C067
:1009700012F00A0E136E000E146E000E156E000EAD
:10098000166EE7EC11F00F50396E1CC006F01DC05A
:1009900007F01EC008F01FC009F00A0E0A6E000E14
:1009A0000B6E000E0C6E000E0D6ED8EC12F00650A1
:1009B0003A6E3750300FC3EC14F03950300FC3EC9F
:1009C00014F03A50300FC3EC14F01200100E0A6EFF
:1009D000270E0B6E000E0C6E000E0D6E1CC006F086
:1009E0001DC007F01EC008F01FC009F0D8EC12F0BF
:1009F00006C00FF007C010F008C011F009C012F0D7
:100A0000E80E136E030E146E000E156E000E166EB9
:100A1000E7EC11F00FC035F010C036F0E80E0A6EAA
:100A2000030E0B6E000E0C6E000E0D6E1CC006F059
:100A30001DC007F01EC008F01FC009F0D8EC12F06E
:100A400006C00FF007C010F008C011F009C012F086
:100A5000640E136E000E146E000E156E000E166EF0
:100A6000E7EC11F00FC037F010C038F0640E0A6EDA
:100A7000000E0B6E000E0C6E000E0D6E1CC006F00C
:100A80001DC007F01EC008F01FC009F0D8EC12F01E
:100A900006C00FF007C010F008C011F009C012F036
:100AA0000A0E136E000E146E000E156E000E166EFA
:100AB000E7EC11F00F50396E1CC006F01DC007F0B6
:100AC0001EC008F01FC009F00A0E0A6E000E0B6E61
:100AD000000E0C6E000E0D6ED8EC12F006503A6E41
:100AE0003550300FC3EC14F03750300FC3EC14F016
:100AF0003950300FC3EC14F03A50300FC3EC14F0FF
:100B00001200A00E0A6E860E0B6E010E0C6E000E09
:100B10000D6E1CC006F01DC007F01EC008F01FC0FF
:100B200009F0D8EC12F006C00FF007C010F008C0B2
:100B300011F009C012F0100E136E270E146E000E85
:100B4000156E000E166EE7EC11F00FC031F010C0FC
:100B500032F011C033F012C034F0100E0A6E270EBE
:100B60000B6E000E0C6E000E0D6E1CC006F01DC04C
:100B700007F01EC008F01FC009F0D8EC12F006C044
:100B80000FF007C010F008C011F009C012F0E80E15
:100B9000136E030E146E000E156E000E166EE7EC4B
:100BA00011F00FC035F010C036F0E80E0A6E030EDB
:100BB0000B6E000E0C6E000E0D6E1CC006F01DC0FC
:100BC00007F01EC008F01FC009F0D8EC12F006C0F4
:100BD0000FF007C010F008C011F009C012F0640E49
:100BE000136E000E146E000E156E000E166EE7ECFE
:100BF00011F00FC037F010C038F0640E0A6E000E0E
:100C00000B6E000E0C6E000E0D6E1CC006F01DC0AB
:100C100007F01EC008F01FC009F0D8EC12F006C0A3
:100C20000FF007C010F008C011F009C012F00A0E52
:100C3000136E000E146E000E156E000E166EE7ECAD
:100C400011F00F50396E1CC006F01DC007F01EC019
:100C500008F01FC009F00A0E0A6E000E0B6E000E9F
:100C60000C6E000E0D6ED8EC12F006503A6E31503C
:100C7000300FC3EC14F03550300FC3EC14F0375084
:100C8000300FC3EC14F03950300FC3EC14F03A506D
:100C9000300FC3EC14F01200400E0A6E420E0B6EC1
:100CA0000F0E0C6E000E0D6E1CC006F01DC007F07E
:100CB0001EC008F01FC009F0D8EC12F006C00FF0FB
:100CC00007C010F008C011F009C012F0A00E136E9A
:100CD000860E146E010E156E000E166EE7EC11F006
:100CE0000FC02DF010C02EF011C02FF012C030F048
:100CF000A00E0A6E860E0B6E010E0C6E000E0D6EAF
:100D00001CC006F01DC007F01EC008F01FC009F08F
:100D1000D8EC12F006C00FF007C010F008C011F0B8
:100D200009C012F0100E136E270E146E000E156E11
:100D3000000E166EE7EC11F00FC031F010C032F06B
:100D400011C033F012C034F0100E0A6E270E0B6E75
:100D5000000E0C6E000E0D6E1CC006F01DC007F0DC
:100D60001EC008F01FC009F0D8EC12F006C00FF04A
:100D700007C010F008C011F009C012F0E80E136EA1
:100D8000030E146E000E156E000E166EE7EC11F0D9
:100D90000FC035F010C036F0E80E0A6E030E0B6E71
:100DA000000E0C6E000E0D6E1CC006F01DC007F08C
:100DB0001EC008F01FC009F0D8EC12F006C00FF0FA
:100DC00007C010F008C011F009C012F0640E136ED5
:100DD000000E146E000E156E000E166EE7EC11F08C
:100DE0000FC037F010C038F0640E0A6E000E0B6EA4
:100DF000000E0C6E000E0D6E1CC006F01DC007F03C
:100E00001EC008F01FC009F0D8EC12F006C00FF0A9
:100E100007C010F008C011F009C012F00A0E136EDE
:100E2000000E146E000E156E000E166EE7EC11F03B
:100E30000F50396E1CC006F01DC007F01EC008F030
:100E40001FC009F00A0E0A6E000E0B6E000E0C6E2B
:100E5000000E0D6ED8EC12F006503A6E2D50300F89
:100E6000C3EC14F03150300FC3EC14F03550300F98
:100E7000C3EC14F03750300FC3EC14F03950300F7E
:100E8000C3EC14F03A50300FC3EC14F01200800E93
:100E90000A6E960E0B6E980E0C6E000E0D6E1CC038
:100EA00006F01DC007F01EC008F01FC009F0D8EC06
:100EB00012F006C00FF007C010F008C011F009C012
:100EC00012F0400E136E420E146E0F0E156E000ED1
:100ED000166EE7EC11F00FC029F010C02AF011C017
:100EE0002BF012C02CF0400E0A6E420E0B6E0F0E4D
:100EF0000C6E000E0D6E1CC006F01DC007F01EC06B
:100F000008F01FC009F0D8EC12F006C00FF007C0BF
:100F100010F008C011F009C012F0A00E136E860E7A
:100F2000146E010E156E000E166EE7EC11F00FC078
:100F30002DF010C02EF011C02FF012C030F0A00E16
:100F40000A6E860E0B6E010E0C6E000E0D6E1CC02E
:100F500006F01DC007F01EC008F01FC009F0D8EC55
:100F600012F006C00FF007C010F008C011F009C061
:100F700012F0100E136E270E146E000E156E000E7A
:100F8000166EE7EC11F00FC031F010C032F011C056
:100F900033F012C034F0100E0A6E270E0B6E000EE6
:100FA0000C6E000E0D6E1CC006F01DC007F01EC0BA
:100FB00008F01FC009F0D8EC12F006C00FF007C00F
:100FC00010F008C011F009C012F0E80E136E030E05
:100FD000146E000E156E000E166EE7EC11F00FC0C9
:100FE00035F010C036F0E80E0A6E030E0B6E000EE0
:100FF0000C6E000E0D6E1CC006F01DC007F01EC06A
:1010000008F01FC009F0D8EC12F006C00FF007C0BE
:1010100010F008C011F009C012F0640E136E000E3B
:10102000146E000E156E000E166EE7EC11F00FC078
:1010300037F010C038F0640E0A6E000E0B6E000E12
:101040000C6E000E0D6E1CC006F01DC007F01EC019
:1010500008F01FC009F0D8EC12F006C00FF007C06E
:1010600010F008C011F009C012F00A0E136E000E45
:10107000146E000E156E000E166EE7EC11F00F5098
:10108000396E1CC006F01DC007F01EC008F01FC05E
:1010900009F00A0E0A6E000E0B6E000E0C6E000EAA
:1010A0000D6ED8EC12F006503A6E2950300FC3EC9A
:1010B00014F02D50300FC3EC14F03150300FC3EC4E
:1010C00014F03550300FC3EC14F03750300FC3EC30
:1010D00014F03950300FC3EC14F03A50300FC3EC19
:1010E00014F01200000E0A6EE10E0B6EF50E0C6E7F
:1010F000050E0D6E1CC006F01DC007F01EC008F0E6
:101100001FC009F0D8EC12F006C00FF007C010F0B5
:1011100008C011F009C012F0800E136E960E146E06
:10112000980E156E000E166EE7EC11F00FC025F04C
:1011300010C026F011C027F012C028F0800E0A6EF1
:10114000960E0B6E980E0C6E000E0D6E1CC006F007
:101150001DC007F01EC008F01FC009F0D8EC12F047
:1011600006C00FF007C010F008C011F009C012F05F
:10117000400E136E420E146E0F0E156E000E166E9C
:10118000E7EC11F00FC029F010C02AF011C02BF0CD
:1011900012C02CF0400E0A6E420E0B6E0F0E0C6E3B
:1011A000000E0D6E1CC006F01DC007F01EC008F03A
:1011B0001FC009F0D8EC12F006C00FF007C010F005
:1011C00008C011F009C012F0A00E136E860E146E46
:1011D000010E156E000E166EE7EC11F00FC02DF02B
:1011E00010C02EF011C02FF012C030F0A00E0A6E09
:1011F000860E0B6E010E0C6E000E0D6E1CC006F0FE
:101200001DC007F01EC008F01FC009F0D8EC12F096
:1012100006C00FF007C010F008C011F009C012F0AE
:10122000100E136E270E146E000E156E000E166E45
:10123000E7EC11F00FC031F010C032F011C033F004
:1012400012C034F0100E0A6E270E0B6E000E0C6EDC
:10125000000E0D6E1CC006F01DC007F01EC008F089
:101260001FC009F0D8EC12F006C00FF007C010F054
:1012700008C011F009C012F0E80E136E030E146ED0
:10128000000E156E000E166EE7EC11F00FC035F073
:1012900010C036F0E80E0A6E030E0B6E000E0C6ED8
:1012A000000E0D6E1CC006F01DC007F01EC008F039
:1012B0001FC009F0D8EC12F006C00FF007C010F004
:1012C00008C011F009C012F0640E136E000E146E07
:1012D000000E156E000E166EE7EC11F00FC037F021
:1012E00010C038F0640E0A6E000E0B6E000E0C6E0D
:1012F000000E0D6E1CC006F01DC007F01EC008F0E9
:101300001FC009F0D8EC12F006C00FF007C010F0B3
:1013100008C011F009C012F00A0E136E000E146E10
:10132000000E156E000E166EE7EC11F00F50396EC0
:101330001CC006F01DC007F01EC008F01FC009F059
:101340000A0E0A6E000E0B6E000E0C6E000E0D6E75
:10135000D8EC12F006503A6E2550300FC3EC14F062
:101360002950300FC3EC14F02D50300FC3EC14F0A3
:101370003150300FC3EC14F03550300FC3EC14F083
:101380003750300FC3EC14F03950300FC3EC14F069
:101390003A50300FC3EC14F01200000E0A6ECA0E61
:1013A0000B6E9A0E0C6E3B0E0D6E1CC006F01DC02F
:1013B00007F01EC008F01FC009F0D8EC12F006C0FC
:1013C0000FF007C010F008C011F009C012F0000EB5
:1013D000136EE10E146EF50E156E050E166EE7EC2B
:1013E00011F00FC021F010C022F011C023F012C084
:1013F00024F0000E0A6EE10E0B6EF50E0C6E050E5B
:101400000D6E1CC006F01DC007F01EC008F01FC006
:1014100009F0D8EC12F006C00FF007C010F008C0B9
:1014200011F009C012F0800E136E960E146E980E15
:10143000156E000E166EE7EC11F00FC025F010C00F
:1014400026F011C027F012C028F0800E0A6E960E0A
:101450000B6E980E0C6E000E0D6E1CC006F01DC0BB
:1014600007F01EC008F01FC009F0D8EC12F006C04B
:101470000FF007C010F008C011F009C012F0400EC4
:10148000136E420E146E0F0E156E000E166EE7EC04
:1014900011F00FC029F010C02AF011C02BF012C0BB
:1014A0002CF0400E0A6E420E0B6E0F0E0C6E000EEC
:1014B0000D6E1CC006F01DC007F01EC008F01FC056
:1014C00009F0D8EC12F006C00FF007C010F008C009
:1014D00011F009C012F0A00E136E860E146E010EEC
:1014E000156E000E166EE7EC11F00FC02DF010C057
:1014F0002EF011C02FF012C030F0A00E0A6E860E32
:101500000B6E010E0C6E000E0D6E1CC006F01DC0A1
:1015100007F01EC008F01FC009F0D8EC12F006C09A
:101520000FF007C010F008C011F009C012F0100E43
:10153000136E270E146E000E156E000E166EE7EC7D
:1015400011F00FC031F010C032F011C033F012C0F2
:1015500034F0100E0A6E270E0B6E000E0C6E000E8D
:101560000D6E1CC006F01DC007F01EC008F01FC0A5
:1015700009F0D8EC12F006C00FF007C010F008C058
:1015800011F009C012F0E80E136E030E146E000E77
:10159000156E000E166EE7EC11F00FC035F010C09E
:1015A00036F0E80E0A6E030E0B6E000E0C6E000E87
:1015B0000D6E1CC006F01DC007F01EC008F01FC055
:1015C00009F0D8EC12F006C00FF007C010F008C008
:1015D00011F009C012F0640E136E000E146E000EAE
:1015E000156E000E166EE7EC11F00FC037F010C04C
:1015F00038F0640E0A6E000E0B6E000E0C6E000EBC
:101600000D6E1CC006F01DC007F01EC008F01FC004
:1016100009F0D8EC12F006C00FF007C010F008C0B7
:1016200011F009C012F00A0E136E000E146E000EB7
:10163000156E000E166EE7EC11F00F50396E1CC0DF
:1016400006F01DC007F01EC008F01FC009F00A0E0A
:101650000A6E000E0B6E000E0C6E000E0D6ED8ECB6
:1016600012F006503A6E2150300FC3EC14F02550A2
:10167000300FC3EC14F02950300FC3EC14F02D5090
:10168000300FC3EC14F03150300FC3EC14F0355070
:10169000300FC3EC14F03750300FC3EC14F0395056
:1016A000300FC3EC14F03A50300FC3EC14F01200BA
:1016B0002050010AD8B41BEF04F0030AD8B434EF69
:1016C00004F0010AD8B477EF04F0070AD8B4E6EFC3
:1016D00004F0010AD8B481EF05F0030AD8B44CEF46
:1016E00006F0010AD8B447EF07F00F0AD8B4FAD4CD
:1016F000010AD8A4120051D63D50D00F0001876FC7
:101700003F50D00F866FC00ECEEC14F02B0E3E185B
:10171000D8A43AD0000187518625306E316A31361F
:1017200040EC14F030C088F031C089F032C08AF04B
:1017300088C006F089C007F08AC008F0000E096E64
:10174000200E0A6E410E0B6E66EC12F0D8B00ED071
:10175000010E2C6E88C01DF089C01EF08AC01FF0DB
:10176000D9EC10F01D5066EC10F01200020E2C6E39
:1017700088C01DF089C01EF08AC01FF0D9EC10F09F
:101780001D5066EC10F012002D0E3E18D8A44DD05E
:1017900000018651875D306E316AD8A0310640EC79
:1017A00014F030C088F031C089F032C08AF00001F6
:1017B0008ABF0ED0010E2C6E88C01DF089C01EF0AD
:1017C0008AC01FF0D9EC10F01D5066EC10F012002A
:1017D0008AAF120088C01DF089C01EF08AC01FF0B9
:1017E000D9EC10F01DC02CF01EC02DF086EC14F0CA
:1017F0002CC030F02DC031F040EC14F030C088F037
:1018000031C089F032C08AF02D0EC3EC14F0010E05
:101810002C6E88C01DF089C01EF08AC01FF0D9EC64
:1018200010F01D5066EC10F01200780E3E18D8A48F
:101830003BD0000187518603F3CF30F0F4CF31F075
:1018400040EC14F030C088F031C089F032C08AF02A
:1018500088C006F089C007F08AC008F0000E096E43
:10186000200E0A6E410E0B6E66EC12F0D8B00ED050
:10187000010E2C6E88C01DF089C01EF08AC01FF0BA
:10188000D9EC10F01D5066EC10F01200020E2C6E18
:1018900088C01DF089C01EF08AC01FF0D9EC10F07E
:1018A0001D5066EC10F012002F0E3E18D8A45FD029
:1018B00000018651D8A40AD08751D8A407D0010EC0
:1018C0000B6E0D0E0C6EE3EC13F012008651D8A4D3
:1018D00007D0250E0B6E080E0C6EE3EC13F0120011
:1018E00087519AEC14F00EC069F00FC06AF010C076
:1018F0006BF0000186519AEC14F00EC06CF00FC032
:101900006DF010C06EF069C00EF06AC00FF06BC0D1
:1019100010F06CC011F06DC012F06EC013F0F3EC5B
:101920000FF00EC088F00FC089F010C08AF086C09A
:1019300006F0000187515CEC14F00009D8A40ED029
:10194000010E2C6E88C01DF089C01EF08AC01FF0E9
:10195000D9EC10F01D5066EC10F0120088C031F088
:1019600089C032F08AC033F028EC12F012005E0E0B
:101970003E18D8A492D0000E00017C6F010E706F4B
:10198000000E716F000E726F000E736F8751D8A436
:101990000AD08651D8A407D0010E0B6E0D0E0C6E26
:1019A000E3EC13F012008751D8A406D0010E2C6E80
:1019B000000E66EC10F012008651D8A406D0010E7D
:1019C0002C6E010E66EC10F012008751656F666B8D
:1019D000676B686B010E7E6F000E7F6F000E806F6D
:1019E000000E816F000E6F6F1CD07EC006F07FC0AE
:1019F00007F080C008F081C009F065C00AF066C039
:101A00000BF067C00CF068C00DF06AEC13F006C074
:101A10007EF007C07FF008C080F009C081F00001AF
:101A20006F2B86516F5DD8B021D0DFD770C006F024
:101A300071C007F072C008F073C009F00A0E0A6E98
:101A4000000E0B6E000E0C6E000E0D6E6AEC13F0A5
:101A500006C070F007C071F008C072F009C073F0E2
:101A600000017C2B090E7C19D8B40AD070517E5D20
:101A700071517F597251805973518159D8B0D6D75D
:101A80007EC01CF07FC01DF080C01EF081C01FF022
:101A90007CC020F018EC04F01200210E3E18D8A4EF
:101AA0001200000E00017D6F010E746F000E756F45
:101AB000000E766F000E776F010E826F000E836F3F
:101AC000000E846F000E856F020E876106D0010E36
:101AD0002C6E010E66EC10F01200010E786F000EF5
:101AE000796F000E7A6F000E7B6F21D082C006F0F6
:101AF00083C007F084C008F085C009F078C00AF000
:101B000079C00BF07AC00CF07BC00DF06AEC13F0DA
:101B100006C082F007C083F008C084F009C085F0D9
:101B2000010E00017827000E79237A237B2387C0DA
:101B300060F0616B626B636B7851605D79516159E4
:101B40007A5162596351800A646F7B51800A6459EB
:101B5000D8A021D0CBD774C006F075C007F076C0EE
:101B600008F077C009F00A0E0A6E000E0B6E000E28
:101B70000C6E000E0D6E6AEC13F006C074F007C018
:101B800075F008C076F009C077F000017D2B090ED2
:101B90007D19D8B40AD07451825D7551835976513C
:101BA000845977518559D8B0D6D782C01CF083C0EC
:101BB0001DF084C01EF085C01FF07DC020F018EC21
:101BC00004F012000F0EC16E000E956E010E8C6EA9
:101BD000F00E936E000E8A6E9280A10ECD6E850E71
:101BE000D56E0B0ECF6EDC0ECE6E9E909D80F19E5C
:101BF000F290F286670ED76E690ED66EF294F28A74
:101C0000F28EF28CA30E3B6E550EE82EFED73B2EC5
:101C1000FCD700F0040EACEC14F099EC11F04B0E74
:101C20000B6E400E71EC14F0430E0B6E480E71EC0F
:101C300014F0930E0B6E500E71EC14F08B0E0B6EB5
:101C4000580E71EC14F0D0B234D01B0E0B6E090E8E
:101C50000C6EE3EC13F0D08228D0A30E3B6E550E31
:101C6000E82EFED73B2EFCD700F0C00ECEEC14F0D1
:101C7000000EC3EC14F0020EC3EC14F0030EC3EC20
:101C800014F0A30E3B6E550EE82EFED73B2EFCD76C
:101C900000F0C00ECEEC14F0010EC3EC14F0020EF6
:101CA000C3EC14F0030EC3EC14F05450D8A40AD0C3
:101CB000D4D70F0E0B6E0B0E0C6EE3EC13F05450DA
:101CC000D8B4FDD7D9EC14F05604D8A4FDD75704E6
:101CD000D8A410D0D9EC14F0010E3C6E3C503D0F4E
:101CE000D96EDA6A200EDF6E3C2A030E3C64F6D70A
:101CF000000E576E5804D8A414D059507F0FCEEC64
:101D000014F059503D0FD96EDA6ADF50C3EC14F06D
:101D100059507F0FCEEC14F05906000E586E000E8D
:101D2000566E5504D8A40BD059503C0FD96EDA6AC0
:101D3000DF50C3EC14F0000E556E000E566E040E0C
:101D40005918D8B408D0030E5918D8A4BDD7210EFD
:101D50003E18D8A4B9D77CEC0BF0000E596E010EDA
:101D6000576E000E566EB0D70600D9CF04F0DACF0A
:101D700005F0F2A0A4D0F00E8118D8B49FD0FE0ECA
:101D80008A6E81B80ED080B006D02B0E026E020E85
:101D900003EC14F08BD05E0E026E020E03EC14F016
:101DA00085D081BA0ED080B006D02D0E026E020E04
:101DB00003EC14F07BD0210E026E020E03EC14F043
:101DC00075D081BC06D0780E026E020E03EC14F0C2
:101DD0006DD081BE06D02F0E026E020E03EC14F001
:101DE00065D0FD0E8A6E81B806D03D0E026E030EE0
:101DF00003EC14F05BD081BA06D0390E026E010EEE
:101E000003EC14F053D081BC06D0360E026E010EE6
:101E100003EC14F04BD081BE06D0330E026E010EDF
:101E200003EC14F043D0FB0E8A6E81B806D0300E5E
:101E3000026E010E03EC14F039D081BA06D0380ED0
:101E4000026E010E03EC14F031D081BC06D0350EC9
:101E5000026E010E03EC14F029D081BE06D0320EC2
:101E6000026E010E03EC14F021D0F70E8A6E81B8D9
:101E700006D0200E026E040E03EC14F017D081BAC7
:101E800006D0370E026E010E03EC14F00FD081BCA9
:101E900006D0340E026E010E03EC14F007D081BEA2
:101EA00005D0310E026E010E03EC14F0F00E8A6EB6
:101EB000010E546E670ED76E690ED66EF2909EA01C
:101EC0000AD00B0ECF6EDC0ECE6E9E908CB002D080
:101ED0008C8001D08C90F2A406D0670ED76E690E6C
:101EE000D66EF294030005C0DAFF04C0D9FF5A92FF
:101EF000110010C014F0156A166A0F34143601E38D
:101F000015801450176E1750D8A407D0000E0E6E0F
:101F1000000E0F6E000E106E120013C014F0156A42
:101F2000166A1234143601E3158014501C6E1C50CE
:101F3000D8A407D0000E0E6E000E0F6E000E106EAD
:101F400012001C507B0F172610C01CF013501C1AD7
:101F5000800E1C160F8E128EFF0E1116FF0E12161B
:101F6000000E1316000E186E000E196E000E1A6E7B
:101F7000070E1B6E0EA006D0115018261250192203
:101F800013501A22D89010320F320E32D8901136D8
:101F9000123613361B2EEED7090E1B6E0EA006D07E
:101FA000115018261250192213501A22D8901032AC
:101FB0000F320E32D8901A32193218321B2EEED749
:101FC00018C006F019C007F01AC008F017C009F0D1
:101FD0001CC00AF042EC11F006C00EF007C00FF072
:101FE00008C010F0120010C014F0156A166A0F3401
:101FF000143601E3158014501B6E1B50D8A407D073
:10200000000E0E6E000E0F6E000E106E120013C04A
:1020100014F0156A166A1234143601E31580145050
:102020001C6E1C50D8A407D0000E0E6E000E0F6E52
:10203000000E106E1200000E186E000E196E000ECB
:102040001A6E1C50890F1B5E10C01CF013501C1A16
:10205000800E1C160F8EFF0E0E16FF0E0F16000EB2
:102060001016128EFF0E1116FF0E1216000E13160A
:10207000180E176ED890183619361A3611500E5C95
:1020800012500F5813501058D8A007D011500E5EA0
:1020900012500F5A1350105A1880D8900E360F361F
:1020A0001036172EE7D718C006F019C007F01AC06F
:1020B00008F01BC009F01CC00AF042EC11F006C089
:1020C0000EF007C00FF008C010F01200306E8C84C4
:1020D00065D00A0E066E30505CEC14F02F6E2F5057
:1020E000300FC0EC13F0EBEC14F0040E95EC13F091
:1020F00012000A0E0A6E640E066E30505CEC14F08C
:1021000023EC14F02E6E0A0E066E30505CEC14F0C8
:102110002F6E2E50300FC0EC13F0EBEC14F0040EC9
:1021200095EC13F02F50300FC0EC13F0EBEC14F0E3
:10213000040E95EC13F01200640E0A6E305023EC7E
:1021400014F02D6E0A0E0A6E640E066E30505CECB2
:1021500014F023EC14F02E6E0A0E066E30505CEC78
:1021600014F02F6E2D50300FC0EC13F0EBEC14F088
:10217000040E95EC13F02E50300FC0EC13F0EBEC86
:1021800014F0040E95EC13F02F50300FC0EC13F048
:10219000EBEC14F0040E95EC13F012002C50010A35
:1021A000D8B497D7030AD8B4A4D7010AD8A4120088
:1021B000C3D71FC021F0226A236A1E34213601E3EF
:1021C000228021502B6E2B50D8A409D0000E1D6EFA
:1021D000000E1E6E000E1F6E000E206E1200170EF7
:1021E000216E1DC022F01EC023F01FC024F0212844
:1021F000256E04D0D890243223322232252EFAD7ED
:102200002250266E1E8EFF0E1D16FF0E1E16000E8D
:102210001F161D50276E1E50286E1F50296E2A6AE9
:102220008E0E2B5E2BAE0DD02B50800A8F0FD8A0B8
:10223000CDD7D8902A322932283227322B3EF9D7EF
:102240000DD0170E2B6407D0C1D7D890273628366B
:1022500029362A362B062B50D8A4F7D72650D8B4C7
:1022600008D02A1E291E281E276C000E282229228B
:102270002A2227C01DF028C01EF029C01FF02AC046
:1022800020F012000950D8B405D0065007100810ED
:10229000D8A40CD0000E066E000E076E000E086E5D
:1022A0001200092AD890083207320632000E0614AE
:1022B0000B6E000E07140C6EFE0E08140D6E0B5004
:1022C0000C100D10D8B40CD0ECD7092A010E06263C
:1022D000000E0722000E0822D8900832073206327C
:1022E000000E06140B6E000E07140C6EFF0E081481
:1022F0000D6E0B500C100D10D8B406D0E6D70906A1
:10230000D89006360736083607BE03D0020E09609D
:10231000F6D709A0079ED8900932095008120A5032
:10232000D8A4088E06C006F007C007F008C008F061
:1023300012008C94040E4218D8A404D08C500F0BB9
:10234000300901D03F0E8C6EEBEC14F0010E95ECD1
:1023500013F0040E4218D8A404D08C500F0B30098F
:1023600001D03F0E8C6EEBEC14F0030E95EC13F0E5
:10237000040E4218D8A404D08C500F0B300901D0A1
:102380003F0E8C6EEBEC14F0040E95EC13F0040E83
:102390004218D8A411D08C500F0B20098C6EEBEC96
:1023A00014F0040E95EC13F02F0EC0EC13F0EBECD0
:1023B00014F0040E95EC13F0D9EC14F00F0EC0ECF1
:1023C00013F0EBEC14F0040E95EC13F01200000E79
:1023D000176E000E186E000E196E000E1A6E135056
:1023E000141015101610D8B42AD0010E1B6E06D08A
:1023F000D89013361436153616361B2A16AEF8D773
:10240000D8901736183619361A3613500F5C1450F8
:1024100010581550115816501258D8A009D0135002
:102420000F5E1450105A1550115A1650125A178038
:10243000D89016321532143213321B2EE1D717C042
:102440000FF018C010F019C011F01AC012F01200ED
:1024500031C01DF032C01EF033C01FF0D9EC10F0B7
:102460001D50376E000E116EC80E126E420E136EA6
:1024700031C00EF032C00FF033C010F079EC0FF025
:102480000EC01DF00FC01EF010C01FF0D9EC10F0F0
:102490001DC034F01EC035F034C006F035C007F062
:1024A000000E096E640E086EA0EC12F00650366E37
:1024B000010E2C6E375066EC10F02E0EC3EC14F0AB
:1024C000020E2C6E365066EC10F0120008AE0FD0E3
:1024D000000E0C6E000E0D6E800E0E6E06500C5C23
:1024E000066E07500D58076E08500E58086E0BAE5A
:1024F0000FD0000E0C6E000E0D6E800E0E6E095089
:102500000C5C096E0A500D580A6E0B500E580B6E7B
:10251000000E061A000E071A800E081A000E091A7D
:10252000000E0A1A800E0B1A0950065C0A50075852
:102530000B500858D8B002D0D8901200D8801200A2
:10254000000E0B6E07AE06D0066C071ED8B0072A29
:10255000010E0B6E09AE04D0086C091ED8B0092A12
:1025600008500910D8B418D0010E0A6E04D0D890C3
:10257000083609360A2A09AEFAD70850065C09500F
:102580000758D8A004D00850065E0950075AD890C2
:10259000093208320A2EF1D70B50D8B404D0066C99
:1025A000071ED8B0072A06C006F007C007F01200C1
:1025B0000A500B100C100D10D8B424D0010E0E6E62
:1025C00006D0D8900A360B360C360D360E2A0DAED4
:1025D000F8D70A50065C0B5007580C5008580D509D
:1025E0000958D8A008D00A50065E0B50075A0C5064
:1025F000085A0D50095AD8900D320C320B320A325B
:102600000E2EE7D706C006F007C007F008C008F096
:1026100009C009F01200016E22D05950D8B408D078
:10262000020E5918D8A406D0210E3E18D8B402D0F4
:10263000010E1200000E12005904D8B4F9D7FAD7CF
:10264000030E5918D8B4F4D7020E5918D8A4F2D7EB
:10265000210E3E18F2D75950D8A4EAD7EBD7015033
:10266000010AD8B4DAD7030AD8B4E6D7010AD8B435
:10267000E7D7070AD8B4EFD7DDD7C60EF66E290E16
:10268000F76E000EF86E00EE8BF010EE10F0090001
:10269000F5CFEEFFE550E150FAE1700EF66E290E2F
:1026A000F76E000EF86E00EE3DF010EE16F0090029
:1026B000F5CFEEFFE550E150FAE100EE53F0070EE2
:1026C000EE6AE806FDE15A905A92000EF86E00019B
:1026D000E2EF0DF0000E0E6E000E0F6E000E106E8B
:1026E000000E116E06A008D00A500E260B500F22C5
:1026F0000C5010220D501122D8900A360B360C3691
:102700000D36D890093208320732063206500710CB
:1027100008100910D8A4E6D70EC006F00FC007F0C5
:1027200010C008F011C009F01200076E1BD0050E92
:10273000066EDE0EE82EFED7062EFCD71200530ED4
:10274000E82EFED700F0350EE82EFED700F012007E
:10275000080EE82EFED700F01200030EE82EFED77A
:1027600000F012000750010AD8B4E1D7030AD8B428
:10277000E6D7010AD8B4ECD7070AD8A41200EDD7DF
:10278000096E040E4218D8A417D009C008F0F00E44
:1027900008168C500F0B08108C6EEBEC14F0010E29
:1027A00095EC13F009C008F0083AF00E08168C50AA
:1027B0000F0B08108C6E1200080E4218D8A41200DD
:1027C00009C08CFF1200000E116E000E106E0DD0AD
:1027D0000B5010240D6E0DC0F6FF080EF76E0800AA
:1027E000F550C3EC14F0104A112A0C500D6E0E6A0D
:1027F0000D50105C1150800A0F6E0E50800A0F5859
:10280000D8B01200E5D7036E03500BEC13F0566EF0
:102810005604D8A41200200E0218D8A40AD0010E23
:10282000586E590659503D0FD96EDA6A02C0DFFF63
:1028300002D0010E556E59503D0FD96EDA6A02C0B2
:10284000DFFF592A12000B6E000E0D6E0A50D8B42D
:1028500015D0010E0C6E03D0D8900A360C2A0AAEA1
:10286000FBD7D8900D360A500B5CD8A003D00A5085
:102870000B5E0D80D8900A320C2EF3D70D5012004B
:10288000000E336E31AE06D0306C311ED8B0312A16
:10289000010E336E30C006F031C007F0086A8E0EAC
:1028A000096E33C00AF042EC11F006C030F007C0E8
:1028B00031F008C032F01200076E080E086E000EEC
:1028C000096ED89007340934096ED890073606503F
:1028D000095CD8A002D00650095E082EF2D7095034
:1028E00012000C6E0C50CEEC14F0000E0D6E0B505E
:1028F0000D24D96EDA6ADF50C3EC14F00D2A070EEE
:102900000D64F5D7800ECEEC14F012002DAE0DD074
:102910002CC02EF02DC02FF02E1E2F1E2E4A2F2A37
:102920002EC02CF02FC02DF012002CC02CF02DC08A
:102930002DF01200116E1150066E076A086A8E0E95
:10294000096E000E0A6E42EC11F006C00EF007C0D0
:102950000FF008C010F01200066E040E0618D8B46E
:1029600004D0080E0618D8A4120006C042F01200C7
:102970002020202000080609111711090600060969
:102980001214120906000A6E8C840A50C0EC13F06F
:10299000EBEC14F0040E95EC13F012000A6E8C941C
:1029A0000A50C0EC13F0EBEC14F0040E95EC13F0AD
:1029B00012008C94010EC0EC13F0EBEC14F0020E3C
:1029C00095EC13F0120004060706041F0E0006041F
:1029D0000E1F1F170E008C86030EE82EFED700F088
:0429E0008C961200BF
:020000040020DA
:08000000FFFFFFFFFFFFFFFF00
:020000040030CA
:0E00000000091F1EFF8381FF0FC00FE00F409D
:00000001FF
